{
  "abi": [
    {
      "inputs": [
        {
          "internalType": "address",
          "name": "_gamm",
          "type": "address"
        },
        {
          "internalType": "address",
          "name": "_borrow",
          "type": "address"
        },
        {
          "internalType": "address",
          "name": "_goldilend",
          "type": "address"
        },
        {
          "internalType": "address",
          "name": "_honey",
          "type": "address"
        }
      ],
      "stateMutability": "nonpayable",
      "type": "constructor"
    },
    {
      "inputs": [],
      "name": "AllowanceOverflow",
      "type": "error"
    },
    {
      "inputs": [],
      "name": "AllowanceUnderflow",
      "type": "error"
    },
    {
      "inputs": [],
      "name": "InsufficientAllowance",
      "type": "error"
    },
    {
      "inputs": [],
      "name": "InsufficientBalance",
      "type": "error"
    },
    {
      "inputs": [],
      "name": "InvalidPermit",
      "type": "error"
    },
    {
      "inputs": [],
      "name": "InvalidUnstake",
      "type": "error"
    },
    {
      "inputs": [],
      "name": "LocksBorrowedAgainst",
      "type": "error"
    },
    {
      "inputs": [],
      "name": "NotGoldilend",
      "type": "error"
    },
    {
      "inputs": [],
      "name": "PermitExpired",
      "type": "error"
    },
    {
      "inputs": [],
      "name": "TotalSupplyOverflow",
      "type": "error"
    },
    {
      "anonymous": false,
      "inputs": [
        {
          "indexed": true,
          "internalType": "address",
          "name": "owner",
          "type": "address"
        },
        {
          "indexed": true,
          "internalType": "address",
          "name": "spender",
          "type": "address"
        },
        {
          "indexed": false,
          "internalType": "uint256",
          "name": "amount",
          "type": "uint256"
        }
      ],
      "name": "Approval",
      "type": "event"
    },
    {
      "anonymous": false,
      "inputs": [
        {
          "indexed": true,
          "internalType": "address",
          "name": "user",
          "type": "address"
        },
        {
          "indexed": false,
          "internalType": "uint256",
          "name": "amount",
          "type": "uint256"
        }
      ],
      "name": "Claimed",
      "type": "event"
    },
    {
      "anonymous": false,
      "inputs": [
        {
          "indexed": true,
          "internalType": "address",
          "name": "user",
          "type": "address"
        },
        {
          "indexed": false,
          "internalType": "uint256",
          "name": "amount",
          "type": "uint256"
        }
      ],
      "name": "Realized",
      "type": "event"
    },
    {
      "anonymous": false,
      "inputs": [
        {
          "indexed": true,
          "internalType": "address",
          "name": "user",
          "type": "address"
        },
        {
          "indexed": false,
          "internalType": "uint256",
          "name": "amount",
          "type": "uint256"
        }
      ],
      "name": "Staked",
      "type": "event"
    },
    {
      "anonymous": false,
      "inputs": [
        {
          "indexed": true,
          "internalType": "address",
          "name": "from",
          "type": "address"
        },
        {
          "indexed": true,
          "internalType": "address",
          "name": "to",
          "type": "address"
        },
        {
          "indexed": false,
          "internalType": "uint256",
          "name": "amount",
          "type": "uint256"
        }
      ],
      "name": "Transfer",
      "type": "event"
    },
    {
      "anonymous": false,
      "inputs": [
        {
          "indexed": true,
          "internalType": "address",
          "name": "user",
          "type": "address"
        },
        {
          "indexed": false,
          "internalType": "uint256",
          "name": "amount",
          "type": "uint256"
        }
      ],
      "name": "Unstaked",
      "type": "event"
    },
    {
      "inputs": [],
      "name": "DAILY_EMISSISION_RATE",
      "outputs": [
        {
          "internalType": "uint16",
          "name": "",
          "type": "uint16"
        }
      ],
      "stateMutability": "view",
      "type": "function"
    },
    {
      "inputs": [],
      "name": "DAYS_SECONDS",
      "outputs": [
        {
          "internalType": "uint32",
          "name": "",
          "type": "uint32"
        }
      ],
      "stateMutability": "view",
      "type": "function"
    },
    {
      "inputs": [],
      "name": "DOMAIN_SEPARATOR",
      "outputs": [
        {
          "internalType": "bytes32",
          "name": "result",
          "type": "bytes32"
        }
      ],
      "stateMutability": "view",
      "type": "function"
    },
    {
      "inputs": [
        {
          "internalType": "address",
          "name": "owner",
          "type": "address"
        },
        {
          "internalType": "address",
          "name": "spender",
          "type": "address"
        }
      ],
      "name": "allowance",
      "outputs": [
        {
          "internalType": "uint256",
          "name": "result",
          "type": "uint256"
        }
      ],
      "stateMutability": "view",
      "type": "function"
    },
    {
      "inputs": [
        {
          "internalType": "address",
          "name": "spender",
          "type": "address"
        },
        {
          "internalType": "uint256",
          "name": "amount",
          "type": "uint256"
        }
      ],
      "name": "approve",
      "outputs": [
        {
          "internalType": "bool",
          "name": "",
          "type": "bool"
        }
      ],
      "stateMutability": "nonpayable",
      "type": "function"
    },
    {
      "inputs": [
        {
          "internalType": "address",
          "name": "owner",
          "type": "address"
        }
      ],
      "name": "balanceOf",
      "outputs": [
        {
          "internalType": "uint256",
          "name": "result",
          "type": "uint256"
        }
      ],
      "stateMutability": "view",
      "type": "function"
    },
    {
      "inputs": [],
      "name": "borrow",
      "outputs": [
        {
          "internalType": "address",
          "name": "",
          "type": "address"
        }
      ],
      "stateMutability": "view",
      "type": "function"
    },
    {
      "inputs": [],
      "name": "claim",
      "outputs": [],
      "stateMutability": "nonpayable",
      "type": "function"
    },
    {
      "inputs": [],
      "name": "decimals",
      "outputs": [
        {
          "internalType": "uint8",
          "name": "",
          "type": "uint8"
        }
      ],
      "stateMutability": "view",
      "type": "function"
    },
    {
      "inputs": [],
      "name": "gamm",
      "outputs": [
        {
          "internalType": "address",
          "name": "",
          "type": "address"
        }
      ],
      "stateMutability": "view",
      "type": "function"
    },
    {
      "inputs": [
        {
          "internalType": "address",
          "name": "user",
          "type": "address"
        }
      ],
      "name": "getClaimable",
      "outputs": [
        {
          "internalType": "uint256",
          "name": "",
          "type": "uint256"
        }
      ],
      "stateMutability": "view",
      "type": "function"
    },
    {
      "inputs": [
        {
          "internalType": "address",
          "name": "user",
          "type": "address"
        }
      ],
      "name": "getStakeStartTime",
      "outputs": [
        {
          "internalType": "uint256",
          "name": "",
          "type": "uint256"
        }
      ],
      "stateMutability": "view",
      "type": "function"
    },
    {
      "inputs": [
        {
          "internalType": "address",
          "name": "user",
          "type": "address"
        }
      ],
      "name": "getStaked",
      "outputs": [
        {
          "internalType": "uint256",
          "name": "",
          "type": "uint256"
        }
      ],
      "stateMutability": "view",
      "type": "function"
    },
    {
      "inputs": [],
      "name": "goldilend",
      "outputs": [
        {
          "internalType": "address",
          "name": "",
          "type": "address"
        }
      ],
      "stateMutability": "view",
      "type": "function"
    },
    {
      "inputs": [
        {
          "internalType": "address",
          "name": "to",
          "type": "address"
        },
        {
          "internalType": "uint256",
          "name": "amount",
          "type": "uint256"
        }
      ],
      "name": "goldilendMint",
      "outputs": [],
      "stateMutability": "nonpayable",
      "type": "function"
    },
    {
      "inputs": [],
      "name": "honey",
      "outputs": [
        {
          "internalType": "address",
          "name": "",
          "type": "address"
        }
      ],
      "stateMutability": "view",
      "type": "function"
    },
    {
      "inputs": [],
      "name": "name",
      "outputs": [
        {
          "internalType": "string",
          "name": "",
          "type": "string"
        }
      ],
      "stateMutability": "pure",
      "type": "function"
    },
    {
      "inputs": [
        {
          "internalType": "address",
          "name": "owner",
          "type": "address"
        }
      ],
      "name": "nonces",
      "outputs": [
        {
          "internalType": "uint256",
          "name": "result",
          "type": "uint256"
        }
      ],
      "stateMutability": "view",
      "type": "function"
    },
    {
      "inputs": [
        {
          "internalType": "address",
          "name": "owner",
          "type": "address"
        },
        {
          "internalType": "address",
          "name": "spender",
          "type": "address"
        },
        {
          "internalType": "uint256",
          "name": "value",
          "type": "uint256"
        },
        {
          "internalType": "uint256",
          "name": "deadline",
          "type": "uint256"
        },
        {
          "internalType": "uint8",
          "name": "v",
          "type": "uint8"
        },
        {
          "internalType": "bytes32",
          "name": "r",
          "type": "bytes32"
        },
        {
          "internalType": "bytes32",
          "name": "s",
          "type": "bytes32"
        }
      ],
      "name": "permit",
      "outputs": [],
      "stateMutability": "nonpayable",
      "type": "function"
    },
    {
      "inputs": [
        {
          "internalType": "uint256",
          "name": "amount",
          "type": "uint256"
        }
      ],
      "name": "realize",
      "outputs": [],
      "stateMutability": "nonpayable",
      "type": "function"
    },
    {
      "inputs": [
        {
          "internalType": "uint256",
          "name": "amount",
          "type": "uint256"
        }
      ],
      "name": "stake",
      "outputs": [],
      "stateMutability": "nonpayable",
      "type": "function"
    },
    {
      "inputs": [
        {
          "internalType": "address",
          "name": "",
          "type": "address"
        }
      ],
      "name": "stakeStartTime",
      "outputs": [
        {
          "internalType": "uint256",
          "name": "",
          "type": "uint256"
        }
      ],
      "stateMutability": "view",
      "type": "function"
    },
    {
      "inputs": [
        {
          "internalType": "address",
          "name": "",
          "type": "address"
        }
      ],
      "name": "staked",
      "outputs": [
        {
          "internalType": "uint256",
          "name": "",
          "type": "uint256"
        }
      ],
      "stateMutability": "view",
      "type": "function"
    },
    {
      "inputs": [],
      "name": "symbol",
      "outputs": [
        {
          "internalType": "string",
          "name": "",
          "type": "string"
        }
      ],
      "stateMutability": "pure",
      "type": "function"
    },
    {
      "inputs": [],
      "name": "totalSupply",
      "outputs": [
        {
          "internalType": "uint256",
          "name": "result",
          "type": "uint256"
        }
      ],
      "stateMutability": "view",
      "type": "function"
    },
    {
      "inputs": [
        {
          "internalType": "address",
          "name": "to",
          "type": "address"
        },
        {
          "internalType": "uint256",
          "name": "amount",
          "type": "uint256"
        }
      ],
      "name": "transfer",
      "outputs": [
        {
          "internalType": "bool",
          "name": "",
          "type": "bool"
        }
      ],
      "stateMutability": "nonpayable",
      "type": "function"
    },
    {
      "inputs": [
        {
          "internalType": "address",
          "name": "from",
          "type": "address"
        },
        {
          "internalType": "address",
          "name": "to",
          "type": "address"
        },
        {
          "internalType": "uint256",
          "name": "amount",
          "type": "uint256"
        }
      ],
      "name": "transferFrom",
      "outputs": [
        {
          "internalType": "bool",
          "name": "",
          "type": "bool"
        }
      ],
      "stateMutability": "nonpayable",
      "type": "function"
    },
    {
      "inputs": [
        {
          "internalType": "uint256",
          "name": "amount",
          "type": "uint256"
        }
      ],
      "name": "unstake",
      "outputs": [],
      "stateMutability": "nonpayable",
      "type": "function"
    }
  ],
  "bytecode": {
    "object": "0x60c06040526201518060805261025860a05234801561001c575f80fd5b506040516200125f3803806200125f83398101604081905261003d916100ab565b600280546001600160a01b039586166001600160a01b03199182161790915560038054948616948216949094179093556004805492851692841692909217909155600580549190931691161790556100fc565b80516001600160a01b03811681146100a6575f80fd5b919050565b5f805f80608085870312156100be575f80fd5b6100c785610090565b93506100d560208601610090565b92506100e360408601610090565b91506100f160608601610090565b905092959194509250565b60805160a0516111336200012c5f395f818161043a0152610dd801525f81816103870152610e0a01526111335ff3fe608060405234801561000f575f80fd5b50600436106101bb575f3560e01c8063714b00c3116100f3578063a694fc3a11610093578063d505accf1161006e578063d505accf1461046f578063da64ea7214610482578063dd62ed3e14610495578063e68d3569146104bd575f80fd5b8063a694fc3a1461040f578063a9059cbb14610422578063cb8ba58c14610435575f80fd5b8063903d78fb116100ce578063903d78fb1461038257806395d89b41146103be57806398807d84146103dd578063a583024b146103fc575f80fd5b8063714b00c314610337578063770fc8601461034a5780637ecebe001461035d575f80fd5b8063313ce5671161015e578063399080ec11610139578063399080ec146102c35780634e71d92d146102eb5780636985e6d8146102f357806370a0823114610312575f80fd5b8063313ce567146102995780633644e515146102a857806336b2c4b2146102b0575f80fd5b80630eeea367116101995780630eeea3671461022b57806318160ddd1461026157806323b872dd146102715780632e17de7814610284575f80fd5b806306fdde03146101bf578063095ea7b3146101dd57806309f7eaa414610200575b5f80fd5b6101c76104d0565b6040516101d49190610ed8565b60405180910390f35b6101f06101eb366004610f3e565b6104f8565b60405190151581526020016101d4565b600254610213906001600160a01b031681565b6040516001600160a01b0390911681526020016101d4565b610253610239366004610f66565b6001600160a01b03165f9081526001602052604090205490565b6040519081526020016101d4565b6805345cdf77eb68f44c54610253565b6101f061027f366004610f7f565b610548565b610297610292366004610fb8565b6105ef565b005b604051601281526020016101d4565b61025361073f565b600554610213906001600160a01b031681565b6102536102d1366004610f66565b6001600160a01b03165f9081526020819052604090205490565b6102976107bb565b610253610301366004610f66565b60016020525f908152604090205481565b610253610320366004610f66565b6387a211a2600c9081525f91909152602090205490565b610297610345366004610f3e565b6107d6565b610297610358366004610fb8565b61080f565b61025361036b366004610f66565b6338377508600c9081525f91909152602090205490565b6103a97f000000000000000000000000000000000000000000000000000000000000000081565b60405163ffffffff90911681526020016101d4565b60408051808201909152600381526250524760e81b60208201526101c7565b6102536103eb366004610f66565b5f6020819052908152604090205481565b61025361040a366004610f66565b61093a565b61029761041d366004610fb8565b610963565b6101f0610430366004610f3e565b6109f8565b61045c7f000000000000000000000000000000000000000000000000000000000000000081565b60405161ffff90911681526020016101d4565b61029761047d366004610fcf565b610a5c565b600454610213906001600160a01b031681565b6102536104a336600461103c565b602052637f5e9f20600c9081525f91909152603490205490565b600354610213906001600160a01b031681565b60408051808201909152600e81526d2837b93934b233b2902a37b5b2b760911b602082015290565b5f82602052637f5e9f20600c52335f52816034600c2055815f52602c5160601c337f8c5be1e5ebec7d5bd14f71427d1e84f3dd0314c0f7b2291e5b200ac8c7c3b92560205fa35060015b92915050565b5f8360601b33602052637f5e9f208117600c526034600c20805460018101156105865780851115610580576313be252b5f526004601cfd5b84810382555b50506387a211a28117600c526020600c208054808511156105ae5763f4d678b85f526004601cfd5b84810382555050835f526020600c208381540181555082602052600c5160601c8160601c5f805160206110de833981519152602080a3505060019392505050565b335f9081526020819052604090205481111561061e576040516305019ec560e31b815260040160405180910390fd5b60035460405163bc22fd1b60e01b81523360048201526001600160a01b039091169063bc22fd1b90602401602060405180830381865afa158015610664573d5f803e3d5ffd5b505050506040513d601f19601f82011682018060405250810190610688919061106d565b335f908152602081905260409020546106a19190611098565b8111156106c1576040516315aff59960e31b815260040160405180910390fd5b335f9081526020819052604081208054918391906106df8385611098565b909155506106ee905081610bde565b600254610705906001600160a01b03163384610c3e565b60405182815233907f0f5bb82176feb1b5e747e28471aa92156a04d9f3ab9f45f28e2d704232b93f75906020015b60405180910390a25050565b5f806107496104d0565b8051906020012090506040517f8b73c3c69bb8fe3d512ecc4cf759cc79239f7b179b0ffacaa9a75d522b39400f81528160208201527fc89efdaa54c0f20c7adf612882df0950f5a951637e0307cdcb4c672f298b8bc6604082015246606082015230608082015260a081209250505090565b335f908152602081905260409020546107d381610bde565b50565b6004546001600160a01b0316331461080157604051633207547760e21b815260040160405180910390fd5b61080b8282610c7e565b5050565b6108193382610ce7565b600554600254604080516349b1e40960e11b815290516108a2936001600160a01b0390811693339391169161089d9187918491639363c8129160048083019260209291908290030181865afa158015610874573d5f803e3d5ffd5b505050506040513d601f19601f82011682018060405250810190610898919061106d565b610d48565b610d73565b6002546040516307d8bbb160e21b8152336004820152602481018390526001600160a01b0390911690631f62eec4906044015f604051808303815f87803b1580156108eb575f80fd5b505af11580156108fd573d5f803e3d5ffd5b50506040518381523392507fb0538f3e3eda189dc2c2fc8e918f8023cbfc3e2a5495babec9898fe86a60a5bf91506020015b60405180910390a250565b6001600160a01b0381165f9081526020819052604081205461095c8382610dc2565b9392505050565b335f908152602081905260409020541561097f5761097f610e3d565b335f90815260016020908152604080832042905590829052812080548392906109a99084906110ab565b90915550506002546109c6906001600160a01b0316333084610d73565b60405181815233907f9e71bc8eea02a63969f509818f2dafb9254532904319f9dbda79b67bd34a5f3d9060200161092f565b5f6387a211a2600c52335f526020600c20805480841115610a205763f4d678b85f526004601cfd5b83810382555050825f526020600c208281540181555081602052600c5160601c335f805160206110de833981519152602080a350600192915050565b5f610a656104d0565b80519060200120905084421115610a8357631a15a3cc5f526004601cfd5b6040518860601b60601c98508760601b60601c975065383775081901600e52885f526020600c2080547f8b73c3c69bb8fe3d512ecc4cf759cc79239f7b179b0ffacaa9a75d522b39400f83528360208401527fc89efdaa54c0f20c7adf612882df0950f5a951637e0307cdcb4c672f298b8bc6604084015246606084015230608084015260a08320602e527f6e71edae12b1b97f4d1f60370fef10105fa2faae0126114a169c64845d6126c983528a60208401528960408401528860608401528060808401528760a084015260c08320604e526042602c205f528660ff16602052856040528460605260208060805f60015afa8b3d5114610b8b5763ddafbaef5f526004601cfd5b0190556303faf4f960a51b88176040526034602c2087905587897f8c5be1e5ebec7d5bd14f71427d1e84f3dd0314c0f7b2291e5b200ac8c7c3b925602060608501a360405250505f606052505050505050565b5f610be93383610dc2565b9050801561080b57335f818152600160205260409020429055610c0c9082610c7e565b60405181815233907fd8138f8a3f377c5259ca548e70e4c2de94f129f5a11036a15b69513cba2b426a90602001610733565b816014528060345263a9059cbb60601b5f5260205f604460105f875af13d1560015f51141716610c75576390b8ec185f526004601cfd5b5f603452505050565b6805345cdf77eb68f44c5481810181811015610ca15763e5cfe9575f526004601cfd5b806805345cdf77eb68f44c5550506387a211a2600c52815f526020600c208181540181555080602052600c5160601c5f5f805160206110de833981519152602080a35050565b6387a211a2600c52815f526020600c20805480831115610d0e5763f4d678b85f526004601cfd5b82900390556805345cdf77eb68f44c805482900390555f8181526001600160a01b0383165f805160206110de833981519152602083a35050565b5f815f19048311820215610d635763bac65e5b5f526004601cfd5b50670de0b6b3a764000091020490565b60405181606052826040528360601b602c526323b872dd60601b600c5260205f6064601c5f895af13d1560015f51141716610db557637939f4245f526004601cfd5b5f60605260405250505050565b5f80610dcd84610e69565b90505f610dfe61ffff7f000000000000000000000000000000000000000000000000000000000000000016856110be565b9050610e3481610898847f000000000000000000000000000000000000000000000000000000000000000063ffffffff16610e8b565b95945050505050565b335f8181526020819052604081205491610e579083610dc2565b9050801561080b57610c0c3382610c7e565b6001600160a01b0381165f908152600160205260408120546105429042611098565b5f7812725dd1d243aba0e75fe645cc4873f9e65afe688c928e1f218311670de0b6b3a764000002158202610ec657637c5f487d5f526004601cfd5b50670de0b6b3a7640000919091020490565b5f6020808352835180828501525f5b81811015610f0357858101830151858201604001528201610ee7565b505f604082860101526040601f19601f8301168501019250505092915050565b80356001600160a01b0381168114610f39575f80fd5b919050565b5f8060408385031215610f4f575f80fd5b610f5883610f23565b946020939093013593505050565b5f60208284031215610f76575f80fd5b61095c82610f23565b5f805f60608486031215610f91575f80fd5b610f9a84610f23565b9250610fa860208501610f23565b9150604084013590509250925092565b5f60208284031215610fc8575f80fd5b5035919050565b5f805f805f805f60e0888a031215610fe5575f80fd5b610fee88610f23565b9650610ffc60208901610f23565b95506040880135945060608801359350608088013560ff8116811461101f575f80fd5b9699959850939692959460a0840135945060c09093013592915050565b5f806040838503121561104d575f80fd5b61105683610f23565b915061106460208401610f23565b90509250929050565b5f6020828403121561107d575f80fd5b5051919050565b634e487b7160e01b5f52601160045260245ffd5b8181038181111561054257610542611084565b8082018082111561054257610542611084565b5f826110d857634e487b7160e01b5f52601260045260245ffd5b50049056feddf252ad1be2c89b69c2b068fc378daa952ba7f163c4a11628f55a4df523b3efa26469706673582212207e94c7ad9e491d8a36185425d9c880e25020e4e36bc14b49f1bf17da633393c964736f6c63430008140033",
    "linkReferences": {}
  },
  "methodIdentifiers": {
    "DAILY_EMISSISION_RATE()": "cb8ba58c",
    "DAYS_SECONDS()": "903d78fb",
    "DOMAIN_SEPARATOR()": "3644e515",
    "allowance(address,address)": "dd62ed3e",
    "approve(address,uint256)": "095ea7b3",
    "balanceOf(address)": "70a08231",
    "borrow()": "e68d3569",
    "claim()": "4e71d92d",
    "decimals()": "313ce567",
    "gamm()": "09f7eaa4",
    "getClaimable(address)": "a583024b",
    "getStakeStartTime(address)": "0eeea367",
    "getStaked(address)": "399080ec",
    "goldilend()": "da64ea72",
    "goldilendMint(address,uint256)": "714b00c3",
    "honey()": "36b2c4b2",
    "name()": "06fdde03",
    "nonces(address)": "7ecebe00",
    "permit(address,address,uint256,uint256,uint8,bytes32,bytes32)": "d505accf",
    "realize(uint256)": "770fc860",
    "stake(uint256)": "a694fc3a",
    "stakeStartTime(address)": "6985e6d8",
    "staked(address)": "98807d84",
    "symbol()": "95d89b41",
    "totalSupply()": "18160ddd",
    "transfer(address,uint256)": "a9059cbb",
    "transferFrom(address,address,uint256)": "23b872dd",
    "unstake(uint256)": "2e17de78"
  },
  "id": 25
}