{
  "abi": [
    {
      "inputs": [
        {
          "internalType": "address",
          "name": "_gamm",
          "type": "address"
        },
        {
          "internalType": "address",
          "name": "_porridge",
          "type": "address"
        },
        {
          "internalType": "address",
          "name": "_honey",
          "type": "address"
        }
      ],
      "stateMutability": "nonpayable",
      "type": "constructor"
    },
    {
      "inputs": [],
      "name": "ExcessiveRepay",
      "type": "error"
    },
    {
      "inputs": [],
      "name": "InsufficientBorrowLimit",
      "type": "error"
    },
    {
      "anonymous": false,
      "inputs": [
        {
          "indexed": true,
          "internalType": "address",
          "name": "user",
          "type": "address"
        },
        {
          "indexed": false,
          "internalType": "uint256",
          "name": "amount",
          "type": "uint256"
        }
      ],
      "name": "Borrowed",
      "type": "event"
    },
    {
      "anonymous": false,
      "inputs": [
        {
          "indexed": true,
          "internalType": "address",
          "name": "user",
          "type": "address"
        },
        {
          "indexed": false,
          "internalType": "uint256",
          "name": "amount",
          "type": "uint256"
        }
      ],
      "name": "Repaid",
      "type": "event"
    },
    {
      "inputs": [
        {
          "internalType": "uint256",
          "name": "amount",
          "type": "uint256"
        }
      ],
      "name": "borrow",
      "outputs": [],
      "stateMutability": "nonpayable",
      "type": "function"
    },
    {
      "inputs": [
        {
          "internalType": "address",
          "name": "user",
          "type": "address"
        }
      ],
      "name": "borrowLimit",
      "outputs": [
        {
          "internalType": "uint256",
          "name": "",
          "type": "uint256"
        }
      ],
      "stateMutability": "view",
      "type": "function"
    },
    {
      "inputs": [
        {
          "internalType": "address",
          "name": "",
          "type": "address"
        }
      ],
      "name": "borrowedHoney",
      "outputs": [
        {
          "internalType": "uint256",
          "name": "",
          "type": "uint256"
        }
      ],
      "stateMutability": "view",
      "type": "function"
    },
    {
      "inputs": [],
      "name": "gamm",
      "outputs": [
        {
          "internalType": "address",
          "name": "",
          "type": "address"
        }
      ],
      "stateMutability": "view",
      "type": "function"
    },
    {
      "inputs": [
        {
          "internalType": "address",
          "name": "user",
          "type": "address"
        }
      ],
      "name": "getBorrowed",
      "outputs": [
        {
          "internalType": "uint256",
          "name": "",
          "type": "uint256"
        }
      ],
      "stateMutability": "view",
      "type": "function"
    },
    {
      "inputs": [
        {
          "internalType": "address",
          "name": "user",
          "type": "address"
        }
      ],
      "name": "getLocked",
      "outputs": [
        {
          "internalType": "uint256",
          "name": "",
          "type": "uint256"
        }
      ],
      "stateMutability": "view",
      "type": "function"
    },
    {
      "inputs": [],
      "name": "honey",
      "outputs": [
        {
          "internalType": "address",
          "name": "",
          "type": "address"
        }
      ],
      "stateMutability": "view",
      "type": "function"
    },
    {
      "inputs": [
        {
          "internalType": "address",
          "name": "",
          "type": "address"
        }
      ],
      "name": "lockedLocks",
      "outputs": [
        {
          "internalType": "uint256",
          "name": "",
          "type": "uint256"
        }
      ],
      "stateMutability": "view",
      "type": "function"
    },
    {
      "inputs": [],
      "name": "porridge",
      "outputs": [
        {
          "internalType": "address",
          "name": "",
          "type": "address"
        }
      ],
      "stateMutability": "view",
      "type": "function"
    },
    {
      "inputs": [
        {
          "internalType": "uint256",
          "name": "amount",
          "type": "uint256"
        }
      ],
      "name": "repay",
      "outputs": [],
      "stateMutability": "nonpayable",
      "type": "function"
    }
  ],
  "bytecode": {
    "object": "0x608060405234801561000f575f80fd5b5060405161086738038061086783398101604081905261002e9161008b565b600280546001600160a01b039485166001600160a01b0319918216179091556003805493851693821693909317909255600480549190931691161790556100cb565b80516001600160a01b0381168114610086575f80fd5b919050565b5f805f6060848603121561009d575f80fd5b6100a684610070565b92506100b460208501610070565b91506100c260408501610070565b90509250925092565b61078f806100d85f395ff3fe608060405234801561000f575f80fd5b506004361061009b575f3560e01c80633a2c92ab116100635780633a2c92ab1461012b5780636011163e1461014a5780637efd59c914610172578063bc22fd1b14610191578063c5ebeaec146101b9575f80fd5b806309f7eaa41461009f57806328f5f502146100cf5780632cf711a1146100f057806336b2c4b214610103578063371fd8e614610116575b5f80fd5b6002546100b2906001600160a01b031681565b6040516001600160a01b0390911681526020015b60405180910390f35b6100e26100dd366004610695565b6101cc565b6040519081526020016100c6565b6003546100b2906001600160a01b031681565b6004546100b2906001600160a01b031681565b6101296101243660046106bb565b610255565b005b6100e2610139366004610695565b60016020525f908152604090205481565b6100e2610158366004610695565b6001600160a01b03165f9081526001602052604090205490565b6100e2610180366004610695565b5f6020819052908152604090205481565b6100e261019f366004610695565b6001600160a01b03165f9081526020819052604090205490565b6101296101c73660046106bb565b610331565b5f8060025f9054906101000a90046001600160a01b03166001600160a01b0316639363c8126040518163ffffffff1660e01b8152600401602060405180830381865afa15801561021e573d5f803e3d5ffd5b505050506040513d601f19601f8201168201806040525081019061024291906106d2565b905061024e83826104c1565b9392505050565b335f9081526001602052604090205481111561028457604051637bc3c3ef60e01b815260040160405180910390fd5b5f61028e82610567565b335f908152602081905260408120805492935083929091906102b19084906106fd565b9091555050335f90815260016020526040812080548492906102d49084906106fd565b90915550506004546002546102f8916001600160a01b03908116913391168561059f565b60405182815233907f0516911bcc3a0a7412a44601057c0a0a1ec628bde049a84284bc4288665344889060200160405180910390a25050565b600254604080516349b1e40960e11b815290515f926001600160a01b031691639363c8129160048083019260209291908290030181865afa158015610378573d5f803e3d5ffd5b505050506040513d601f19601f8201168201806040525081019061039c91906106d2565b90506103a882826105ee565b6103c55760405163da39279760e01b815260040160405180910390fd5b6103cf8282610606565b335f90815260208190526040812080549091906103ed908490610710565b9091555050335f9081526001602052604081208054849290610410908490610710565b909155505f905061042083610653565b600254604051630750ca6f60e51b815233600482015260248101869052604481018390529192506001600160a01b03169063ea194de0906064015f604051808303815f87803b158015610471575f80fd5b505af1158015610483573d5f803e3d5ffd5b50506040518581523392507fac59582e5396aca512fa873a2047e7f4c80f8f55d4a06cb34a78a0187f62719f915060200160405180910390a2505050565b600354604051630e64203b60e21b81526001600160a01b0384811660048301525f92839291169063399080ec90602401602060405180830381865afa15801561050c573d5f803e3d5ffd5b505050506040513d601f19601f8201168201806040525081019061053091906106d2565b6001600160a01b0385165f9081526020819052604090205490915061055e8461055983856106fd565b61066a565b95945050505050565b335f9081526001602052604081205461059990610585908490610606565b335f9081526020819052604090205461066a565b92915050565b60405181606052826040528360601b602c526323b872dd60601b600c5260205f6064601c5f895af13d1560015f511417166105e157637939f4245f526004601cfd5b5f60605260405250505050565b5f806105fa33846104c1565b93909310159392505050565b5f7812725dd1d243aba0e75fe645cc4873f9e65afe688c928e1f218311670de0b6b3a76400000215820261064157637c5f487d5f526004601cfd5b50670de0b6b3a7640000919091020490565b5f61065f606483610723565b610599906003610742565b5f815f190483118202156106855763bac65e5b5f526004601cfd5b50670de0b6b3a764000091020490565b5f602082840312156106a5575f80fd5b81356001600160a01b038116811461024e575f80fd5b5f602082840312156106cb575f80fd5b5035919050565b5f602082840312156106e2575f80fd5b5051919050565b634e487b7160e01b5f52601160045260245ffd5b81810381811115610599576105996106e9565b80820180821115610599576105996106e9565b5f8261073d57634e487b7160e01b5f52601260045260245ffd5b500490565b8082028115828204841417610599576105996106e956fea2646970667358221220b626dce0c3fb37bc909088ce631e64f0bd29bb6e67305aba0a46f06876c5d6a864736f6c63430008140033",
    "linkReferences": {}
  },
  "methodIdentifiers": {
    "borrow(uint256)": "c5ebeaec",
    "borrowLimit(address)": "28f5f502",
    "borrowedHoney(address)": "3a2c92ab",
    "gamm()": "09f7eaa4",
    "getBorrowed(address)": "6011163e",
    "getLocked(address)": "bc22fd1b",
    "honey()": "36b2c4b2",
    "lockedLocks(address)": "7efd59c9",
    "porridge()": "2cf711a1",
    "repay(uint256)": "371fd8e6"
  },
  "id": 22
}