{
  "abi": [
    {
      "inputs": [
        {
          "internalType": "address",
          "name": "_timelock",
          "type": "address"
        },
        {
          "internalType": "address",
          "name": "_govlocks",
          "type": "address"
        },
        {
          "internalType": "address",
          "name": "_multisig",
          "type": "address"
        },
        {
          "internalType": "uint256",
          "name": "_votingPeriod",
          "type": "uint256"
        },
        {
          "internalType": "uint256",
          "name": "_votingDelay",
          "type": "uint256"
        },
        {
          "internalType": "uint256",
          "name": "_proposalThreshold",
          "type": "uint256"
        }
      ],
      "stateMutability": "nonpayable",
      "type": "constructor"
    },
    {
      "inputs": [],
      "name": "AboveThreshold",
      "type": "error"
    },
    {
      "inputs": [],
      "name": "AlreadyProposing",
      "type": "error"
    },
    {
      "inputs": [],
      "name": "AlreadyQueued",
      "type": "error"
    },
    {
      "inputs": [],
      "name": "AlreadyVoted",
      "type": "error"
    },
    {
      "inputs": [],
      "name": "ArrayMismatch",
      "type": "error"
    },
    {
      "inputs": [],
      "name": "BelowThreshold",
      "type": "error"
    },
    {
      "inputs": [],
      "name": "InvalidProposalAction",
      "type": "error"
    },
    {
      "inputs": [],
      "name": "InvalidProposalState",
      "type": "error"
    },
    {
      "inputs": [],
      "name": "InvalidSignature",
      "type": "error"
    },
    {
      "inputs": [],
      "name": "InvalidVoteType",
      "type": "error"
    },
    {
      "inputs": [],
      "name": "InvalidVotingParameter",
      "type": "error"
    },
    {
      "inputs": [],
      "name": "NotMultisig",
      "type": "error"
    },
    {
      "inputs": [],
      "name": "NotProposer",
      "type": "error"
    },
    {
      "anonymous": false,
      "inputs": [
        {
          "indexed": false,
          "internalType": "address",
          "name": "oldAdmin",
          "type": "address"
        },
        {
          "indexed": false,
          "internalType": "address",
          "name": "newAdmin",
          "type": "address"
        }
      ],
      "name": "NewAdmin",
      "type": "event"
    },
    {
      "anonymous": false,
      "inputs": [
        {
          "indexed": false,
          "internalType": "uint256",
          "name": "id",
          "type": "uint256"
        }
      ],
      "name": "ProposalCanceled",
      "type": "event"
    },
    {
      "anonymous": false,
      "inputs": [
        {
          "indexed": false,
          "internalType": "uint256",
          "name": "id",
          "type": "uint256"
        },
        {
          "indexed": false,
          "internalType": "address",
          "name": "proposer",
          "type": "address"
        },
        {
          "indexed": false,
          "internalType": "address[]",
          "name": "targets",
          "type": "address[]"
        },
        {
          "indexed": false,
          "internalType": "uint256[]",
          "name": "values",
          "type": "uint256[]"
        },
        {
          "indexed": false,
          "internalType": "string[]",
          "name": "signatures",
          "type": "string[]"
        },
        {
          "indexed": false,
          "internalType": "bytes[]",
          "name": "calldatas",
          "type": "bytes[]"
        },
        {
          "indexed": false,
          "internalType": "uint256",
          "name": "startBlock",
          "type": "uint256"
        },
        {
          "indexed": false,
          "internalType": "uint256",
          "name": "endBlock",
          "type": "uint256"
        },
        {
          "indexed": false,
          "internalType": "string",
          "name": "description",
          "type": "string"
        }
      ],
      "name": "ProposalCreated",
      "type": "event"
    },
    {
      "anonymous": false,
      "inputs": [
        {
          "indexed": false,
          "internalType": "uint256",
          "name": "id",
          "type": "uint256"
        }
      ],
      "name": "ProposalExecuted",
      "type": "event"
    },
    {
      "anonymous": false,
      "inputs": [
        {
          "indexed": false,
          "internalType": "uint256",
          "name": "id",
          "type": "uint256"
        },
        {
          "indexed": false,
          "internalType": "uint256",
          "name": "eta",
          "type": "uint256"
        }
      ],
      "name": "ProposalQueued",
      "type": "event"
    },
    {
      "anonymous": false,
      "inputs": [
        {
          "indexed": false,
          "internalType": "uint256",
          "name": "oldProposalThreshold",
          "type": "uint256"
        },
        {
          "indexed": false,
          "internalType": "uint256",
          "name": "newProposalThreshold",
          "type": "uint256"
        }
      ],
      "name": "ProposalThresholdSet",
      "type": "event"
    },
    {
      "anonymous": false,
      "inputs": [
        {
          "indexed": true,
          "internalType": "address",
          "name": "voter",
          "type": "address"
        },
        {
          "indexed": false,
          "internalType": "uint256",
          "name": "proposalId",
          "type": "uint256"
        },
        {
          "indexed": false,
          "internalType": "uint8",
          "name": "support",
          "type": "uint8"
        },
        {
          "indexed": false,
          "internalType": "uint256",
          "name": "votes",
          "type": "uint256"
        },
        {
          "indexed": false,
          "internalType": "string",
          "name": "reason",
          "type": "string"
        }
      ],
      "name": "VoteCast",
      "type": "event"
    },
    {
      "anonymous": false,
      "inputs": [
        {
          "indexed": false,
          "internalType": "uint256",
          "name": "oldVotingDelay",
          "type": "uint256"
        },
        {
          "indexed": false,
          "internalType": "uint256",
          "name": "newVotingDelay",
          "type": "uint256"
        }
      ],
      "name": "VotingDelaySet",
      "type": "event"
    },
    {
      "anonymous": false,
      "inputs": [
        {
          "indexed": false,
          "internalType": "uint256",
          "name": "oldVotingPeriod",
          "type": "uint256"
        },
        {
          "indexed": false,
          "internalType": "uint256",
          "name": "newVotingPeriod",
          "type": "uint256"
        }
      ],
      "name": "VotingPeriodSet",
      "type": "event"
    },
    {
      "inputs": [],
      "name": "BALLOT_TYPEHASH",
      "outputs": [
        {
          "internalType": "bytes32",
          "name": "",
          "type": "bytes32"
        }
      ],
      "stateMutability": "view",
      "type": "function"
    },
    {
      "inputs": [],
      "name": "DOMAIN_TYPEHASH",
      "outputs": [
        {
          "internalType": "bytes32",
          "name": "",
          "type": "bytes32"
        }
      ],
      "stateMutability": "view",
      "type": "function"
    },
    {
      "inputs": [],
      "name": "MAX_PROPOSAL_THRESHOLD",
      "outputs": [
        {
          "internalType": "uint256",
          "name": "",
          "type": "uint256"
        }
      ],
      "stateMutability": "view",
      "type": "function"
    },
    {
      "inputs": [],
      "name": "MAX_VOTING_DELAY",
      "outputs": [
        {
          "internalType": "uint32",
          "name": "",
          "type": "uint32"
        }
      ],
      "stateMutability": "view",
      "type": "function"
    },
    {
      "inputs": [],
      "name": "MAX_VOTING_PERIOD",
      "outputs": [
        {
          "internalType": "uint32",
          "name": "",
          "type": "uint32"
        }
      ],
      "stateMutability": "view",
      "type": "function"
    },
    {
      "inputs": [],
      "name": "MIN_PROPOSAL_THRESHOLD",
      "outputs": [
        {
          "internalType": "uint256",
          "name": "",
          "type": "uint256"
        }
      ],
      "stateMutability": "view",
      "type": "function"
    },
    {
      "inputs": [],
      "name": "MIN_VOTING_DELAY",
      "outputs": [
        {
          "internalType": "uint32",
          "name": "",
          "type": "uint32"
        }
      ],
      "stateMutability": "view",
      "type": "function"
    },
    {
      "inputs": [],
      "name": "MIN_VOTING_PERIOD",
      "outputs": [
        {
          "internalType": "uint32",
          "name": "",
          "type": "uint32"
        }
      ],
      "stateMutability": "view",
      "type": "function"
    },
    {
      "inputs": [
        {
          "internalType": "uint256",
          "name": "proposalId",
          "type": "uint256"
        }
      ],
      "name": "cancel",
      "outputs": [],
      "stateMutability": "nonpayable",
      "type": "function"
    },
    {
      "inputs": [
        {
          "internalType": "uint256",
          "name": "proposalId",
          "type": "uint256"
        },
        {
          "internalType": "uint8",
          "name": "support",
          "type": "uint8"
        }
      ],
      "name": "castVote",
      "outputs": [],
      "stateMutability": "nonpayable",
      "type": "function"
    },
    {
      "inputs": [
        {
          "internalType": "uint256",
          "name": "proposalId",
          "type": "uint256"
        },
        {
          "internalType": "uint8",
          "name": "support",
          "type": "uint8"
        },
        {
          "internalType": "uint8",
          "name": "v",
          "type": "uint8"
        },
        {
          "internalType": "bytes32",
          "name": "r",
          "type": "bytes32"
        },
        {
          "internalType": "bytes32",
          "name": "s",
          "type": "bytes32"
        }
      ],
      "name": "castVoteBySig",
      "outputs": [],
      "stateMutability": "nonpayable",
      "type": "function"
    },
    {
      "inputs": [
        {
          "internalType": "uint256",
          "name": "proposalId",
          "type": "uint256"
        },
        {
          "internalType": "uint8",
          "name": "support",
          "type": "uint8"
        },
        {
          "internalType": "string",
          "name": "reason",
          "type": "string"
        }
      ],
      "name": "castVoteWithReason",
      "outputs": [],
      "stateMutability": "nonpayable",
      "type": "function"
    },
    {
      "inputs": [
        {
          "internalType": "uint256",
          "name": "proposalId",
          "type": "uint256"
        }
      ],
      "name": "execute",
      "outputs": [],
      "stateMutability": "payable",
      "type": "function"
    },
    {
      "inputs": [
        {
          "internalType": "uint256",
          "name": "proposalId",
          "type": "uint256"
        }
      ],
      "name": "getProposalState",
      "outputs": [
        {
          "internalType": "enum GoldiGovernor.ProposalState",
          "name": "",
          "type": "uint8"
        }
      ],
      "stateMutability": "view",
      "type": "function"
    },
    {
      "inputs": [
        {
          "internalType": "uint256",
          "name": "proposalId",
          "type": "uint256"
        },
        {
          "internalType": "address",
          "name": "voter",
          "type": "address"
        }
      ],
      "name": "getReceipt",
      "outputs": [
        {
          "components": [
            {
              "internalType": "uint256",
              "name": "support",
              "type": "uint256"
            },
            {
              "internalType": "uint256",
              "name": "votes",
              "type": "uint256"
            },
            {
              "internalType": "bool",
              "name": "hasVoted",
              "type": "bool"
            }
          ],
          "internalType": "struct GoldiGovernor.Receipt",
          "name": "",
          "type": "tuple"
        }
      ],
      "stateMutability": "view",
      "type": "function"
    },
    {
      "inputs": [],
      "name": "govlocks",
      "outputs": [
        {
          "internalType": "address",
          "name": "",
          "type": "address"
        }
      ],
      "stateMutability": "view",
      "type": "function"
    },
    {
      "inputs": [
        {
          "internalType": "address",
          "name": "",
          "type": "address"
        }
      ],
      "name": "latestProposalIds",
      "outputs": [
        {
          "internalType": "uint256",
          "name": "",
          "type": "uint256"
        }
      ],
      "stateMutability": "view",
      "type": "function"
    },
    {
      "inputs": [],
      "name": "multisig",
      "outputs": [
        {
          "internalType": "address",
          "name": "",
          "type": "address"
        }
      ],
      "stateMutability": "view",
      "type": "function"
    },
    {
      "inputs": [],
      "name": "name",
      "outputs": [
        {
          "internalType": "string",
          "name": "",
          "type": "string"
        }
      ],
      "stateMutability": "view",
      "type": "function"
    },
    {
      "inputs": [],
      "name": "proposalCount",
      "outputs": [
        {
          "internalType": "uint256",
          "name": "",
          "type": "uint256"
        }
      ],
      "stateMutability": "view",
      "type": "function"
    },
    {
      "inputs": [],
      "name": "proposalMaxOperations",
      "outputs": [
        {
          "internalType": "uint32",
          "name": "",
          "type": "uint32"
        }
      ],
      "stateMutability": "view",
      "type": "function"
    },
    {
      "inputs": [],
      "name": "proposalThreshold",
      "outputs": [
        {
          "internalType": "uint256",
          "name": "",
          "type": "uint256"
        }
      ],
      "stateMutability": "view",
      "type": "function"
    },
    {
      "inputs": [
        {
          "internalType": "uint256",
          "name": "",
          "type": "uint256"
        }
      ],
      "name": "proposals",
      "outputs": [
        {
          "internalType": "address",
          "name": "proposer",
          "type": "address"
        },
        {
          "internalType": "uint256",
          "name": "id",
          "type": "uint256"
        },
        {
          "internalType": "uint256",
          "name": "eta",
          "type": "uint256"
        },
        {
          "internalType": "uint256",
          "name": "startBlock",
          "type": "uint256"
        },
        {
          "internalType": "uint256",
          "name": "endBlock",
          "type": "uint256"
        },
        {
          "internalType": "uint256",
          "name": "forVotes",
          "type": "uint256"
        },
        {
          "internalType": "uint256",
          "name": "againstVotes",
          "type": "uint256"
        },
        {
          "internalType": "uint256",
          "name": "abstainVotes",
          "type": "uint256"
        },
        {
          "internalType": "bool",
          "name": "cancelled",
          "type": "bool"
        },
        {
          "internalType": "bool",
          "name": "executed",
          "type": "bool"
        }
      ],
      "stateMutability": "view",
      "type": "function"
    },
    {
      "inputs": [
        {
          "internalType": "address[]",
          "name": "targets",
          "type": "address[]"
        },
        {
          "internalType": "string[]",
          "name": "signatures",
          "type": "string[]"
        },
        {
          "internalType": "bytes[]",
          "name": "calldatas",
          "type": "bytes[]"
        },
        {
          "internalType": "uint256[]",
          "name": "values",
          "type": "uint256[]"
        },
        {
          "internalType": "string",
          "name": "description",
          "type": "string"
        }
      ],
      "name": "propose",
      "outputs": [],
      "stateMutability": "nonpayable",
      "type": "function"
    },
    {
      "inputs": [
        {
          "internalType": "uint256",
          "name": "proposalId",
          "type": "uint256"
        }
      ],
      "name": "queue",
      "outputs": [],
      "stateMutability": "nonpayable",
      "type": "function"
    },
    {
      "inputs": [],
      "name": "quorumVotes",
      "outputs": [
        {
          "internalType": "uint256",
          "name": "",
          "type": "uint256"
        }
      ],
      "stateMutability": "view",
      "type": "function"
    },
    {
      "inputs": [
        {
          "internalType": "address",
          "name": "_multisig",
          "type": "address"
        }
      ],
      "name": "setMultisig",
      "outputs": [],
      "stateMutability": "nonpayable",
      "type": "function"
    },
    {
      "inputs": [
        {
          "internalType": "uint256",
          "name": "newProposalThreshold",
          "type": "uint256"
        }
      ],
      "name": "setProposalThreshold",
      "outputs": [],
      "stateMutability": "nonpayable",
      "type": "function"
    },
    {
      "inputs": [
        {
          "internalType": "uint256",
          "name": "newVotingDelay",
          "type": "uint256"
        }
      ],
      "name": "setVotingDelay",
      "outputs": [],
      "stateMutability": "nonpayable",
      "type": "function"
    },
    {
      "inputs": [
        {
          "internalType": "uint256",
          "name": "newVotingPeriod",
          "type": "uint256"
        }
      ],
      "name": "setVotingPeriod",
      "outputs": [],
      "stateMutability": "nonpayable",
      "type": "function"
    },
    {
      "inputs": [],
      "name": "timelock",
      "outputs": [
        {
          "internalType": "address",
          "name": "",
          "type": "address"
        }
      ],
      "stateMutability": "view",
      "type": "function"
    },
    {
      "inputs": [],
      "name": "votingDelay",
      "outputs": [
        {
          "internalType": "uint256",
          "name": "",
          "type": "uint256"
        }
      ],
      "stateMutability": "view",
      "type": "function"
    },
    {
      "inputs": [],
      "name": "votingPeriod",
      "outputs": [
        {
          "internalType": "uint256",
          "name": "",
          "type": "uint256"
        }
      ],
      "stateMutability": "view",
      "type": "function"
    }
  ],
  "bytecode": {
    "object": "0x608060405234801562000010575f80fd5b50604051620028f4380380620028f4833981016040819052620000339162000143565b61168083108062000046575062013b0083115b15620000655760405163e8781c6760e01b815260040160405180910390fd5b6001821080620000765750619d8082115b15620000955760405163e8781c6760e01b815260040160405180910390fd5b670de0b6b3a7640000811080620000b657506a084595161401484a00000081115b15620000d55760405163e8781c6760e01b815260040160405180910390fd5b5f80546001600160a01b03199081166001600160a01b039889161790915560018054821696881696909617909555600280549095169390951692909217909255600691909155600555600755620001a5565b80516001600160a01b03811681146200013e575f80fd5b919050565b5f805f805f8060c0878903121562000159575f80fd5b620001648762000127565b9550620001746020880162000127565b9450620001846040880162000127565b9350606087015192506080870151915060a087015190509295509295509295565b61274180620001b35f395ff3fe6080604052600436106101e6575f3560e01c80637b3c71d311610108578063da35c6641161009d578063e48083fe1161006d578063e48083fe14610678578063ea0217cf1461068c578063ece40cc1146106ab578063f3283fba146106ca578063fe0d94c1146106e9575f80fd5b8063da35c664146105ce578063ddf0b009146105e3578063deaaa7cc14610602578063e23a9a5214610635575f80fd5b8063a960bdc4116100d8578063a960bdc414610567578063b112626314610586578063b58131b01461059b578063d33219b4146105b0575f80fd5b80637b3c71d3146104f25780637bdbe4d0146105115780639080936f14610525578063a64e024a14610551575f80fd5b80632cb757181161017e5780634783c35b1161014e5780634783c35b14610462578063567813881461049957806370b0f660146104b8578063791f5d23146104d7575f80fd5b80632cb75718146103ee5780633932abb11461040f5780633bccf4fd1461042457806340e58ee514610443575f80fd5b806320606b70116101b957806320606b7014610357578063215809ca1461038a57806324bc1a64146103b457806325fd935a146103d0575f80fd5b8063013cf08b146101ea57806302a251a3146102c457806306fdde03146102e757806317977c611461032c575b5f80fd5b3480156101f5575f80fd5b50610267610204366004611cad565b60036020525f90815260409020600481015460058201546006830154600784015460088501546009860154600a870154600b880154600c909801546001600160a01b03909716979596949593949293919290919060ff808216916101009004168a565b604080516001600160a01b03909b168b5260208b0199909952978901969096526060880194909452608087019290925260a086015260c085015260e084015215156101008301521515610120820152610140015b60405180910390f35b3480156102cf575f80fd5b506102d960065481565b6040519081526020016102bb565b3480156102f2575f80fd5b5061031f6040518060400160405280600d81526020016c23b7b63234a3b7bb32b93737b960991b81525081565b6040516102bb9190611d07565b348015610337575f80fd5b506102d9610346366004611d3b565b60046020525f908152604090205481565b348015610362575f80fd5b506102d97f8cad95687ba82c2ce50e74f7b754645e5117c3a5bec8151c0726d5857980a86681565b348015610395575f80fd5b5061039f61168081565b60405163ffffffff90911681526020016102bb565b3480156103bf575f80fd5b506102d96815af1d78b58c40000081565b3480156103db575f80fd5b506102d96a084595161401484a00000081565b3480156103f9575f80fd5b5061040d610408366004612002565b6106fc565b005b34801561041a575f80fd5b506102d960055481565b34801561042f575f80fd5b5061040d61043e3660046120db565b610a04565b34801561044e575f80fd5b5061040d61045d366004611cad565b610c22565b34801561046d575f80fd5b50600254610481906001600160a01b031681565b6040516001600160a01b0390911681526020016102bb565b3480156104a4575f80fd5b5061040d6104b3366004612125565b610e9e565b3480156104c3575f80fd5b5061040d6104d2366004611cad565b610eff565b3480156104e2575f80fd5b506102d9670de0b6b3a764000081565b3480156104fd575f80fd5b5061040d61050c36600461214f565b610f9e565b34801561051c575f80fd5b5061039f600a81565b348015610530575f80fd5b5061054461053f366004611cad565b610fee565b6040516102bb91906121e3565b34801561055c575f80fd5b5061039f62013b0081565b348015610572575f80fd5b50600154610481906001600160a01b031681565b348015610591575f80fd5b5061039f619d8081565b3480156105a6575f80fd5b506102d960075481565b3480156105bb575f80fd5b505f54610481906001600160a01b031681565b3480156105d9575f80fd5b506102d960085481565b3480156105ee575f80fd5b5061040d6105fd366004611cad565b610ffe565b34801561060d575f80fd5b506102d97f150214d74d59b7d1e90c73fc22ef3d991dd0a76b046543d4d80ab92d2a50328f81565b348015610640575f80fd5b5061065461064f366004612209565b6112bc565b604080518251815260208084015190820152918101511515908201526060016102bb565b348015610683575f80fd5b5061039f600181565b348015610697575f80fd5b5061040d6106a6366004611cad565b611331565b3480156106b6575f80fd5b5061040d6106c5366004611cad565b6113ca565b3480156106d5575f80fd5b5061040d6106e4366004611d3b565b611471565b61040d6106f7366004611cad565b6114f6565b600754600180546001600160a01b03169063782d6fe190339061071f904361223e565b6040516001600160e01b031960e085901b1681526001600160a01b0390921660048301526024820152604401602060405180830381865afa158015610766573d5f803e3d5ffd5b505050506040513d601f19601f8201168201806040525081019061078a9190612251565b116107a757604051625713a160e91b815260040160405180910390fd5b815185511415806107ba57508351855114155b806107c757508251855114155b156107e55760405163b7c1140d60e01b815260040160405180910390fd5b84515f036108065760405163b1a713fd60e01b815260040160405180910390fd5b8451600a10156108295760405163b1a713fd60e01b815260040160405180910390fd5b335f9081526004602052604090205480156108af575f610848826116aa565b9050600181600781111561085e5761085e6121cf565b0361087c57604051630a709fd560e01b815260040160405180910390fd5b5f81600781111561088f5761088f6121cf565b036108ad57604051630a709fd560e01b815260040160405180910390fd5b505b5f600554436108be9190612268565b90505f600654826108cf9190612268565b600880549192505f6108e08361227b565b90915550506008545f818152600360209081526040822060058101939093556004830180546001600160a01b031916331790556006830191909155895161092c918391908c0190611aeb565b5085516109429060038301906020890190611b4e565b50875161095890600183019060208b0190611b87565b50865161096e90600283019060208a0190611bd7565b506007810183905560088082018390555f60098301819055600a8301819055600b8301819055600c8301805461ffff19169055905433808352600460205260409283902082905591517f7d84a6263ae0d98d3329bd7b46bb4e8d6f98cd35a7adb45c274c8b7fd5ebd5e0926109f192918d908b908e908e908b908b908f9061231f565b60405180910390a1505050505050505050565b604080518082018252600d81526c23b7b63234a3b7bb32b93737b960991b60209182015281517f8cad95687ba82c2ce50e74f7b754645e5117c3a5bec8151c0726d5857980a866818301527f0d9c4f26e4c189309d05a435ad8cd7f9bb7df6813549bd8fd0c057199405615881840152466060820152306080808301919091528351808303909101815260a0820184528051908301207f150214d74d59b7d1e90c73fc22ef3d991dd0a76b046543d4d80ab92d2a50328f60c083015260e0820189905260ff8816610100808401919091528451808403909101815261012083019094528351939092019290922061190160f01b6101408401526101428301829052610162830181905290915f906101820160408051601f1981840301815282825280516020918201205f80855291840180845281905260ff8a169284019290925260608301889052608083018790529092509060019060a0016020604051602081039080840390855afa158015610b7d573d5f803e3d5ffd5b5050604051601f1901519150506001600160a01b038116610bb157604051638baa579f60e01b815260040160405180910390fd5b806001600160a01b03167fb8e138887d0aa13bab447e82de9d5c1777041ecd21ca36ba824ff1e6c07ddda48a8a610be9338e8e6117f9565b6040805193845260ff9092166020840152908201526080606082018190525f9082015260a00160405180910390a2505050505050505050565b6007610c2d826116aa565b6007811115610c3e57610c3e6121cf565b03610c5c5760405163b437280360e01b815260040160405180910390fd5b5f81815260036020526040902060048101546001600160a01b03163314610c9657604051637d1b73b960e01b815260040160405180910390fd5b6007546001805460048401546001600160a01b039182169263782d6fe19290911690610cc2904361223e565b6040516001600160e01b031960e085901b1681526001600160a01b0390921660048301526024820152604401602060405180830381865afa158015610d09573d5f803e3d5ffd5b505050506040513d601f19601f82011682018060405250810190610d2d9190612251565b1115610d4c5760405163e40aeaf560e01b815260040160405180910390fd5b600c8101805460ff1916600117905580545f5b81811015610e64575f5483546001600160a01b039091169063917a65a890859084908110610d8f57610d8f6123e7565b5f9182526020909120015460068601546003870180546001600160a01b039093169286908110610dc157610dc16123e7565b905f5260205f200154876002018681548110610ddf57610ddf6123e7565b905f5260205f2001886001018781548110610dfc57610dfc6123e7565b905f5260205f20016040518663ffffffff1660e01b8152600401610e249594939291906124a6565b5f604051808303815f87803b158015610e3b575f80fd5b505af1158015610e4d573d5f803e3d5ffd5b505050508080610e5c9061227b565b915050610d5f565b506040518381527f789cf55be980739dad1d0699b93b58e806b51c9d96619bfa8fe0a28abaa7b30c906020015b60405180910390a1505050565b337fb8e138887d0aa13bab447e82de9d5c1777041ecd21ca36ba824ff1e6c07ddda48383610ecd8483836117f9565b6040805193845260ff9092166020840152908201526080606082018190525f9082015260a00160405180910390a25050565b6002546001600160a01b03163314610f2a5760405163f05e412b60e01b815260040160405180910390fd5b6001811080610f3a5750619d8081115b15610f585760405163e8781c6760e01b815260040160405180910390fd5b600580549082905560408051828152602081018490527fc565b045403dc03c2eea82b81a0465edad9e2e7fc4d97e11421c209da93d7a9391015b60405180910390a15050565b337fb8e138887d0aa13bab447e82de9d5c1777041ecd21ca36ba824ff1e6c07ddda48585610fcd8483836117f9565b8686604051610fe09594939291906124f0565b60405180910390a250505050565b5f610ff8826116aa565b92915050565b6004611009826116aa565b600781111561101a5761101a6121cf565b146110385760405163b437280360e01b815260040160405180910390fd5b5f81815260036020908152604080832083548251630d48571f60e31b815292519194936001600160a01b0390911692636a42b8f892600480830193928290030181865afa15801561108b573d5f803e3d5ffd5b505050506040513d601f19601f820116820180604052508101906110af9190612251565b6110b99042612268565b82549091505f5b8181101561127557611263845f0182815481106110df576110df6123e7565b5f918252602090912001546003860180546001600160a01b03909216918490811061110c5761110c6123e7565b905f5260205f20015486600101848154811061112a5761112a6123e7565b905f5260205f2001805461113d906123fb565b80601f0160208091040260200160405190810160405280929190818152602001828054611169906123fb565b80156111b45780601f1061118b576101008083540402835291602001916111b4565b820191905f5260205f20905b81548152906001019060200180831161119757829003601f168201915b50505050508760020185815481106111ce576111ce6123e7565b905f5260205f200180546111e1906123fb565b80601f016020809104026020016040519081016040528092919081815260200182805461120d906123fb565b80156112585780601f1061122f57610100808354040283529160200191611258565b820191905f5260205f20905b81548152906001019060200180831161123b57829003601f168201915b5050505050876119c2565b8061126d8161227b565b9150506110c0565b506006830182905560408051858152602081018490527f9a2e42fd6722813d69113e7d0079d3d940171428df7373df9c7f7617cfda2892910160405180910390a150505050565b6112df60405180606001604052805f81526020015f81526020015f151581525090565b505f9182526003602090815260408084206001600160a01b03939093168452600d9092018152918190208151606081018352815481526001820154938101939093526002015460ff1615159082015290565b6002546001600160a01b0316331461135c5760405163f05e412b60e01b815260040160405180910390fd5b61168081108061136e575062013b0081115b1561138c5760405163e8781c6760e01b815260040160405180910390fd5b600680549082905560408051828152602081018490527f7e3f7f0708a84de9203036abaa450dccc85ad5ff52f78c170f3edb55cf5e88289101610f92565b6002546001600160a01b031633146113f55760405163f05e412b60e01b815260040160405180910390fd5b670de0b6b3a764000081108061141557506a084595161401484a00000081115b156114335760405163e8781c6760e01b815260040160405180910390fd5b600780549082905560408051828152602081018490527fccb45da8d5717e6c4544694297c4ba5cf151d455c9bb0ed4fc7a38411bc054619101610f92565b6002546001600160a01b0316331461149c5760405163f05e412b60e01b815260040160405180910390fd5b600280546001600160a01b038381166001600160a01b031983168117909355604080519190921680825260208201939093527ff9ffabca9c8276e99321725bcb43fb076a6c66a54b7f21c4e8146d8519b417dc9101610f92565b6005611501826116aa565b6007811115611512576115126121cf565b146115305760405163b437280360e01b815260040160405180910390fd5b5f818152600360205260408120600c8101805461ff001916610100179055805490915b81811015611679575f546003840180546001600160a01b0390921691639585a938919084908110611586576115866123e7565b905f5260205f200154855f0184815481106115a3576115a36123e7565b5f9182526020909120015460068701546003880180546001600160a01b0390931692879081106115d5576115d56123e7565b905f5260205f2001548860020187815481106115f3576115f36123e7565b905f5260205f2001896001018881548110611610576116106123e7565b905f5260205f20016040518763ffffffff1660e01b81526004016116389594939291906124a6565b5f604051808303818588803b15801561164f575f80fd5b505af1158015611661573d5f803e3d5ffd5b505050505080806116719061227b565b915050611553565b506040518381527f712ae1383f79ac853f8d882153778e0260ef8f03b504e2866e0593e04d2b291f90602001610e91565b5f818152600360205260408120600c81015460ff16156116cd5750600292915050565b806007015443116116e057505f92915050565b806008015443116116f45750600192915050565b80600601545f036117085750600492915050565b600c810154610100900460ff16156117235750600792915050565b80600a0154816009015411158061174657506815af1d78b58c4000008160090154105b156117545750600392915050565b5f8054906101000a90046001600160a01b03166001600160a01b031663c1a287e26040518163ffffffff1660e01b8152600401602060405180830381865afa1580156117a2573d5f803e3d5ffd5b505050506040513d601f19601f820116820180604052508101906117c69190612536565b63ffffffff1681600601546117db9190612268565b42106117ea5750600692915050565b50600592915050565b50919050565b5f6001611805846116aa565b6007811115611816576118166121cf565b146118345760405163b437280360e01b815260040160405180910390fd5b60028260ff16111561185957604051638eed55d160e01b815260040160405180910390fd5b5f8381526003602090815260408083206001600160a01b0388168452600d8101909252909120600281015460ff16156118a557604051637c9a1cf960e01b815260040160405180910390fd5b600154600783015460405163782d6fe160e01b81525f926001600160a01b03169163782d6fe1916118ee918b916004016001600160a01b03929092168252602082015260400190565b602060405180830381865afa158015611909573d5f803e3d5ffd5b505050506040513d601f19601f8201168201806040525081019061192d9190612251565b90508460ff165f03611953578083600a01546119499190612268565b600a840155611999565b8460ff166001036119785780836009015461196e9190612268565b6009840155611999565b8460ff16600203611999578083600b01546119939190612268565b600b8401555b60028201805460ff1916600190811790915560ff86168355919091018190559150509392505050565b5f546040516001600160a01b039091169063f2b06537906119ef9088908890889088908890602001612559565b604051602081830303815290604052805190602001206040518263ffffffff1660e01b8152600401611a2391815260200190565b602060405180830381865afa158015611a3e573d5f803e3d5ffd5b505050506040513d601f19601f82011682018060405250810190611a6291906125a4565b15611a8057604051632fc2a3e160e11b815260040160405180910390fd5b5f5460405163547052a760e01b81526001600160a01b039091169063547052a790611ab79088908590899088908a906004016125c3565b5f604051808303815f87803b158015611ace575f80fd5b505af1158015611ae0573d5f803e3d5ffd5b505050505050505050565b828054828255905f5260205f20908101928215611b3e579160200282015b82811115611b3e57825182546001600160a01b0319166001600160a01b03909116178255602090920191600190910190611b09565b50611b4a929150611c27565b5090565b828054828255905f5260205f20908101928215611b3e579160200282015b82811115611b3e578251825591602001919060010190611b6c565b828054828255905f5260205f20908101928215611bcb579160200282015b82811115611bcb5782518290611bbb908261264f565b5091602001919060010190611ba5565b50611b4a929150611c3b565b828054828255905f5260205f20908101928215611c1b579160200282015b82811115611c1b5782518290611c0b908261264f565b5091602001919060010190611bf5565b50611b4a929150611c57565b5b80821115611b4a575f8155600101611c28565b80821115611b4a575f611c4e8282611c73565b50600101611c3b565b80821115611b4a575f611c6a8282611c73565b50600101611c57565b508054611c7f906123fb565b5f825580601f10611c8e575050565b601f0160209004905f5260205f2090810190611caa9190611c27565b50565b5f60208284031215611cbd575f80fd5b5035919050565b5f81518084525f5b81811015611ce857602081850181015186830182015201611ccc565b505f602082860101526020601f19601f83011685010191505092915050565b602081525f611d196020830184611cc4565b9392505050565b80356001600160a01b0381168114611d36575f80fd5b919050565b5f60208284031215611d4b575f80fd5b611d1982611d20565b634e487b7160e01b5f52604160045260245ffd5b604051601f8201601f1916810167ffffffffffffffff81118282101715611d9157611d91611d54565b604052919050565b5f67ffffffffffffffff821115611db257611db2611d54565b5060051b60200190565b5f82601f830112611dcb575f80fd5b81356020611de0611ddb83611d99565b611d68565b82815260059290921b84018101918181019086841115611dfe575f80fd5b8286015b84811015611e2057611e1381611d20565b8352918301918301611e02565b509695505050505050565b5f67ffffffffffffffff831115611e4457611e44611d54565b611e57601f8401601f1916602001611d68565b9050828152838383011115611e6a575f80fd5b828260208301375f602084830101529392505050565b5f82601f830112611e8f575f80fd5b611d1983833560208501611e2b565b5f82601f830112611ead575f80fd5b81356020611ebd611ddb83611d99565b82815260059290921b84018101918181019086841115611edb575f80fd5b8286015b84811015611e2057803567ffffffffffffffff811115611efe575f8081fd5b611f0c8986838b0101611e80565b845250918301918301611edf565b5f82601f830112611f29575f80fd5b81356020611f39611ddb83611d99565b82815260059290921b84018101918181019086841115611f57575f80fd5b8286015b84811015611e2057803567ffffffffffffffff811115611f7a575f8081fd5b8701603f81018913611f8b575f8081fd5b611f9c898683013560408401611e2b565b845250918301918301611f5b565b5f82601f830112611fb9575f80fd5b81356020611fc9611ddb83611d99565b82815260059290921b84018101918181019086841115611fe7575f80fd5b8286015b84811015611e205780358352918301918301611feb565b5f805f805f60a08688031215612016575f80fd5b853567ffffffffffffffff8082111561202d575f80fd5b61203989838a01611dbc565b9650602088013591508082111561204e575f80fd5b61205a89838a01611e9e565b9550604088013591508082111561206f575f80fd5b61207b89838a01611f1a565b94506060880135915080821115612090575f80fd5b61209c89838a01611faa565b935060808801359150808211156120b1575f80fd5b506120be88828901611e80565b9150509295509295909350565b803560ff81168114611d36575f80fd5b5f805f805f60a086880312156120ef575f80fd5b853594506120ff602087016120cb565b935061210d604087016120cb565b94979396509394606081013594506080013592915050565b5f8060408385031215612136575f80fd5b82359150612146602084016120cb565b90509250929050565b5f805f8060608587031215612162575f80fd5b84359350612172602086016120cb565b9250604085013567ffffffffffffffff8082111561218e575f80fd5b818701915087601f8301126121a1575f80fd5b8135818111156121af575f80fd5b8860208285010111156121c0575f80fd5b95989497505060200194505050565b634e487b7160e01b5f52602160045260245ffd5b602081016008831061220357634e487b7160e01b5f52602160045260245ffd5b91905290565b5f806040838503121561221a575f80fd5b8235915061214660208401611d20565b634e487b7160e01b5f52601160045260245ffd5b81810381811115610ff857610ff861222a565b5f60208284031215612261575f80fd5b5051919050565b80820180821115610ff857610ff861222a565b5f6001820161228c5761228c61222a565b5060010190565b5f8151808452602080850194508084015f5b838110156122c1578151875295820195908201906001016122a5565b509495945050505050565b5f81518084526020808501808196508360051b810191508286015f5b85811015612312578284038952612300848351611cc4565b988501989350908401906001016122e8565b5091979650505050505050565b8981526001600160a01b03898116602080840191909152610120604084018190528a519084018190525f926101408501928c810192909190855b81811015612377578451831686529483019493830193600101612359565b5050505050828103606084015261238e818a612293565b905082810360808401526123a281896122cc565b905082810360a08401526123b681886122cc565b90508560c08401528460e08401528281036101008401526123d78185611cc4565b9c9b505050505050505050505050565b634e487b7160e01b5f52603260045260245ffd5b600181811c9082168061240f57607f821691505b6020821081036117f357634e487b7160e01b5f52602260045260245ffd5b5f8154612439816123fb565b80855260206001838116801561245657600181146124705761249b565b60ff1985168884015283151560051b88018301955061249b565b865f52825f205f5b858110156124935781548a8201860152908301908401612478565b890184019650505b505050505092915050565b60018060a01b038616815284602082015283604082015260a060608201525f6124d260a083018561242d565b82810360808401526124e4818561242d565b98975050505050505050565b85815260ff8516602082015283604082015260806060820152816080820152818360a08301375f81830160a090810191909152601f909201601f19160101949350505050565b5f60208284031215612546575f80fd5b815163ffffffff81168114611d19575f80fd5b60018060a01b038616815284602082015260a060408201525f61257f60a0830186611cc4565b82810360608401526125918186611cc4565b9150508260808301529695505050505050565b5f602082840312156125b4575f80fd5b81518015158114611d19575f80fd5b60018060a01b038616815284602082015283604082015260a060608201525f6125ef60a0830185611cc4565b82810360808401526124e48185611cc4565b601f82111561264a575f81815260208120601f850160051c810160208610156126275750805b601f850160051c820191505b8181101561264657828155600101612633565b5050505b505050565b815167ffffffffffffffff81111561266957612669611d54565b61267d8161267784546123fb565b84612601565b602080601f8311600181146126b0575f84156126995750858301515b5f19600386901b1c1916600185901b178555612646565b5f85815260208120601f198616915b828110156126de578886015182559484019460019091019084016126bf565b50858210156126fb57878501515f19600388901b60f8161c191681555b5050505050600190811b0190555056fea26469706673582212200fb7d620277bab36d1ace1fb2ccaedcbc8a2da3e4c2c20840306753c95bd3fde64736f6c63430008140033",
    "linkReferences": {}
  },
  "methodIdentifiers": {
    "BALLOT_TYPEHASH()": "deaaa7cc",
    "DOMAIN_TYPEHASH()": "20606b70",
    "MAX_PROPOSAL_THRESHOLD()": "25fd935a",
    "MAX_VOTING_DELAY()": "b1126263",
    "MAX_VOTING_PERIOD()": "a64e024a",
    "MIN_PROPOSAL_THRESHOLD()": "791f5d23",
    "MIN_VOTING_DELAY()": "e48083fe",
    "MIN_VOTING_PERIOD()": "215809ca",
    "cancel(uint256)": "40e58ee5",
    "castVote(uint256,uint8)": "56781388",
    "castVoteBySig(uint256,uint8,uint8,bytes32,bytes32)": "3bccf4fd",
    "castVoteWithReason(uint256,uint8,string)": "7b3c71d3",
    "execute(uint256)": "fe0d94c1",
    "getProposalState(uint256)": "9080936f",
    "getReceipt(uint256,address)": "e23a9a52",
    "govlocks()": "a960bdc4",
    "latestProposalIds(address)": "17977c61",
    "multisig()": "4783c35b",
    "name()": "06fdde03",
    "proposalCount()": "da35c664",
    "proposalMaxOperations()": "7bdbe4d0",
    "proposalThreshold()": "b58131b0",
    "proposals(uint256)": "013cf08b",
    "propose(address[],string[],bytes[],uint256[],string)": "2cb75718",
    "queue(uint256)": "ddf0b009",
    "quorumVotes()": "24bc1a64",
    "setMultisig(address)": "f3283fba",
    "setProposalThreshold(uint256)": "ece40cc1",
    "setVotingDelay(uint256)": "70b0f660",
    "setVotingPeriod(uint256)": "ea0217cf",
    "timelock()": "d33219b4",
    "votingDelay()": "3932abb1",
    "votingPeriod()": "02a251a3"
  },
  "id": 26
}