{
  "abi": [
    {
      "inputs": [
        {
          "internalType": "address",
          "name": "_honey",
          "type": "address"
        },
        {
          "internalType": "address",
          "name": "_gamm",
          "type": "address"
        },
        {
          "internalType": "address",
          "name": "_multisig",
          "type": "address"
        },
        {
          "internalType": "bytes32",
          "name": "_root",
          "type": "bytes32"
        }
      ],
      "stateMutability": "nonpayable",
      "type": "constructor"
    },
    {
      "inputs": [],
      "name": "ExcessiveContribution",
      "type": "error"
    },
    {
      "inputs": [],
      "name": "HardcapHit",
      "type": "error"
    },
    {
      "inputs": [],
      "name": "NoContribution",
      "type": "error"
    },
    {
      "inputs": [],
      "name": "NotClaimPeriod",
      "type": "error"
    },
    {
      "inputs": [],
      "name": "NotMultisig",
      "type": "error"
    },
    {
      "inputs": [],
      "name": "NotWhitelisted",
      "type": "error"
    },
    {
      "inputs": [],
      "name": "PresaleOver",
      "type": "error"
    },
    {
      "inputs": [],
      "name": "claim",
      "outputs": [],
      "stateMutability": "nonpayable",
      "type": "function"
    },
    {
      "inputs": [
        {
          "internalType": "uint256",
          "name": "amount",
          "type": "uint256"
        },
        {
          "internalType": "bytes32[]",
          "name": "proof",
          "type": "bytes32[]"
        }
      ],
      "name": "contribute",
      "outputs": [],
      "stateMutability": "nonpayable",
      "type": "function"
    },
    {
      "inputs": [
        {
          "internalType": "address",
          "name": "",
          "type": "address"
        }
      ],
      "name": "contributions",
      "outputs": [
        {
          "internalType": "uint256",
          "name": "",
          "type": "uint256"
        }
      ],
      "stateMutability": "view",
      "type": "function"
    },
    {
      "inputs": [],
      "name": "gamm",
      "outputs": [
        {
          "internalType": "address",
          "name": "",
          "type": "address"
        }
      ],
      "stateMutability": "view",
      "type": "function"
    },
    {
      "inputs": [],
      "name": "hardCap",
      "outputs": [
        {
          "internalType": "uint256",
          "name": "",
          "type": "uint256"
        }
      ],
      "stateMutability": "view",
      "type": "function"
    },
    {
      "inputs": [],
      "name": "honey",
      "outputs": [
        {
          "internalType": "address",
          "name": "",
          "type": "address"
        }
      ],
      "stateMutability": "view",
      "type": "function"
    },
    {
      "inputs": [],
      "name": "initiate",
      "outputs": [],
      "stateMutability": "nonpayable",
      "type": "function"
    },
    {
      "inputs": [],
      "name": "locksPresaleSupply",
      "outputs": [
        {
          "internalType": "uint256",
          "name": "",
          "type": "uint256"
        }
      ],
      "stateMutability": "view",
      "type": "function"
    },
    {
      "inputs": [],
      "name": "maxContribution",
      "outputs": [
        {
          "internalType": "uint256",
          "name": "",
          "type": "uint256"
        }
      ],
      "stateMutability": "view",
      "type": "function"
    },
    {
      "inputs": [],
      "name": "multisig",
      "outputs": [
        {
          "internalType": "address",
          "name": "",
          "type": "address"
        }
      ],
      "stateMutability": "view",
      "type": "function"
    },
    {
      "inputs": [],
      "name": "root",
      "outputs": [
        {
          "internalType": "bytes32",
          "name": "",
          "type": "bytes32"
        }
      ],
      "stateMutability": "view",
      "type": "function"
    },
    {
      "inputs": [
        {
          "internalType": "address",
          "name": "_multisig",
          "type": "address"
        }
      ],
      "name": "setMultisig",
      "outputs": [],
      "stateMutability": "nonpayable",
      "type": "function"
    },
    {
      "inputs": [],
      "name": "startTime",
      "outputs": [
        {
          "internalType": "uint256",
          "name": "",
          "type": "uint256"
        }
      ],
      "stateMutability": "view",
      "type": "function"
    },
    {
      "inputs": [],
      "name": "totalContribution",
      "outputs": [
        {
          "internalType": "uint256",
          "name": "",
          "type": "uint256"
        }
      ],
      "stateMutability": "view",
      "type": "function"
    }
  ],
  "bytecode": {
    "object": "0x60806040526969e10de76676d0800000600355692a5a058fc295ed00000060045569017b7883c069166000006005556008805460ff60a01b19169055348015610046575f80fd5b50604051610a02380380610a02833981016040819052610065916100c8565b42600255600680546001600160a01b03199081166001600160a01b03968716179091556007805482169486169490941790935560088054909316919093161790555f55610110565b80516001600160a01b03811681146100c3575f80fd5b919050565b5f805f80608085870312156100db575f80fd5b6100e4856100ad565b93506100f2602086016100ad565b9250610100604086016100ad565b6060959095015193969295505050565b6108e58061011d5f395ff3fe608060405234801561000f575f80fd5b50600436106100e5575f3560e01c806366aa56c511610088578063d73bb3b811610063578063d73bb3b8146101ac578063ebf0c717146101b5578063f3283fba146101bd578063fb86a404146101d0575f80fd5b806366aa56c51461019257806378e979251461019a5780638d3d6576146101a3575f80fd5b806342e94c90116100c357806342e94c90146101435780634783c35b146101625780634e71d92d146101755780635b71d67b1461017f575f80fd5b806309f7eaa4146100e95780630dcf4b8f1461011957806336b2c4b214610130575b5f80fd5b6007546100fc906001600160a01b031681565b6040516001600160a01b0390911681526020015b60405180910390f35b61012260015481565b604051908152602001610110565b6006546100fc906001600160a01b031681565b610122610151366004610733565b60096020525f908152604090205481565b6008546100fc906001600160a01b031681565b61017d6101d9565b005b61017d61018d366004610774565b610291565b61017d6103ff565b61012260025481565b61012260045481565b61012260055481565b6101225f5481565b61017d6101cb366004610733565b610548565b61012260035481565b600854600160a01b900460ff16610203576040516358e29d2760e11b815260040160405180910390fd5b335f908152600960205260408120549081900361023357604051631971fbf360e21b815260040160405180910390fd5b5f61024082600154610595565b905061024e816005546105e2565b335f9081526009602052604081208054929350849290919061027190849061084d565b909155505060075461028d906001600160a01b0316338361060d565b5050565b80615460600254426102a3919061084d565b1015610307575f546040516bffffffffffffffffffffffff193360601b1660208201526102ea9183916034016040516020818303038152906040528051906020012061064d565b61030757604051630b094f2760e31b815260040160405180910390fd5b600354836001546103189190610866565b111561033757604051631b2a214960e31b815260040160405180910390fd5b6201518060025442610349919061084d565b111561036b5760405160016242f8d560e01b0319815260040160405180910390fd5b600454335f90815260096020526040902054610388908590610866565b11156103a757604051636a0edc0d60e01b815260040160405180910390fd5b335f90815260096020526040812080548592906103c5908490610866565b925050819055508260015f8282546103dd9190610866565b90915550506006546103fa906001600160a01b031633308661068d565b505050565b6008546001600160a01b0316331461042a5760405163f05e412b60e01b815260040160405180910390fd5b620151806002544261043c919061084d565b101561045b576040516358e29d2760e11b815260040160405180910390fd5b6008805460ff60a01b1916600160a01b1790555f80806104796106dc565b6007546040516388b1220f60e01b8152600481018590526024810184905293965091945092506001600160a01b0316906388b1220f906044015f604051808303815f87803b1580156104c9575f80fd5b505af11580156104db573d5f803e3d5ffd5b505060065460075461050593506001600160a01b039182169250166105008587610866565b61060d565b600654600854610522916001600160a01b0390811691168361060d565b6007546008546103fa916001600160a01b03908116911668a2a15d09519be0000061060d565b6008546001600160a01b031633146105735760405163f05e412b60e01b815260040160405180910390fd5b600880546001600160a01b0319166001600160a01b0392909216919091179055565b5f7812725dd1d243aba0e75fe645cc4873f9e65afe688c928e1f218311670de0b6b3a7640000021582026105d057637c5f487d5f526004601cfd5b50670de0b6b3a7640000919091020490565b5f815f190483118202156105fd5763bac65e5b5f526004601cfd5b50670de0b6b3a764000091020490565b816014528060345263a9059cbb60601b5f5260205f604460105f875af13d1560015f51141716610644576390b8ec185f526004601cfd5b5f603452505050565b5f8351156106865760208401845160051b81015b8151841160051b938452815160209485185260405f2093909101908082106106615750505b5014919050565b60405181606052826040528360601b602c526323b872dd60601b600c5260205f6064601c5f895af13d1560015f511417166106cf57637939f4245f526004601cfd5b5f60605260405250505050565b6001545f90819081906106f0606482610879565b6106fb90604b610898565b9350610708606482610879565b61071390600f610898565b9250610720606482610879565b61072b90600a610898565b915050909192565b5f60208284031215610743575f80fd5b81356001600160a01b0381168114610759575f80fd5b9392505050565b634e487b7160e01b5f52604160045260245ffd5b5f8060408385031215610785575f80fd5b8235915060208084013567ffffffffffffffff808211156107a4575f80fd5b818601915086601f8301126107b7575f80fd5b8135818111156107c9576107c9610760565b8060051b604051601f19603f830116810181811085821117156107ee576107ee610760565b60405291825284820192508381018501918983111561080b575f80fd5b938501935b8285101561082957843584529385019392850192610810565b8096505050505050509250929050565b634e487b7160e01b5f52601160045260245ffd5b8181038181111561086057610860610839565b92915050565b8082018082111561086057610860610839565b5f8261089357634e487b7160e01b5f52601260045260245ffd5b500490565b80820281158282048414176108605761086061083956fea264697066735822122077aec43484861cb9cf7545daec157257f43e1ec2e3aa93b4d96892972e59988064736f6c63430008140033",
    "linkReferences": {}
  },
  "methodIdentifiers": {
    "claim()": "4e71d92d",
    "contribute(uint256,bytes32[])": "5b71d67b",
    "contributions(address)": "42e94c90",
    "gamm()": "09f7eaa4",
    "hardCap()": "fb86a404",
    "honey()": "36b2c4b2",
    "initiate()": "66aa56c5",
    "locksPresaleSupply()": "d73bb3b8",
    "maxContribution()": "8d3d6576",
    "multisig()": "4783c35b",
    "root()": "ebf0c717",
    "setMultisig(address)": "f3283fba",
    "startTime()": "78e97925",
    "totalContribution()": "0dcf4b8f"
  },
  "id": 27
}