{
  "abi": [
    {
      "inputs": [
        {
          "internalType": "address",
          "name": "_bondbear",
          "type": "address"
        },
        {
          "internalType": "address",
          "name": "_bandbear",
          "type": "address"
        },
        {
          "internalType": "address",
          "name": "_honeycomb",
          "type": "address"
        },
        {
          "internalType": "address",
          "name": "_beradrome",
          "type": "address"
        },
        {
          "internalType": "address",
          "name": "_bera",
          "type": "address"
        }
      ],
      "stateMutability": "nonpayable",
      "type": "constructor"
    },
    {
      "inputs": [],
      "name": "bandbear",
      "outputs": [
        {
          "internalType": "address",
          "name": "",
          "type": "address"
        }
      ],
      "stateMutability": "view",
      "type": "function"
    },
    {
      "inputs": [],
      "name": "bera",
      "outputs": [
        {
          "internalType": "address",
          "name": "",
          "type": "address"
        }
      ],
      "stateMutability": "view",
      "type": "function"
    },
    {
      "inputs": [],
      "name": "beradrome",
      "outputs": [
        {
          "internalType": "address",
          "name": "",
          "type": "address"
        }
      ],
      "stateMutability": "view",
      "type": "function"
    },
    {
      "inputs": [],
      "name": "bondbear",
      "outputs": [
        {
          "internalType": "address",
          "name": "",
          "type": "address"
        }
      ],
      "stateMutability": "view",
      "type": "function"
    },
    {
      "inputs": [],
      "name": "drip",
      "outputs": [],
      "stateMutability": "nonpayable",
      "type": "function"
    },
    {
      "inputs": [],
      "name": "honeycomb",
      "outputs": [
        {
          "internalType": "address",
          "name": "",
          "type": "address"
        }
      ],
      "stateMutability": "view",
      "type": "function"
    }
  ],
  "bytecode": {
    "object": "0x608060405234801561000f575f80fd5b5060405161040038038061040083398101604081905261002e916100aa565b5f80546001600160a01b03199081166001600160a01b0397881617909155600180548216958716959095179094556002805485169386169390931790925560038054841691851691909117905560048054909216921691909117905561010b565b80516001600160a01b03811681146100a5575f80fd5b919050565b5f805f805f60a086880312156100be575f80fd5b6100c78661008f565b94506100d56020870161008f565b93506100e36040870161008f565b92506100f16060870161008f565b91506100ff6080870161008f565b90509295509295909350565b6102e8806101185f395ff3fe608060405234801561000f575f80fd5b5060043610610060575f3560e01c8063307579e6146100645780636ea12931146100935780638f0763c2146100a657806396d294bc146100b95780639f678cca146100cb578063dc0efcd8146100d5575b5f80fd5b600254610077906001600160a01b031681565b6040516001600160a01b03909116815260200160405180910390f35b600454610077906001600160a01b031681565b600354610077906001600160a01b031681565b5f54610077906001600160a01b031681565b6100d36100e8565b005b600154610077906001600160a01b031681565b5f546040516335313c2160e11b81523360048201526001600160a01b0390911690636a627842906024015f604051808303815f87803b158015610129575f80fd5b505af115801561013b573d5f803e3d5ffd5b50506001546040516335313c2160e11b81523360048201526001600160a01b039091169250636a62784291506024015f604051808303815f87803b158015610181575f80fd5b505af1158015610193573d5f803e3d5ffd5b50506002546040516335313c2160e11b81523360048201526001600160a01b039091169250636a62784291506024015f604051808303815f87803b1580156101d9575f80fd5b505af11580156101eb573d5f803e3d5ffd5b50506003546040516335313c2160e11b81523360048201526001600160a01b039091169250636a62784291506024015f604051808303815f87803b158015610231575f80fd5b505af1158015610243573d5f803e3d5ffd5b5050600480546040516340c10f1960e01b8152339281019290925269d3c21bcecceda100000060248301526001600160a01b031692506340c10f1991506044015f604051808303815f87803b15801561029a575f80fd5b505af11580156102ac573d5f803e3d5ffd5b5050505056fea2646970667358221220da65efcb9cb4c4890553aacd7bd65eb8bed37201591646e937ef1fc61203ea9d64736f6c63430008140033",
    "linkReferences": {}
  },
  "methodIdentifiers": {
    "bandbear()": "dc0efcd8",
    "bera()": "6ea12931",
    "beradrome()": "8f0763c2",
    "bondbear()": "96d294bc",
    "drip()": "9f678cca",
    "honeycomb()": "307579e6"
  },
  "id": 37
}