{
  "abi": [
    {
      "inputs": [
        {
          "internalType": "uint256",
          "name": "_startingPoolSize",
          "type": "uint256"
        },
        {
          "internalType": "uint256",
          "name": "_protocolInterestRate",
          "type": "uint256"
        },
        {
          "internalType": "uint256",
          "name": "_porridgeMultiple",
          "type": "uint256"
        },
        {
          "internalType": "address",
          "name": "_porridge",
          "type": "address"
        },
        {
          "internalType": "address",
          "name": "_multisig",
          "type": "address"
        },
        {
          "internalType": "address",
          "name": "_hj",
          "type": "address"
        },
        {
          "internalType": "address",
          "name": "_bera",
          "type": "address"
        },
        {
          "internalType": "address",
          "name": "_vault",
          "type": "address"
        },
        {
          "internalType": "address[]",
          "name": "_partnerNFTs",
          "type": "address[]"
        },
        {
          "internalType": "uint8[]",
          "name": "_partnerNFTBoosts",
          "type": "uint8[]"
        }
      ],
      "stateMutability": "nonpayable",
      "type": "constructor"
    },
    {
      "inputs": [],
      "name": "AllowanceOverflow",
      "type": "error"
    },
    {
      "inputs": [],
      "name": "AllowanceUnderflow",
      "type": "error"
    },
    {
      "inputs": [],
      "name": "ArrayMismatch",
      "type": "error"
    },
    {
      "inputs": [],
      "name": "BoostNotExpired",
      "type": "error"
    },
    {
      "inputs": [],
      "name": "BorrowLimitExceeded",
      "type": "error"
    },
    {
      "inputs": [],
      "name": "ExcessiveRepay",
      "type": "error"
    },
    {
      "inputs": [],
      "name": "InsufficientAllowance",
      "type": "error"
    },
    {
      "inputs": [],
      "name": "InsufficientBalance",
      "type": "error"
    },
    {
      "inputs": [],
      "name": "InvalidBoost",
      "type": "error"
    },
    {
      "inputs": [],
      "name": "InvalidBoostNFT",
      "type": "error"
    },
    {
      "inputs": [],
      "name": "InvalidCollateral",
      "type": "error"
    },
    {
      "inputs": [],
      "name": "InvalidDuration",
      "type": "error"
    },
    {
      "inputs": [],
      "name": "InvalidLoanAmount",
      "type": "error"
    },
    {
      "inputs": [],
      "name": "InvalidPermit",
      "type": "error"
    },
    {
      "inputs": [],
      "name": "InvalidUnstake",
      "type": "error"
    },
    {
      "inputs": [],
      "name": "LoanExpired",
      "type": "error"
    },
    {
      "inputs": [],
      "name": "LoanNotFound",
      "type": "error"
    },
    {
      "inputs": [],
      "name": "NotHoneyjar",
      "type": "error"
    },
    {
      "inputs": [],
      "name": "NotMultisig",
      "type": "error"
    },
    {
      "inputs": [],
      "name": "PermitExpired",
      "type": "error"
    },
    {
      "inputs": [],
      "name": "TotalSupplyOverflow",
      "type": "error"
    },
    {
      "inputs": [],
      "name": "Unliquidatable",
      "type": "error"
    },
    {
      "anonymous": false,
      "inputs": [
        {
          "indexed": true,
          "internalType": "address",
          "name": "owner",
          "type": "address"
        },
        {
          "indexed": true,
          "internalType": "address",
          "name": "spender",
          "type": "address"
        },
        {
          "indexed": false,
          "internalType": "uint256",
          "name": "amount",
          "type": "uint256"
        }
      ],
      "name": "Approval",
      "type": "event"
    },
    {
      "anonymous": false,
      "inputs": [
        {
          "indexed": true,
          "internalType": "address",
          "name": "user",
          "type": "address"
        },
        {
          "indexed": false,
          "internalType": "uint256",
          "name": "amount",
          "type": "uint256"
        }
      ],
      "name": "BeraLock",
      "type": "event"
    },
    {
      "anonymous": false,
      "inputs": [
        {
          "indexed": true,
          "internalType": "address",
          "name": "user",
          "type": "address"
        },
        {
          "indexed": false,
          "internalType": "uint256",
          "name": "amount",
          "type": "uint256"
        }
      ],
      "name": "Borrow",
      "type": "event"
    },
    {
      "anonymous": false,
      "inputs": [
        {
          "indexed": true,
          "internalType": "address",
          "name": "borrower",
          "type": "address"
        },
        {
          "indexed": true,
          "internalType": "address",
          "name": "liquidator",
          "type": "address"
        },
        {
          "indexed": false,
          "internalType": "uint256",
          "name": "amount",
          "type": "uint256"
        }
      ],
      "name": "Liquidation",
      "type": "event"
    },
    {
      "anonymous": false,
      "inputs": [
        {
          "indexed": true,
          "internalType": "address",
          "name": "user",
          "type": "address"
        },
        {
          "indexed": false,
          "internalType": "uint256",
          "name": "amount",
          "type": "uint256"
        }
      ],
      "name": "Repay",
      "type": "event"
    },
    {
      "anonymous": false,
      "inputs": [
        {
          "indexed": true,
          "internalType": "address",
          "name": "from",
          "type": "address"
        },
        {
          "indexed": true,
          "internalType": "address",
          "name": "to",
          "type": "address"
        },
        {
          "indexed": false,
          "internalType": "uint256",
          "name": "amount",
          "type": "uint256"
        }
      ],
      "name": "Transfer",
      "type": "event"
    },
    {
      "anonymous": false,
      "inputs": [
        {
          "indexed": true,
          "internalType": "address",
          "name": "user",
          "type": "address"
        },
        {
          "indexed": false,
          "internalType": "uint256",
          "name": "amount",
          "type": "uint256"
        }
      ],
      "name": "gBeraStake",
      "type": "event"
    },
    {
      "inputs": [],
      "name": "DAYS_SECONDS",
      "outputs": [
        {
          "internalType": "uint32",
          "name": "",
          "type": "uint32"
        }
      ],
      "stateMutability": "view",
      "type": "function"
    },
    {
      "inputs": [],
      "name": "DOMAIN_SEPARATOR",
      "outputs": [
        {
          "internalType": "bytes32",
          "name": "result",
          "type": "bytes32"
        }
      ],
      "stateMutability": "view",
      "type": "function"
    },
    {
      "inputs": [],
      "name": "FORTNITE",
      "outputs": [
        {
          "internalType": "uint32",
          "name": "",
          "type": "uint32"
        }
      ],
      "stateMutability": "view",
      "type": "function"
    },
    {
      "inputs": [],
      "name": "MONTH_DAYS",
      "outputs": [
        {
          "internalType": "uint32",
          "name": "",
          "type": "uint32"
        }
      ],
      "stateMutability": "view",
      "type": "function"
    },
    {
      "inputs": [],
      "name": "ONE_YEAR",
      "outputs": [
        {
          "internalType": "uint32",
          "name": "",
          "type": "uint32"
        }
      ],
      "stateMutability": "view",
      "type": "function"
    },
    {
      "inputs": [],
      "name": "SIX_MONTHS",
      "outputs": [
        {
          "internalType": "uint32",
          "name": "",
          "type": "uint32"
        }
      ],
      "stateMutability": "view",
      "type": "function"
    },
    {
      "inputs": [
        {
          "internalType": "address",
          "name": "owner",
          "type": "address"
        },
        {
          "internalType": "address",
          "name": "spender",
          "type": "address"
        }
      ],
      "name": "allowance",
      "outputs": [
        {
          "internalType": "uint256",
          "name": "result",
          "type": "uint256"
        }
      ],
      "stateMutability": "view",
      "type": "function"
    },
    {
      "inputs": [
        {
          "internalType": "address",
          "name": "spender",
          "type": "address"
        },
        {
          "internalType": "uint256",
          "name": "amount",
          "type": "uint256"
        }
      ],
      "name": "approve",
      "outputs": [
        {
          "internalType": "bool",
          "name": "",
          "type": "bool"
        }
      ],
      "stateMutability": "nonpayable",
      "type": "function"
    },
    {
      "inputs": [
        {
          "internalType": "address",
          "name": "owner",
          "type": "address"
        }
      ],
      "name": "balanceOf",
      "outputs": [
        {
          "internalType": "uint256",
          "name": "result",
          "type": "uint256"
        }
      ],
      "stateMutability": "view",
      "type": "function"
    },
    {
      "inputs": [],
      "name": "bera",
      "outputs": [
        {
          "internalType": "address",
          "name": "",
          "type": "address"
        }
      ],
      "stateMutability": "view",
      "type": "function"
    },
    {
      "inputs": [
        {
          "internalType": "address",
          "name": "partnerNFT",
          "type": "address"
        },
        {
          "internalType": "uint256",
          "name": "partnerNFTId",
          "type": "uint256"
        },
        {
          "internalType": "uint256",
          "name": "expiry",
          "type": "uint256"
        }
      ],
      "name": "boost",
      "outputs": [],
      "stateMutability": "nonpayable",
      "type": "function"
    },
    {
      "inputs": [
        {
          "internalType": "address[]",
          "name": "partnerNFTs",
          "type": "address[]"
        },
        {
          "internalType": "uint256[]",
          "name": "partnerNFTIds",
          "type": "uint256[]"
        },
        {
          "internalType": "uint256",
          "name": "expiry",
          "type": "uint256"
        }
      ],
      "name": "boost",
      "outputs": [],
      "stateMutability": "nonpayable",
      "type": "function"
    },
    {
      "inputs": [
        {
          "internalType": "address",
          "name": "",
          "type": "address"
        }
      ],
      "name": "boosts",
      "outputs": [
        {
          "internalType": "uint256",
          "name": "expiry",
          "type": "uint256"
        },
        {
          "internalType": "uint256",
          "name": "boostMagnitude",
          "type": "uint256"
        }
      ],
      "stateMutability": "view",
      "type": "function"
    },
    {
      "inputs": [
        {
          "internalType": "uint256",
          "name": "borrowAmount",
          "type": "uint256"
        },
        {
          "internalType": "uint256",
          "name": "duration",
          "type": "uint256"
        },
        {
          "internalType": "address[]",
          "name": "collateralNFTs",
          "type": "address[]"
        },
        {
          "internalType": "uint256[]",
          "name": "collateralNFTIds",
          "type": "uint256[]"
        }
      ],
      "name": "borrow",
      "outputs": [],
      "stateMutability": "nonpayable",
      "type": "function"
    },
    {
      "inputs": [
        {
          "internalType": "uint256",
          "name": "borrowAmount",
          "type": "uint256"
        },
        {
          "internalType": "uint256",
          "name": "duration",
          "type": "uint256"
        },
        {
          "internalType": "address",
          "name": "collateralNFT",
          "type": "address"
        },
        {
          "internalType": "uint256",
          "name": "collateralNFTId",
          "type": "uint256"
        }
      ],
      "name": "borrow",
      "outputs": [],
      "stateMutability": "nonpayable",
      "type": "function"
    },
    {
      "inputs": [],
      "name": "claim",
      "outputs": [],
      "stateMutability": "nonpayable",
      "type": "function"
    },
    {
      "inputs": [],
      "name": "decimals",
      "outputs": [
        {
          "internalType": "uint8",
          "name": "",
          "type": "uint8"
        }
      ],
      "stateMutability": "view",
      "type": "function"
    },
    {
      "inputs": [],
      "name": "emergencyWithdraw",
      "outputs": [],
      "stateMutability": "nonpayable",
      "type": "function"
    },
    {
      "inputs": [],
      "name": "emissionsStart",
      "outputs": [
        {
          "internalType": "uint256",
          "name": "",
          "type": "uint256"
        }
      ],
      "stateMutability": "view",
      "type": "function"
    },
    {
      "inputs": [
        {
          "internalType": "uint256",
          "name": "newExpiry",
          "type": "uint256"
        }
      ],
      "name": "extendBoost",
      "outputs": [],
      "stateMutability": "nonpayable",
      "type": "function"
    },
    {
      "inputs": [
        {
          "internalType": "address",
          "name": "user",
          "type": "address"
        }
      ],
      "name": "getClaimable",
      "outputs": [
        {
          "internalType": "uint256",
          "name": "",
          "type": "uint256"
        }
      ],
      "stateMutability": "view",
      "type": "function"
    },
    {
      "inputs": [
        {
          "internalType": "address[]",
          "name": "collateralNFTs",
          "type": "address[]"
        }
      ],
      "name": "getFairValues",
      "outputs": [
        {
          "internalType": "uint256",
          "name": "",
          "type": "uint256"
        }
      ],
      "stateMutability": "view",
      "type": "function"
    },
    {
      "inputs": [],
      "name": "getgBERARatio",
      "outputs": [
        {
          "internalType": "uint256",
          "name": "",
          "type": "uint256"
        }
      ],
      "stateMutability": "view",
      "type": "function"
    },
    {
      "inputs": [],
      "name": "hj",
      "outputs": [
        {
          "internalType": "address",
          "name": "",
          "type": "address"
        }
      ],
      "stateMutability": "view",
      "type": "function"
    },
    {
      "inputs": [],
      "name": "honeyjarClaims",
      "outputs": [
        {
          "internalType": "uint256",
          "name": "",
          "type": "uint256"
        }
      ],
      "stateMutability": "view",
      "type": "function"
    },
    {
      "inputs": [],
      "name": "honeyjarInterestClaim",
      "outputs": [],
      "stateMutability": "nonpayable",
      "type": "function"
    },
    {
      "inputs": [
        {
          "internalType": "address",
          "name": "user",
          "type": "address"
        },
        {
          "internalType": "uint256",
          "name": "userLoanId",
          "type": "uint256"
        }
      ],
      "name": "liquidate",
      "outputs": [],
      "stateMutability": "nonpayable",
      "type": "function"
    },
    {
      "inputs": [
        {
          "internalType": "address",
          "name": "",
          "type": "address"
        },
        {
          "internalType": "uint256",
          "name": "",
          "type": "uint256"
        }
      ],
      "name": "loans",
      "outputs": [
        {
          "internalType": "uint256",
          "name": "borrowedAmount",
          "type": "uint256"
        },
        {
          "internalType": "uint256",
          "name": "interest",
          "type": "uint256"
        },
        {
          "internalType": "uint256",
          "name": "duration",
          "type": "uint256"
        },
        {
          "internalType": "uint256",
          "name": "endDate",
          "type": "uint256"
        },
        {
          "internalType": "uint256",
          "name": "loanId",
          "type": "uint256"
        },
        {
          "internalType": "bool",
          "name": "liquidated",
          "type": "bool"
        }
      ],
      "stateMutability": "view",
      "type": "function"
    },
    {
      "inputs": [
        {
          "internalType": "uint256",
          "name": "lockAmount",
          "type": "uint256"
        }
      ],
      "name": "lock",
      "outputs": [],
      "stateMutability": "nonpayable",
      "type": "function"
    },
    {
      "inputs": [
        {
          "internalType": "address",
          "name": "user",
          "type": "address"
        }
      ],
      "name": "lookupBoost",
      "outputs": [
        {
          "components": [
            {
              "internalType": "address[]",
              "name": "partnerNFTs",
              "type": "address[]"
            },
            {
              "internalType": "uint256[]",
              "name": "partnerNFTIds",
              "type": "uint256[]"
            },
            {
              "internalType": "uint256",
              "name": "expiry",
              "type": "uint256"
            },
            {
              "internalType": "uint256",
              "name": "boostMagnitude",
              "type": "uint256"
            }
          ],
          "internalType": "struct Goldilend.Boost",
          "name": "userBoost",
          "type": "tuple"
        }
      ],
      "stateMutability": "view",
      "type": "function"
    },
    {
      "inputs": [
        {
          "internalType": "address",
          "name": "user",
          "type": "address"
        },
        {
          "internalType": "uint256",
          "name": "userLoanId",
          "type": "uint256"
        }
      ],
      "name": "lookupLoan",
      "outputs": [
        {
          "components": [
            {
              "internalType": "address[]",
              "name": "collateralNFTs",
              "type": "address[]"
            },
            {
              "internalType": "uint256[]",
              "name": "collateralNFTIds",
              "type": "uint256[]"
            },
            {
              "internalType": "uint256",
              "name": "borrowedAmount",
              "type": "uint256"
            },
            {
              "internalType": "uint256",
              "name": "interest",
              "type": "uint256"
            },
            {
              "internalType": "uint256",
              "name": "duration",
              "type": "uint256"
            },
            {
              "internalType": "uint256",
              "name": "endDate",
              "type": "uint256"
            },
            {
              "internalType": "uint256",
              "name": "loanId",
              "type": "uint256"
            },
            {
              "internalType": "bool",
              "name": "liquidated",
              "type": "bool"
            }
          ],
          "internalType": "struct Goldilend.Loan",
          "name": "loan",
          "type": "tuple"
        }
      ],
      "stateMutability": "view",
      "type": "function"
    },
    {
      "inputs": [
        {
          "internalType": "address",
          "name": "user",
          "type": "address"
        }
      ],
      "name": "lookupLoans",
      "outputs": [
        {
          "components": [
            {
              "internalType": "address[]",
              "name": "collateralNFTs",
              "type": "address[]"
            },
            {
              "internalType": "uint256[]",
              "name": "collateralNFTIds",
              "type": "uint256[]"
            },
            {
              "internalType": "uint256",
              "name": "borrowedAmount",
              "type": "uint256"
            },
            {
              "internalType": "uint256",
              "name": "interest",
              "type": "uint256"
            },
            {
              "internalType": "uint256",
              "name": "duration",
              "type": "uint256"
            },
            {
              "internalType": "uint256",
              "name": "endDate",
              "type": "uint256"
            },
            {
              "internalType": "uint256",
              "name": "loanId",
              "type": "uint256"
            },
            {
              "internalType": "bool",
              "name": "liquidated",
              "type": "bool"
            }
          ],
          "internalType": "struct Goldilend.Loan[]",
          "name": "userLoans",
          "type": "tuple[]"
        }
      ],
      "stateMutability": "view",
      "type": "function"
    },
    {
      "inputs": [],
      "name": "multisig",
      "outputs": [
        {
          "internalType": "address",
          "name": "",
          "type": "address"
        }
      ],
      "stateMutability": "view",
      "type": "function"
    },
    {
      "inputs": [],
      "name": "multisigClaims",
      "outputs": [
        {
          "internalType": "uint256",
          "name": "",
          "type": "uint256"
        }
      ],
      "stateMutability": "view",
      "type": "function"
    },
    {
      "inputs": [],
      "name": "multisigInterestClaim",
      "outputs": [],
      "stateMutability": "nonpayable",
      "type": "function"
    },
    {
      "inputs": [],
      "name": "name",
      "outputs": [
        {
          "internalType": "string",
          "name": "",
          "type": "string"
        }
      ],
      "stateMutability": "pure",
      "type": "function"
    },
    {
      "inputs": [
        {
          "internalType": "address",
          "name": "",
          "type": "address"
        }
      ],
      "name": "nftFairValues",
      "outputs": [
        {
          "internalType": "uint256",
          "name": "",
          "type": "uint256"
        }
      ],
      "stateMutability": "view",
      "type": "function"
    },
    {
      "inputs": [
        {
          "internalType": "address",
          "name": "owner",
          "type": "address"
        }
      ],
      "name": "nonces",
      "outputs": [
        {
          "internalType": "uint256",
          "name": "result",
          "type": "uint256"
        }
      ],
      "stateMutability": "view",
      "type": "function"
    },
    {
      "inputs": [
        {
          "internalType": "address",
          "name": "",
          "type": "address"
        },
        {
          "internalType": "address",
          "name": "",
          "type": "address"
        },
        {
          "internalType": "uint256",
          "name": "",
          "type": "uint256"
        },
        {
          "internalType": "bytes",
          "name": "",
          "type": "bytes"
        }
      ],
      "name": "onERC721Received",
      "outputs": [
        {
          "internalType": "bytes4",
          "name": "",
          "type": "bytes4"
        }
      ],
      "stateMutability": "nonpayable",
      "type": "function"
    },
    {
      "inputs": [],
      "name": "outstandingDebt",
      "outputs": [
        {
          "internalType": "uint256",
          "name": "",
          "type": "uint256"
        }
      ],
      "stateMutability": "view",
      "type": "function"
    },
    {
      "inputs": [
        {
          "internalType": "address",
          "name": "",
          "type": "address"
        }
      ],
      "name": "partnerNFTBoosts",
      "outputs": [
        {
          "internalType": "uint8",
          "name": "",
          "type": "uint8"
        }
      ],
      "stateMutability": "view",
      "type": "function"
    },
    {
      "inputs": [
        {
          "internalType": "address",
          "name": "owner",
          "type": "address"
        },
        {
          "internalType": "address",
          "name": "spender",
          "type": "address"
        },
        {
          "internalType": "uint256",
          "name": "value",
          "type": "uint256"
        },
        {
          "internalType": "uint256",
          "name": "deadline",
          "type": "uint256"
        },
        {
          "internalType": "uint8",
          "name": "v",
          "type": "uint8"
        },
        {
          "internalType": "bytes32",
          "name": "r",
          "type": "bytes32"
        },
        {
          "internalType": "bytes32",
          "name": "s",
          "type": "bytes32"
        }
      ],
      "name": "permit",
      "outputs": [],
      "stateMutability": "nonpayable",
      "type": "function"
    },
    {
      "inputs": [],
      "name": "poolSize",
      "outputs": [
        {
          "internalType": "uint256",
          "name": "",
          "type": "uint256"
        }
      ],
      "stateMutability": "view",
      "type": "function"
    },
    {
      "inputs": [],
      "name": "porridge",
      "outputs": [
        {
          "internalType": "address",
          "name": "",
          "type": "address"
        }
      ],
      "stateMutability": "view",
      "type": "function"
    },
    {
      "inputs": [],
      "name": "porridgeMultiple",
      "outputs": [
        {
          "internalType": "uint256",
          "name": "",
          "type": "uint256"
        }
      ],
      "stateMutability": "view",
      "type": "function"
    },
    {
      "inputs": [],
      "name": "protocolInterestRate",
      "outputs": [
        {
          "internalType": "uint256",
          "name": "",
          "type": "uint256"
        }
      ],
      "stateMutability": "view",
      "type": "function"
    },
    {
      "inputs": [
        {
          "internalType": "uint256",
          "name": "repayAmount",
          "type": "uint256"
        },
        {
          "internalType": "uint256",
          "name": "userLoanId",
          "type": "uint256"
        }
      ],
      "name": "repay",
      "outputs": [],
      "stateMutability": "nonpayable",
      "type": "function"
    },
    {
      "inputs": [
        {
          "internalType": "address",
          "name": "_multisig",
          "type": "address"
        }
      ],
      "name": "setMultisig",
      "outputs": [],
      "stateMutability": "nonpayable",
      "type": "function"
    },
    {
      "inputs": [
        {
          "internalType": "uint256",
          "name": "_protocolInterestRate",
          "type": "uint256"
        }
      ],
      "name": "setProtocolInterestRate",
      "outputs": [],
      "stateMutability": "nonpayable",
      "type": "function"
    },
    {
      "inputs": [
        {
          "internalType": "uint256",
          "name": "_totalValuation",
          "type": "uint256"
        },
        {
          "internalType": "address[]",
          "name": "_nfts",
          "type": "address[]"
        },
        {
          "internalType": "uint256[]",
          "name": "_nftFairValues",
          "type": "uint256[]"
        }
      ],
      "name": "setValue",
      "outputs": [],
      "stateMutability": "nonpayable",
      "type": "function"
    },
    {
      "inputs": [
        {
          "internalType": "uint256",
          "name": "stakeAmount",
          "type": "uint256"
        }
      ],
      "name": "stake",
      "outputs": [],
      "stateMutability": "nonpayable",
      "type": "function"
    },
    {
      "inputs": [
        {
          "internalType": "address",
          "name": "",
          "type": "address"
        }
      ],
      "name": "stakes",
      "outputs": [
        {
          "internalType": "uint256",
          "name": "lastClaim",
          "type": "uint256"
        },
        {
          "internalType": "uint256",
          "name": "stakedBalance",
          "type": "uint256"
        }
      ],
      "stateMutability": "view",
      "type": "function"
    },
    {
      "inputs": [],
      "name": "symbol",
      "outputs": [
        {
          "internalType": "string",
          "name": "",
          "type": "string"
        }
      ],
      "stateMutability": "pure",
      "type": "function"
    },
    {
      "inputs": [],
      "name": "totalSupply",
      "outputs": [
        {
          "internalType": "uint256",
          "name": "result",
          "type": "uint256"
        }
      ],
      "stateMutability": "view",
      "type": "function"
    },
    {
      "inputs": [],
      "name": "totalValuation",
      "outputs": [
        {
          "internalType": "uint256",
          "name": "",
          "type": "uint256"
        }
      ],
      "stateMutability": "view",
      "type": "function"
    },
    {
      "inputs": [
        {
          "internalType": "address",
          "name": "to",
          "type": "address"
        },
        {
          "internalType": "uint256",
          "name": "amount",
          "type": "uint256"
        }
      ],
      "name": "transfer",
      "outputs": [
        {
          "internalType": "bool",
          "name": "",
          "type": "bool"
        }
      ],
      "stateMutability": "nonpayable",
      "type": "function"
    },
    {
      "inputs": [
        {
          "internalType": "address",
          "name": "from",
          "type": "address"
        },
        {
          "internalType": "address",
          "name": "to",
          "type": "address"
        },
        {
          "internalType": "uint256",
          "name": "amount",
          "type": "uint256"
        }
      ],
      "name": "transferFrom",
      "outputs": [
        {
          "internalType": "bool",
          "name": "",
          "type": "bool"
        }
      ],
      "stateMutability": "nonpayable",
      "type": "function"
    },
    {
      "inputs": [
        {
          "internalType": "uint256",
          "name": "unstakeAmount",
          "type": "uint256"
        }
      ],
      "name": "unstake",
      "outputs": [],
      "stateMutability": "nonpayable",
      "type": "function"
    },
    {
      "inputs": [],
      "name": "vault",
      "outputs": [
        {
          "internalType": "address",
          "name": "",
          "type": "address"
        }
      ],
      "stateMutability": "view",
      "type": "function"
    },
    {
      "inputs": [],
      "name": "withdrawBoost",
      "outputs": [],
      "stateMutability": "nonpayable",
      "type": "function"
    }
  ],
  "bytecode": {
    "object": "0x608060405234801562000010575f80fd5b50604051620044f3380380620044f38339810160408190526200003391620002b5565b600e8a9055600c899055600f8890555f80546001600160a01b03199081166001600160a01b038a81169190911783556001805483168a83161790556002805483168983161790556003805483168883161790556004805490921690861617905542600a555b82518160ff1610156200013457818160ff1681518110620000bd57620000bd62000394565b602002602001015160085f858460ff1681518110620000e057620000e062000394565b60200260200101516001600160a01b03166001600160a01b031681526020019081526020015f205f6101000a81548160ff021916908360ff16021790555080806200012b90620003a8565b91505062000098565b5050505050505050505050620003d3565b80516001600160a01b03811681146200015c575f80fd5b919050565b634e487b7160e01b5f52604160045260245ffd5b604051601f8201601f191681016001600160401b0381118282101715620001a057620001a062000161565b604052919050565b5f6001600160401b03821115620001c357620001c362000161565b5060051b60200190565b5f82601f830112620001dd575f80fd5b81516020620001f6620001f083620001a8565b62000175565b82815260059290921b8401810191818101908684111562000215575f80fd5b8286015b848110156200023b576200022d8162000145565b835291830191830162000219565b509695505050505050565b5f82601f83011262000256575f80fd5b8151602062000269620001f083620001a8565b82815260059290921b8401810191818101908684111562000288575f80fd5b8286015b848110156200023b57805160ff81168114620002a7575f8081fd5b83529183019183016200028c565b5f805f805f805f805f806101408b8d031215620002d0575f80fd5b8a51995060208b0151985060408b01519750620002f060608c0162000145565b96506200030060808c0162000145565b95506200031060a08c0162000145565b94506200032060c08c0162000145565b93506200033060e08c0162000145565b6101008c01519093506001600160401b03808211156200034e575f80fd5b6200035c8e838f01620001cd565b93506101208d015191508082111562000373575f80fd5b50620003828d828e0162000246565b9150509295989b9194979a5092959850565b634e487b7160e01b5f52603260045260245ffd5b5f60ff821660ff8103620003ca57634e487b7160e01b5f52601160045260245ffd5b60010192915050565b61411280620003e15f395ff3fe608060405234801561000f575f80fd5b5060043610610392575f3560e01c80637ad3c566116101df578063a9059cbb11610109578063db2e21bc116100a9578063f3283fba11610079578063f3283fba1461084d578063fbfa77cf14610860578063fc3b72b114610873578063fdabc9861461087c575f80fd5b8063db2e21bc146107ea578063dd467064146107f2578063dd62ed3e14610805578063eac293011461082d575f80fd5b8063ba579c74116100e4578063ba579c74146107a9578063bcbaf487146107b1578063d505accf146107c4578063d8aed145146107d7575f80fd5b8063a9059cbb1461077b578063b38dadf71461078e578063ba30f48c14610796575f80fd5b8063955def1c1161017f578063a2114cdb1161014f578063a2114cdb1461072f578063a3637f1614610742578063a583024b14610755578063a694fc3a14610768575f80fd5b8063955def1c146106a657806395d89b41146106b957806397dae1fc146106da57806398c61c37146106ed575f80fd5b806386f7521d116101ba57806386f7521d1461067857806387c322021461068b5780638fbcd65114610693578063903d78fb1461069c575f80fd5b80637ad3c5661461062a5780637ecebe001461064a578063822782ac1461066f575f80fd5b80632cf711a1116102c057806352f0e01a116102605780636ea12931116102305780636ea12931146105d657806370a08231146105e957806373e6e7ab1461060e57806373feac2a14610621575f80fd5b806352f0e01a146105795780635a7322a71461058c5780636090dec2146105ae5780636324e780146105b6575f80fd5b80633644e5151161029b5780633644e5151461054d5780634783c35b146105555780634e71d92d146105685780634ec18db914610570575f80fd5b80632cf711a1146104fb5780632e17de7814610525578063313ce56714610538575f80fd5b806316934fc411610336578063222cda5811610306578063222cda58146104c457806323b872dd146104cc57806326831303146104df578063295b9300146104f2575f80fd5b806316934fc41461045257806316d3bfbb1461048d57806318160ddd146104aa57806320a0095c146104ba575f80fd5b8063095ea7b311610371578063095ea7b3146103cf5780630ea6eed6146103f2578063150b7a02146103fb578063164b348b14610433575f80fd5b8062ccb5001461039657806306f94a0d146103b157806306fdde03146103ba575b5f80fd5b61039e6108a5565b6040519081526020015b60405180910390f35b61039e600d5481565b6103c26108b3565b6040516103a8919061395a565b6103e26103dd3660046139c0565b6108d8565b60405190151581526020016103a8565b61039e60105481565b61041a6104093660046139e8565b630a85bd0160e11b95945050505050565b6040516001600160e01b031990911681526020016103a8565b61039e610441366004613a7b565b60096020525f908152604090205481565b610478610460366004613a7b565b60066020525f90815260409020805460019091015482565b604080519283526020830191909152016103a8565b610495610928565b60405163ffffffff90911681526020016103a8565b6805345cdf77eb68f44c5461039e565b6104c2610944565b005b6104c2610997565b6103e26104da366004613a94565b610bfa565b6104c26104ed366004613b0e565b610cb4565b61039e600b5481565b5f5461050d906001600160a01b031681565b6040516001600160a01b0390911681526020016103a8565b6104c2610533366004613b82565b610d64565b60125b60405160ff90911681526020016103a8565b61039e610df1565b60015461050d906001600160a01b031681565b6104c2610e6d565b61039e600e5481565b6104c2610587366004613b99565b610e88565b61053b61059a366004613a7b565b60086020525f908152604090205460ff1681565b6104c26113de565b6105c96105c4366004613a7b565b61142e565b6040516103a89190613d00565b60035461050d906001600160a01b031681565b61039e6105f7366004613a7b565b6387a211a2600c9081525f91909152602090205490565b60025461050d906001600160a01b031681565b61039e600a5481565b61063d610638366004613a7b565b61159d565b6040516103a89190613d60565b61039e610658366004613a7b565b6338377508600c9081525f91909152602090205490565b61039e600f5481565b6104c2610686366004613b82565b6116b1565b610495611734565b61039e60115481565b6104956201518081565b6104c26106b4366004613b82565b611742565b604080518082019091526005815264674245524160d81b60208201526103c2565b6104c26106e8366004613db9565b611772565b6107006106fb3660046139c0565b611c48565b6040805196875260208701959095529385019290925260608401526080830152151560a082015260c0016103a8565b6104c261073d366004613df3565b611c9e565b6104c2610750366004613e23565b611dd8565b61039e610763366004613a7b565b611fea565b6104c2610776366004613b82565b612024565b6103e26107893660046139c0565b6120d9565b610495612150565b61039e6107a4366004613e91565b61215e565b610495612170565b6104c26107bf3660046139c0565b612189565b6104c26107d2366004613ed0565b6123e7565b6104c26107e5366004613f3d565b612569565b6104c2612809565b6104c2610800366004613b82565b612862565b61039e610813366004613f5d565b602052637f5e9f20600c9081525f91909152603490205490565b61084061083b3660046139c0565b6128e3565b6040516103a89190613f8e565b6104c261085b366004613a7b565b6128fd565b60045461050d906001600160a01b031681565b61039e600c5481565b61047861088a366004613a7b565b60056020525f90815260409020600281015460039091015482565b5f6108ae61294a565b905090565b60408051808201909152600b81526a33a122a920902a37b5b2b760a91b602082015290565b5f82602052637f5e9f20600c52335f52816034600c2055815f52602c5160601c337f8c5be1e5ebec7d5bd14f71427d1e84f3dd0314c0f7b2291e5b200ac8c7c3b92560205fa35060015b92915050565b61093662015180601e613fb4565b61094190600c613fb4565b81565b6002546001600160a01b0316331461096f576040516310f6cbdb60e01b815260040160405180910390fd5b601180545f909155600354600254610994916001600160a01b03908116911683612967565b50565b335f9081526005602090815260408083208151815460a094810282018501909352608081018381529093919284928491908401828280156109ff57602002820191905f5260205f20905b81546001600160a01b031681526001909101906020018083116109e1575b5050505050815260200160018201805480602002602001604051908101604052809291908181526020018280548015610a5557602002820191905f5260205f20905b815481526020019060010190808311610a41575b5050505050815260200160028201548152602001600382015481525050905080604001515f03610a985760405163726180c360e11b815260040160405180910390fd5b4281604001511115610abd5760405163f2299d8160e01b815260040160405180910390fd5b60408051608081018252606080825260208083018290525f8385018190528383018190523381526005825293909320825180519294859493849392610b06928492910190613869565b506020828101518051610b1f92600185019201906138cc565b50604082015160028201556060909101516003909101555f5b84515160ff82161015610bf3578451805160ff8316908110610b5c57610b5c613fdc565b60200260200101516001600160a01b03166342842e0e303388602001518560ff1681518110610b8d57610b8d613fdc565b60200260200101516040518463ffffffff1660e01b8152600401610bb393929190613ff0565b5f604051808303815f87803b158015610bca575f80fd5b505af1158015610bdc573d5f803e3d5ffd5b505050508080610beb90614014565b915050610b38565b5050505050565b5f8360601b33602052637f5e9f208117600c526034600c2080546001810115610c385780851115610c32576313be252b5f526004601cfd5b84810382555b50506387a211a28117600c526020600c20805480851115610c605763f4d678b85f526004601cfd5b84810382555050835f526020600c208381540181555082602052600c5160601c8160601c7fddf252ad1be2c89b69c2b068fc378daa952ba7f163c4a11628f55a4df523b3ef602080a3505060019392505050565b6001546001600160a01b03163314610cdf5760405163f05e412b60e01b815260040160405180910390fd5b600b8590555f5b81811015610d5c57828282818110610d0057610d00613fdc565b9050602002013560095f878785818110610d1c57610d1c613fdc565b9050602002016020810190610d319190613a7b565b6001600160a01b0316815260208101919091526040015f205580610d5481614032565b915050610ce6565b505050505050565b335f9081526006602052604090206001015481811015610d97576040516305019ec560e31b815260040160405180910390fd5b5f60405180604001604052804281526020018484610db5919061404a565b90529050610dc16129a7565b335f8181526006602090815260409091208351815590830151600190910155610dec90309085612967565b505050565b5f80610dfb6108b3565b8051906020012090506040517f8b73c3c69bb8fe3d512ecc4cf759cc79239f7b179b0ffacaa9a75d522b39400f81528160208201527fc89efdaa54c0f20c7adf612882df0950f5a951637e0307cdcb4c672f298b8bc6604082015246606082015230608082015260a081209250505090565b610e756129a7565b335f908152600660205260409020429055565b83835f5b81811015610f0f5760095f848484818110610ea957610ea9613fdc565b9050602002016020810190610ebe9190613a7b565b6001600160a01b03166001600160a01b031681526020019081526020015f20545f03610efd576040516368f7a67560e11b815260040160405180910390fd5b80610f0781614032565b915050610e8c565b50610f1e62015180600e613fb4565b63ffffffff16871080610f4e5750610f3a62015180601e613fb4565b610f4590600c613fb4565b63ffffffff1687115b15610f6c57604051637616640160e01b815260040160405180910390fd5b600a600e54610f7b919061405d565b881115610f9b57604051635697666160e01b815260040160405180910390fd5b848314610fbb5760405163b7c1140d60e01b815260040160405180910390fd5b5f610fc68787612a49565b600d54909150818a1180610fe6575080600e54610fe3919061404a565b8a115b1561100457604051632eb0ae9960e11b815260040160405180910390fd5b5f6110108b838c612adc565b335f9081526005602090815260408083208151815460a09481028201850190935260808101838152959650939490928492849184018282801561107a57602002820191905f5260205f20905b81546001600160a01b0316815260019091019060200180831161105c575b50505050508152602001600182018054806020026020016040519081016040528092919081815260200182805480156110d057602002820191905f5260205f20905b8154815260200190600101908083116110bc575b50505091835250506002820154602082015260039091015460409091015290506110fa8b4261407c565b8160400151111561114157606081015160329081111561112757606082015161112490606461404a565b90505b8061113360648561405d565b61113d919061408f565b9250505b61114b8c8461407c565b600d556040805161012060208c02808301820190935261010082018c81525f9383928f918f918291908601908490808284375f920191909152505050908252506040805160208c810282810182019093528c82529283019290918d918d9182918501908490808284375f81840152601f19601f820116905080830192505050505050508152602001848f6111df919061407c565b81526020018481526020018d81526020018d426111fc919061407c565b8152335f9081526007602090815260409091205491019061121e90600161407c565b81525f6020918201819052338152600782526040812080546001810182559082529082902083518051949550859460089093029091019261126492849290910190613869565b50602082810151805161127d92600185019201906138cc565b5060408201516002820155606082015160038201556080820151600482015560a0820151600582015560c0820151600682015560e0909101516007909101805460ff19169115159190911790555f5b8a811015611382578b8b828181106112e6576112e6613fdc565b90506020020160208101906112fb9190613a7b565b6001600160a01b03166342842e0e33308d8d8681811061131d5761131d613fdc565b905060200201356040518463ffffffff1660e01b815260040161134293929190613ff0565b5f604051808303815f87803b158015611359575f80fd5b505af115801561136b573d5f803e3d5ffd5b50505050808061137a90614032565b9150506112cc565b5060035461139a906001600160a01b0316338f612967565b6040518d815233907fcbc04eca7e9da35cb1393a6135a199ca52e450d5e9251cbd99f7847d33a367509060200160405180910390a250505050505050505050505050565b6001546001600160a01b031633146114095760405163f05e412b60e01b815260040160405180910390fd5b601080545f909155600354600154610994916001600160a01b03908116911683612967565b6001600160a01b0381165f908152600760209081526040808320805482518185028101850190935280835260609492939192909184015b82821015611592578382905f5260205f209060080201604051806101000160405290815f82018054806020026020016040519081016040528092919081815260200182805480156114dd57602002820191905f5260205f20905b81546001600160a01b031681526001909101906020018083116114bf575b505050505081526020016001820180548060200260200160405190810160405280929190818152602001828054801561153357602002820191905f5260205f20905b81548152602001906001019080831161151f575b50505091835250506002820154602080830191909152600383015460408301526004830154606083015260058301546080830152600683015460a083015260079092015460ff16151560c0909101529082526001929092019101611465565b505050509050919050565b6115c6604051806080016040528060608152602001606081526020015f81526020015f81525090565b6001600160a01b0382165f908152600560209081526040918290208251815460a09381028201840190945260808101848152909391928492849184018282801561163757602002820191905f5260205f20905b81546001600160a01b03168152600190910190602001808311611619575b505050505081526020016001820180548060200260200160405190810160405280929190818152602001828054801561168d57602002820191905f5260205f20905b815481526020019060010190808311611679575b50505050508152602001600282015481526020016003820154815250509050919050565b335f9081526005602052604081206002015490036116e25760405163726180c360e11b815260040160405180910390fd5b6116f062015180601e613fb4565b6117009063ffffffff164261407c565b81101561172057604051637616640160e01b815260040160405180910390fd5b335f90815260056020526040902060020155565b61094162015180601e613fb4565b6001546001600160a01b0316331461176d5760405163f05e412b60e01b815260040160405180910390fd5b600c55565b61178062015180600e613fb4565b63ffffffff168310806117b0575061179c62015180601e613fb4565b6117a790600c613fb4565b63ffffffff1683115b156117ce57604051637616640160e01b815260040160405180910390fd5b600a600e546117dd919061405d565b8411156117fd57604051635697666160e01b815260040160405180910390fd5b6001600160a01b0382165f908152600960205260408120549003611834576040516368f7a67560e11b815260040160405180910390fd5b600b546001600160a01b0383165f90815260096020526040812054909160649161185e919061408f565b611868919061405d565b600d5490915081861180611888575080600e54611885919061404a565b86115b156118a657604051632eb0ae9960e11b815260040160405180910390fd5b5f6118b2878388612adc565b335f9081526005602090815260408083208151815460a09481028201850190935260808101838152959650939490928492849184018282801561191c57602002820191905f5260205f20905b81546001600160a01b031681526001909101906020018083116118fe575b505050505081526020016001820180548060200260200160405190810160405280929190818152602001828054801561197257602002820191905f5260205f20905b81548152602001906001019080831161195e575b505050918352505060028201546020820152600390910154604090910152905061199c874261407c565b816040015111156119e35760608101516032908111156119c95760608201516119c690606461404a565b90505b806119d560648561405d565b6119df919061408f565b9250505b6119ed888461407c565b600d556040805160018082528183019092525f916020808301908036833701905050905086815f81518110611a2457611a24613fdc565b6001600160a01b0392909216602092830291909101909101526040805160018082528183019092525f9181602001602082028036833701905050905086815f81518110611a7357611a73613fdc565b6020026020010181815250505f604051806101000160405280848152602001838152602001868d611aa4919061407c565b81526020018681526020018b81526020018b42611ac1919061407c565b8152335f90815260076020908152604090912054910190611ae390600161407c565b81525f60209182018190523381526007825260408120805460018101825590825290829020835180519495508594600890930290910192611b2992849290910190613869565b506020828101518051611b4292600185019201906138cc565b50604082810151600283015560608301516003830155608083015160048084019190915560a0840151600584015560c0840151600684015560e0909301516007909201805460ff19169215159290921790915551632142170760e11b81526001600160a01b038b16916342842e0e91611bc191339130918e9101613ff0565b5f604051808303815f87803b158015611bd8575f80fd5b505af1158015611bea573d5f803e3d5ffd5b5050600354611c0692506001600160a01b03169050338d612967565b6040518b815233907fcbc04eca7e9da35cb1393a6135a199ca52e450d5e9251cbd99f7847d33a367509060200160405180910390a25050505050505050505050565b6007602052815f5260405f208181548110611c61575f80fd5b5f91825260209091206008909102016002810154600382015460048301546005840154600685015460079095015493965091945092909160ff1686565b611cac62015180601e613fb4565b611cbc9063ffffffff164261407c565b811015611cdc57604051637616640160e01b815260040160405180910390fd5b6001600160a01b0383165f9081526008602052604081205460ff169003611d16576040516338646c5360e01b815260040160405180910390fd5b611d21838383612b77565b335f908152600560209081526040909120825180519192611d4792849290910190613869565b506020828101518051611d6092600185019201906138cc565b50604082810151600283015560609092015160039091015551632142170760e11b81526001600160a01b038416906342842e0e90611da690339030908790600401613ff0565b5f604051808303815f87803b158015611dbd575f80fd5b505af1158015611dcf573d5f803e3d5ffd5b50505050505050565b84845f5b81811015611e5d5760085f848484818110611df957611df9613fdc565b9050602002016020810190611e0e9190613a7b565b6001600160a01b0316815260208101919091526040015f9081205460ff169003611e4b576040516338646c5360e01b815260040160405180910390fd5b80611e5581614032565b915050611ddc565b50611e6c62015180601e613fb4565b611e7c9063ffffffff164261407c565b831015611e9c57604051637616640160e01b815260040160405180910390fd5b858414611ebc5760405163b7c1140d60e01b815260040160405180910390fd5b611ec98787878787612dd5565b335f908152600560209081526040909120825180519192611eef92849290910190613869565b506020828101518051611f0892600185019201906138cc565b50604082015160028201556060909101516003909101555f5b60ff8116871115611fe05787878260ff16818110611f4157611f41613fdc565b9050602002016020810190611f569190613a7b565b6001600160a01b03166342842e0e333089898660ff16818110611f7b57611f7b613fdc565b905060200201356040518463ffffffff1660e01b8152600401611fa093929190613ff0565b5f604051808303815f87803b158015611fb7575f80fd5b505af1158015611fc9573d5f803e3d5ffd5b505050508080611fd890614014565b915050611f21565b5050505050505050565b6001600160a01b0381165f9081526006602090815260408083208151808301909252805482526001015491810191909152610922906130ee565b335f9081526006602052604090205415612040576120406129a7565b604080518082018252428152335f9081526006602090815292812060010154909282019061206f90859061407c565b9052335f81815260066020908152604090912083518155908301516001909101559091506120a090309081856132ab565b60405182815233907fe699aa72122ae0e7f00e63c8fe6271cf1aa90defd9f5c492cef4125a31db9b2c9060200160405180910390a25050565b5f6387a211a2600c52335f526020600c208054808411156121015763f4d678b85f526004601cfd5b83810382555050825f526020600c208281540181555081602052600c5160601c337fddf252ad1be2c89b69c2b068fc378daa952ba7f163c4a11628f55a4df523b3ef602080a350600192915050565b61094162015180600e613fb4565b5f6121698383612a49565b9392505050565b61217e62015180601e613fb4565b610941906006613fb4565b5f8061219584846132fa565b915091508160a001514210806121ac57508160e001515b156121ca576040516313d9479960e01b815260040160405180910390fd5b6001600160a01b0384165f908152600760205260409020805460019190839081106121f7576121f7613fdc565b5f918252602080832060076008909302018201805494151560ff19909516949094179093556001600160a01b03871682529091526040812080548390811061224157612241613fdc565b905f5260205f2090600802016002018190555060648260600151612265919061405d565b61227090605f61408f565b600e5f828254612280919061407c565b909155505060608201516040830151612299919061404a565b600d5f8282546122a9919061404a565b909155505f90505b8251518110156123635782518051829081106122cf576122cf613fdc565b60200260200101516001600160a01b03166342842e0e3033866020015185815181106122fd576122fd613fdc565b60200260200101516040518463ffffffff1660e01b815260040161232393929190613ff0565b5f604051808303815f87803b15801561233a575f80fd5b505af115801561234c573d5f803e3d5ffd5b50505050808061235b90614032565b9150506122b1565b5061237182606001516134df565b6003546040830151612390916001600160a01b031690339030906132ab565b836001600160a01b0316336001600160a01b03167fb6ed19cdf32fe732da504f7525ffbec01e43cf56a407bdcda3ab1120d756a25984604001516040516123d991815260200190565b60405180910390a350505050565b5f6123f06108b3565b8051906020012090508442111561240e57631a15a3cc5f526004601cfd5b6040518860601b60601c98508760601b60601c975065383775081901600e52885f526020600c2080547f8b73c3c69bb8fe3d512ecc4cf759cc79239f7b179b0ffacaa9a75d522b39400f83528360208401527fc89efdaa54c0f20c7adf612882df0950f5a951637e0307cdcb4c672f298b8bc6604084015246606084015230608084015260a08320602e527f6e71edae12b1b97f4d1f60370fef10105fa2faae0126114a169c64845d6126c983528a60208401528960408401528860608401528060808401528760a084015260c08320604e526042602c205f528660ff16602052856040528460605260208060805f60015afa8b3d51146125165763ddafbaef5f526004601cfd5b0190556303faf4f960a51b88176040526034602c2087905587897f8c5be1e5ebec7d5bd14f71427d1e84f3dd0314c0f7b2291e5b200ac8c7c3b925602060608501a360405250505f606052505050505050565b5f8061257533846132fa565b91509150838260400151101561259e57604051637bc3c3ef60e01b815260040160405180910390fd5b8160a001514211156125c357604051632ee48ce560e11b815260040160405180910390fd5b606082015160408301515f916125e3916125de90829061404a565b61353b565b90505f6125ff8460600151876125f9919061404a565b83613588565b905061260b818761404a565b600d5f82825461261b919061404a565b9091555050335f90815260076020526040902080548791908590811061264357612643613fdc565b905f5260205f2090600802016002015f828254612660919061404a565b9091555050335f90815260076020526040902080548291908590811061268857612688613fdc565b905f5260205f2090600802016003015f8282546126a5919061404a565b909155506126b6905060648261405d565b6126c190605f61408f565b600e5f8282546126d1919061407c565b909155505060408401516126e690879061404a565b5f036127a2575f5b8451518110156127a057845180518290811061270c5761270c613fdc565b60200260200101516001600160a01b03166342842e0e30338860200151858151811061273a5761273a613fdc565b60200260200101516040518463ffffffff1660e01b815260040161276093929190613ff0565b5f604051808303815f87803b158015612777575f80fd5b505af1158015612789573d5f803e3d5ffd5b50505050808061279890614032565b9150506126ee565b505b6127ab866135b3565b6127b4816134df565b6003546127cc906001600160a01b03163330896132ab565b60405186815233907f5c16de4f8b59bd9caf0f49a545f25819a895ed223294290b408242e72a5942319060200160405180910390a2505050505050565b6001546001600160a01b031633146128345760405163f05e412b60e01b815260040160405180910390fd5b600354600154600d54600e54612860936001600160a01b0390811693169161285b9161404a565b612967565b565b80600e5f828254612873919061407c565b9091555050600354612890906001600160a01b03163330846132ab565b612899816135b3565b6128ab336128a6836136b8565b6136eb565b60405181815233907f2f71cce35bad4d80643e7a2541a85230d63b36cbab8523285111013a3db54d409060200160405180910390a250565b6128eb613905565b6128f583836132fa565b509392505050565b6001546001600160a01b031633146129285760405163f05e412b60e01b815260040160405180910390fd5b600180546001600160a01b0319166001600160a01b0392909216919091179055565b5f6108ae61295f6805345cdf77eb68f44c5490565b600e5461353b565b816014528060345263a9059cbb60601b5f5260205f604460105f875af13d1560015f5114171661299e576390b8ec185f526004601cfd5b5f603452505050565b335f9081526006602090815260408083208151808301909252805482526001015491810191909152906129d9826130ee565b335f818152600660205260408082204290559054905163714b00c360e01b81526004810192909252602482018390529192506001600160a01b039091169063714b00c3906044015f604051808303815f87803b158015612a37575f80fd5b505af1158015610d5c573d5f803e3d5ffd5b5f805b82811015612ad55760095f858584818110612a6957612a69613fdc565b9050602002016020810190612a7e9190613a7b565b6001600160a01b03166001600160a01b031681526020019081526020015f20546064600b54612aad919061405d565b612ab7919061408f565b612ac1908361407c565b915080612acd81614032565b915050612a4c565b5092915050565b600c545f9081612aef61295f878761407c565b612b01906706f05b59d3b2000061407c565b90505f612b41612b1284600a61408f565b612b3c848189612b2662015180601e613fb4565b612b3190600c613fb4565b63ffffffff1661353b565b613588565b612b4b908461407c565b9050612b6c612b5a8289613588565b612b3c87612b2662015180601e613fb4565b979650505050505050565b612ba0604051806080016040528060608152602001606081526020015f81526020015f81525090565b335f90815260056020526040812060028101548203612c91576001600160a01b0386165f90815260086020526040808220548151600180825281840190935260ff90911694509081602001602082028036833701905050905086815f81518110612c0c57612c0c613fdc565b6001600160a01b0392909216602092830291909101909101526040805160018082528183019092525f9181602001602082028036833701905050905086815f81518110612c5b57612c5b613fdc565b60200260200101818152505060405180608001604052808381526020018281526020018781526020018581525094505050612dcc565b60038101546001600160a01b0387165f9081526008602052604090205490925081906001820190612cc59060ff168561407c565b8254600181810185555f858152602080822090930180546001600160a01b038e166001600160a01b0319909116179055845491820185558481528290200189905560408051855460a0938102820184019092526080810182815293975092839290918691840182828015612d6057602002820191905f5260205f20905b81546001600160a01b03168152600190910190602001808311612d42575b5050505050815260200182805480602002602001604051908101604052809291908181526020018280548015612db357602002820191905f5260205f20905b815481526020019060010190808311612d9f575b5050505050815260200187815260200185815250945050505b50509392505050565b612dfe604051806080016040528060608152602001606081526020015f81526020015f81525090565b335f90815260056020526040812060028101548203612f17575f5b60ff8116881115612e8b5760085f8a8a8460ff16818110612e3c57612e3c613fdc565b9050602002016020810190612e519190613a7b565b6001600160a01b0316815260208101919091526040015f2054612e779060ff168461407c565b925080612e8381614014565b915050612e19565b5060405180608001604052808989808060200260200160405190810160405280939291908181526020018383602002808284375f9201919091525050509082525060408051602089810282810182019093528982529283019290918a918a9182918501908490808284375f920191909152505050908252506020810186905260400183905292506130e3565b6003810154915080600181015f5b8981101561301e5760085f8c8c84818110612f4257612f42613fdc565b9050602002016020810190612f579190613a7b565b6001600160a01b0316815260208101919091526040015f2054612f7d9060ff168661407c565b9450828b8b83818110612f9257612f92613fdc565b9050602002016020810190612fa79190613a7b565b81546001810183555f928352602090922090910180546001600160a01b0319166001600160a01b0390921691909117905581898983818110612feb57612feb613fdc565b83546001810185555f9485526020948590209190940292909201359190920155508061301681614032565b915050612f25565b5060408051835460a06020820283018101909352608082018181529192839291869184018282801561307757602002820191905f5260205f20905b81546001600160a01b03168152600190910190602001808311613059575b50505050508152602001828054806020026020016040519081016040528092919081815260200182805480156130ca57602002820191905f5260205f20905b8154815260200190600101908083116130b6575b5050505050815260200187815260200185815250945050505b505095945050505050565b5f806130fe62015180601e613fb4565b613109906006613fb4565b63ffffffff16835f01514261311e919061404a565b1161313457825161312f904261404a565b613154565b61314262015180601e613fb4565b61314d906006613fb4565b63ffffffff165b90505f613163845f0151613767565b905083602001516131748383613588565b61317e919061408f565b335f9081526005602090815260408083208151815460a0948102820185019093526080810183815295985093949092849284918401828280156131e857602002820191905f5260205f20905b81546001600160a01b031681526001909101906020018083116131ca575b505050505081526020016001820180548060200260200160405190810160405280929190818152602001828054801561323e57602002820191905f5260205f20905b81548152602001906001019080831161322a575b5050505050815260200160028201548152602001600382015481525050905042816040015111156132a357606081015160329081111561327f575060608101515b61328a81606461407c565b61329560648761405d565b61329f919061408f565b9450505b505050919050565b60405181606052826040528360601b602c526323b872dd60601b600c5260205f6064601c5f895af13d1560015f511417166132ed57637939f4245f526004601cfd5b5f60605260405250505050565b613302613905565b6001600160a01b0383165f90815260076020526040812054815b818110156134be576001600160a01b0386165f90815260076020526040902080548691908390811061335057613350613fdc565b905f5260205f20906008020160060154036134ac576001600160a01b0386165f90815260076020526040902080548290811061338e5761338e613fdc565b905f5260205f2090600802018181604051806101000160405290815f82018054806020026020016040519081016040528092919081815260200182805480156133fe57602002820191905f5260205f20905b81546001600160a01b031681526001909101906020018083116133e0575b505050505081526020016001820180548060200260200160405190810160405280929190818152602001828054801561345457602002820191905f5260205f20905b815481526020019060010190808311613440575b505050918352505060028201546020820152600382015460408201526004820154606082015260058201546080820152600682015460a082015260079091015460ff16151560c090910152955093506134d892505050565b806134b681614032565b91505061331c565b50604051630e7e621d60e01b815260040160405180910390fd5b9250929050565b6134eb6103e88261405d565b6134f690602d61408f565b60105f828254613506919061407c565b9091555061351890506103e88261405d565b61352390600561408f565b60115f828254613533919061407c565b909155505050565b5f7812725dd1d243aba0e75fe645cc4873f9e65afe688c928e1f218311670de0b6b3a76400000215820261357657637c5f487d5f526004601cfd5b50670de0b6b3a7640000919091020490565b5f815f190483118202156135a35763bac65e5b5f526004601cfd5b50670de0b6b3a764000091020490565b6003546004805460405163095ea7b360e01b81526001600160a01b0391821692810192909252602482018490529091169063095ea7b3906044016020604051808303815f875af1158015613609573d5f803e3d5ffd5b505050506040513d601f19601f8201168201806040525081019061362d91906140a6565b506004805460405163b6b55f2560e01b81529182018390525f916001600160a01b039091169063b6b55f25906024016020604051808303815f875af1158015613678573d5f803e3d5ffd5b505050506040513d601f19601f8201168201806040525081019061369c91906140c5565b905080600e5f8282546136af919061407c565b90915550505050565b5f806136c261294a565b90505f6136d66805345cdf77eb68f44c5490565b116136e15782612169565b6121698382613588565b6805345cdf77eb68f44c548181018181101561370e5763e5cfe9575f526004601cfd5b806805345cdf77eb68f44c5550506387a211a2600c52815f526020600c208181540181555080602052600c5160601c5f7fddf252ad1be2c89b69c2b068fc378daa952ba7f163c4a11628f55a4df523b3ef602080a35050565b5f80600a5442613777919061404a565b905061378762015180601e613fb4565b613792906006613fb4565b63ffffffff168111156137c1576137ad62015180601e613fb4565b6137b8906006613fb4565b63ffffffff1690505b5f6002600a54856137d2919061404a565b6137dc908461407c565b6137e6919061405d565b90506137f662015180601e613fb4565b613801906006613fb4565b63ffffffff168111156138305761381c62015180601e613fb4565b613827906006613fb4565b63ffffffff1690505b600f5461385490612b3c8361384962015180601e613fb4565b612b31906006613fb4565b600f54613861919061404a565b949350505050565b828054828255905f5260205f209081019282156138bc579160200282015b828111156138bc57825182546001600160a01b0319166001600160a01b03909116178255602090920191600190910190613887565b506138c8929150613946565b5090565b828054828255905f5260205f209081019282156138bc579160200282015b828111156138bc5782518255916020019190600101906138ea565b60405180610100016040528060608152602001606081526020015f81526020015f81526020015f81526020015f81526020015f81526020015f151581525090565b5b808211156138c8575f8155600101613947565b5f6020808352835180828501525f5b8181101561398557858101830151858201604001528201613969565b505f604082860101526040601f19601f8301168501019250505092915050565b80356001600160a01b03811681146139bb575f80fd5b919050565b5f80604083850312156139d1575f80fd5b6139da836139a5565b946020939093013593505050565b5f805f805f608086880312156139fc575f80fd5b613a05866139a5565b9450613a13602087016139a5565b935060408601359250606086013567ffffffffffffffff80821115613a36575f80fd5b818801915088601f830112613a49575f80fd5b813581811115613a57575f80fd5b896020828501011115613a68575f80fd5b9699959850939650602001949392505050565b5f60208284031215613a8b575f80fd5b612169826139a5565b5f805f60608486031215613aa6575f80fd5b613aaf846139a5565b9250613abd602085016139a5565b9150604084013590509250925092565b5f8083601f840112613add575f80fd5b50813567ffffffffffffffff811115613af4575f80fd5b6020830191508360208260051b85010111156134d8575f80fd5b5f805f805f60608688031215613b22575f80fd5b85359450602086013567ffffffffffffffff80821115613b40575f80fd5b613b4c89838a01613acd565b90965094506040880135915080821115613b64575f80fd5b50613b7188828901613acd565b969995985093965092949392505050565b5f60208284031215613b92575f80fd5b5035919050565b5f805f805f8060808789031215613bae575f80fd5b8635955060208701359450604087013567ffffffffffffffff80821115613bd3575f80fd5b613bdf8a838b01613acd565b90965094506060890135915080821115613bf7575f80fd5b50613c0489828a01613acd565b979a9699509497509295939492505050565b5f8151808452602080850194508084015f5b83811015613c4d5781516001600160a01b031687529582019590820190600101613c28565b509495945050505050565b5f8151808452602080850194508084015f5b83811015613c4d57815187529582019590820190600101613c6a565b5f6101008251818552613c9b82860182613c16565b91505060208301518482036020860152613cb58282613c58565b91505060408301516040850152606083015160608501526080830151608085015260a083015160a085015260c083015160c085015260e0830151151560e08501528091505092915050565b5f602080830181845280855180835260408601915060408160051b87010192508387015f5b82811015613d5357603f19888603018452613d41858351613c86565b94509285019290850190600101613d25565b5092979650505050505050565b602081525f825160806020840152613d7b60a0840182613c16565b90506020840151601f19848303016040850152613d988282613c58565b91505060408401516060840152606084015160808401528091505092915050565b5f805f8060808587031215613dcc575f80fd5b8435935060208501359250613de3604086016139a5565b9396929550929360600135925050565b5f805f60608486031215613e05575f80fd5b613e0e846139a5565b95602085013595506040909401359392505050565b5f805f805f60608688031215613e37575f80fd5b853567ffffffffffffffff80821115613e4e575f80fd5b613e5a89838a01613acd565b90975095506020880135915080821115613e72575f80fd5b50613e7f88828901613acd565b96999598509660400135949350505050565b5f8060208385031215613ea2575f80fd5b823567ffffffffffffffff811115613eb8575f80fd5b613ec485828601613acd565b90969095509350505050565b5f805f805f805f60e0888a031215613ee6575f80fd5b613eef886139a5565b9650613efd602089016139a5565b95506040880135945060608801359350608088013560ff81168114613f20575f80fd5b9699959850939692959460a0840135945060c09093013592915050565b5f8060408385031215613f4e575f80fd5b50508035926020909101359150565b5f8060408385031215613f6e575f80fd5b613f77836139a5565b9150613f85602084016139a5565b90509250929050565b602081525f6121696020830184613c86565b634e487b7160e01b5f52601160045260245ffd5b63ffffffff818116838216028082169190828114613fd457613fd4613fa0565b505092915050565b634e487b7160e01b5f52603260045260245ffd5b6001600160a01b039384168152919092166020820152604081019190915260600190565b5f60ff821660ff810361402957614029613fa0565b60010192915050565b5f6001820161404357614043613fa0565b5060010190565b8181038181111561092257610922613fa0565b5f8261407757634e487b7160e01b5f52601260045260245ffd5b500490565b8082018082111561092257610922613fa0565b808202811582820484141761092257610922613fa0565b5f602082840312156140b6575f80fd5b81518015158114612169575f80fd5b5f602082840312156140d5575f80fd5b505191905056fea264697066735822122034a003b7af4765bda58fa7b01cfbad6d133293cbfdac3193318d7f48a18bd29864736f6c63430008140033",
    "linkReferences": {}
  },
  "methodIdentifiers": {
    "DAYS_SECONDS()": "903d78fb",
    "DOMAIN_SEPARATOR()": "3644e515",
    "FORTNITE()": "b38dadf7",
    "MONTH_DAYS()": "87c32202",
    "ONE_YEAR()": "16d3bfbb",
    "SIX_MONTHS()": "ba579c74",
    "allowance(address,address)": "dd62ed3e",
    "approve(address,uint256)": "095ea7b3",
    "balanceOf(address)": "70a08231",
    "bera()": "6ea12931",
    "boost(address,uint256,uint256)": "a2114cdb",
    "boost(address[],uint256[],uint256)": "a3637f16",
    "boosts(address)": "fdabc986",
    "borrow(uint256,uint256,address,uint256)": "97dae1fc",
    "borrow(uint256,uint256,address[],uint256[])": "52f0e01a",
    "claim()": "4e71d92d",
    "decimals()": "313ce567",
    "emergencyWithdraw()": "db2e21bc",
    "emissionsStart()": "73feac2a",
    "extendBoost(uint256)": "86f7521d",
    "getClaimable(address)": "a583024b",
    "getFairValues(address[])": "ba30f48c",
    "getgBERARatio()": "00ccb500",
    "hj()": "73e6e7ab",
    "honeyjarClaims()": "8fbcd651",
    "honeyjarInterestClaim()": "20a0095c",
    "liquidate(address,uint256)": "bcbaf487",
    "loans(address,uint256)": "98c61c37",
    "lock(uint256)": "dd467064",
    "lookupBoost(address)": "7ad3c566",
    "lookupLoan(address,uint256)": "eac29301",
    "lookupLoans(address)": "6324e780",
    "multisig()": "4783c35b",
    "multisigClaims()": "0ea6eed6",
    "multisigInterestClaim()": "6090dec2",
    "name()": "06fdde03",
    "nftFairValues(address)": "164b348b",
    "nonces(address)": "7ecebe00",
    "onERC721Received(address,address,uint256,bytes)": "150b7a02",
    "outstandingDebt()": "06f94a0d",
    "partnerNFTBoosts(address)": "5a7322a7",
    "permit(address,address,uint256,uint256,uint8,bytes32,bytes32)": "d505accf",
    "poolSize()": "4ec18db9",
    "porridge()": "2cf711a1",
    "porridgeMultiple()": "822782ac",
    "protocolInterestRate()": "fc3b72b1",
    "repay(uint256,uint256)": "d8aed145",
    "setMultisig(address)": "f3283fba",
    "setProtocolInterestRate(uint256)": "955def1c",
    "setValue(uint256,address[],uint256[])": "26831303",
    "stake(uint256)": "a694fc3a",
    "stakes(address)": "16934fc4",
    "symbol()": "95d89b41",
    "totalSupply()": "18160ddd",
    "totalValuation()": "295b9300",
    "transfer(address,uint256)": "a9059cbb",
    "transferFrom(address,address,uint256)": "23b872dd",
    "unstake(uint256)": "2e17de78",
    "vault()": "fbfa77cf",
    "withdrawBoost()": "222cda58"
  },
  "id": 24
}