{
  "abi": [
    {
      "inputs": [],
      "name": "dailyDrip",
      "outputs": [
        {
          "internalType": "uint256",
          "name": "",
          "type": "uint256"
        }
      ],
      "stateMutability": "view",
      "type": "function"
    },
    {
      "inputs": [],
      "name": "drip",
      "outputs": [],
      "stateMutability": "nonpayable",
      "type": "function"
    },
    {
      "inputs": [
        {
          "internalType": "address",
          "name": "",
          "type": "address"
        }
      ],
      "name": "lastDrip",
      "outputs": [
        {
          "internalType": "uint256",
          "name": "",
          "type": "uint256"
        }
      ],
      "stateMutability": "view",
      "type": "function"
    }
  ],
  "bytecode": {
    "object": "0x608060405267016345785d8a00005f5534801561001a575f80fd5b506101a4806100285f395ff3fe608060405234801561000f575f80fd5b506004361061003f575f3560e01c80630935f004146100435780639f678cca14610074578063eac54f231461007e575b5f80fd5b61006261005136600461011c565b60016020525f908152604090205481565b60405190815260200160405180910390f35b61007c610086565b005b6100625f5481565b335f908152600160205260409020546100a29062015180610149565b4210156100e15760405162461bcd60e51b8152602060048201526009602482015268063616e7420647269760bc1b604482015260640160405180910390fd5b335f818152600160205260408082204290558154905181156108fc0292818181858888f19350505050158015610119573d5f803e3d5ffd5b50565b5f6020828403121561012c575f80fd5b81356001600160a01b0381168114610142575f80fd5b9392505050565b8082018082111561016857634e487b7160e01b5f52601160045260245ffd5b9291505056fea264697066735822122017418196e2d35c8e79f52af0f9c2af5c53f9a47a3c16743ab682af92b2dc0c8464736f6c63430008140033",
    "linkReferences": {}
  },
  "methodIdentifiers": {
    "dailyDrip()": "eac54f23",
    "drip()": "9f678cca",
    "lastDrip(address)": "0935f004"
  },
  "id": 41
}