{
  "abi": [
    {
      "inputs": [],
      "stateMutability": "nonpayable",
      "type": "constructor"
    },
    {
      "inputs": [
        {
          "internalType": "address",
          "name": "sender",
          "type": "address"
        },
        {
          "internalType": "uint256",
          "name": "tokenId",
          "type": "uint256"
        },
        {
          "internalType": "address",
          "name": "owner",
          "type": "address"
        }
      ],
      "name": "ERC721IncorrectOwner",
      "type": "error"
    },
    {
      "inputs": [
        {
          "internalType": "address",
          "name": "operator",
          "type": "address"
        },
        {
          "internalType": "uint256",
          "name": "tokenId",
          "type": "uint256"
        }
      ],
      "name": "ERC721InsufficientApproval",
      "type": "error"
    },
    {
      "inputs": [
        {
          "internalType": "address",
          "name": "approver",
          "type": "address"
        }
      ],
      "name": "ERC721InvalidApprover",
      "type": "error"
    },
    {
      "inputs": [
        {
          "internalType": "address",
          "name": "operator",
          "type": "address"
        }
      ],
      "name": "ERC721InvalidOperator",
      "type": "error"
    },
    {
      "inputs": [
        {
          "internalType": "address",
          "name": "owner",
          "type": "address"
        }
      ],
      "name": "ERC721InvalidOwner",
      "type": "error"
    },
    {
      "inputs": [
        {
          "internalType": "address",
          "name": "receiver",
          "type": "address"
        }
      ],
      "name": "ERC721InvalidReceiver",
      "type": "error"
    },
    {
      "inputs": [
        {
          "internalType": "address",
          "name": "sender",
          "type": "address"
        }
      ],
      "name": "ERC721InvalidSender",
      "type": "error"
    },
    {
      "inputs": [
        {
          "internalType": "uint256",
          "name": "tokenId",
          "type": "uint256"
        }
      ],
      "name": "ERC721NonexistentToken",
      "type": "error"
    },
    {
      "anonymous": false,
      "inputs": [
        {
          "indexed": true,
          "internalType": "address",
          "name": "owner",
          "type": "address"
        },
        {
          "indexed": true,
          "internalType": "address",
          "name": "approved",
          "type": "address"
        },
        {
          "indexed": true,
          "internalType": "uint256",
          "name": "tokenId",
          "type": "uint256"
        }
      ],
      "name": "Approval",
      "type": "event"
    },
    {
      "anonymous": false,
      "inputs": [
        {
          "indexed": true,
          "internalType": "address",
          "name": "owner",
          "type": "address"
        },
        {
          "indexed": true,
          "internalType": "address",
          "name": "operator",
          "type": "address"
        },
        {
          "indexed": false,
          "internalType": "bool",
          "name": "approved",
          "type": "bool"
        }
      ],
      "name": "ApprovalForAll",
      "type": "event"
    },
    {
      "anonymous": false,
      "inputs": [
        {
          "indexed": false,
          "internalType": "uint256",
          "name": "_fromTokenId",
          "type": "uint256"
        },
        {
          "indexed": false,
          "internalType": "uint256",
          "name": "_toTokenId",
          "type": "uint256"
        }
      ],
      "name": "BatchMetadataUpdate",
      "type": "event"
    },
    {
      "anonymous": false,
      "inputs": [
        {
          "indexed": false,
          "internalType": "uint256",
          "name": "_tokenId",
          "type": "uint256"
        }
      ],
      "name": "MetadataUpdate",
      "type": "event"
    },
    {
      "anonymous": false,
      "inputs": [
        {
          "indexed": true,
          "internalType": "address",
          "name": "from",
          "type": "address"
        },
        {
          "indexed": true,
          "internalType": "address",
          "name": "to",
          "type": "address"
        },
        {
          "indexed": true,
          "internalType": "uint256",
          "name": "tokenId",
          "type": "uint256"
        }
      ],
      "name": "Transfer",
      "type": "event"
    },
    {
      "inputs": [
        {
          "internalType": "address",
          "name": "to",
          "type": "address"
        },
        {
          "internalType": "uint256",
          "name": "tokenId",
          "type": "uint256"
        }
      ],
      "name": "approve",
      "outputs": [],
      "stateMutability": "nonpayable",
      "type": "function"
    },
    {
      "inputs": [
        {
          "internalType": "address",
          "name": "owner",
          "type": "address"
        }
      ],
      "name": "balanceOf",
      "outputs": [
        {
          "internalType": "uint256",
          "name": "",
          "type": "uint256"
        }
      ],
      "stateMutability": "view",
      "type": "function"
    },
    {
      "inputs": [
        {
          "internalType": "uint256",
          "name": "tokenId",
          "type": "uint256"
        }
      ],
      "name": "getApproved",
      "outputs": [
        {
          "internalType": "address",
          "name": "",
          "type": "address"
        }
      ],
      "stateMutability": "view",
      "type": "function"
    },
    {
      "inputs": [
        {
          "internalType": "address",
          "name": "owner",
          "type": "address"
        },
        {
          "internalType": "address",
          "name": "operator",
          "type": "address"
        }
      ],
      "name": "isApprovedForAll",
      "outputs": [
        {
          "internalType": "bool",
          "name": "",
          "type": "bool"
        }
      ],
      "stateMutability": "view",
      "type": "function"
    },
    {
      "inputs": [
        {
          "internalType": "address",
          "name": "user",
          "type": "address"
        }
      ],
      "name": "mint",
      "outputs": [],
      "stateMutability": "nonpayable",
      "type": "function"
    },
    {
      "inputs": [],
      "name": "name",
      "outputs": [
        {
          "internalType": "string",
          "name": "",
          "type": "string"
        }
      ],
      "stateMutability": "view",
      "type": "function"
    },
    {
      "inputs": [
        {
          "internalType": "uint256",
          "name": "tokenId",
          "type": "uint256"
        }
      ],
      "name": "ownerOf",
      "outputs": [
        {
          "internalType": "address",
          "name": "",
          "type": "address"
        }
      ],
      "stateMutability": "view",
      "type": "function"
    },
    {
      "inputs": [
        {
          "internalType": "address",
          "name": "from",
          "type": "address"
        },
        {
          "internalType": "address",
          "name": "to",
          "type": "address"
        },
        {
          "internalType": "uint256",
          "name": "tokenId",
          "type": "uint256"
        }
      ],
      "name": "safeTransferFrom",
      "outputs": [],
      "stateMutability": "nonpayable",
      "type": "function"
    },
    {
      "inputs": [
        {
          "internalType": "address",
          "name": "from",
          "type": "address"
        },
        {
          "internalType": "address",
          "name": "to",
          "type": "address"
        },
        {
          "internalType": "uint256",
          "name": "tokenId",
          "type": "uint256"
        },
        {
          "internalType": "bytes",
          "name": "data",
          "type": "bytes"
        }
      ],
      "name": "safeTransferFrom",
      "outputs": [],
      "stateMutability": "nonpayable",
      "type": "function"
    },
    {
      "inputs": [
        {
          "internalType": "address",
          "name": "operator",
          "type": "address"
        },
        {
          "internalType": "bool",
          "name": "approved",
          "type": "bool"
        }
      ],
      "name": "setApprovalForAll",
      "outputs": [],
      "stateMutability": "nonpayable",
      "type": "function"
    },
    {
      "inputs": [
        {
          "internalType": "bytes4",
          "name": "interfaceId",
          "type": "bytes4"
        }
      ],
      "name": "supportsInterface",
      "outputs": [
        {
          "internalType": "bool",
          "name": "",
          "type": "bool"
        }
      ],
      "stateMutability": "view",
      "type": "function"
    },
    {
      "inputs": [],
      "name": "symbol",
      "outputs": [
        {
          "internalType": "string",
          "name": "",
          "type": "string"
        }
      ],
      "stateMutability": "view",
      "type": "function"
    },
    {
      "inputs": [
        {
          "internalType": "uint256",
          "name": "tokenId",
          "type": "uint256"
        }
      ],
      "name": "tokenURI",
      "outputs": [
        {
          "internalType": "string",
          "name": "",
          "type": "string"
        }
      ],
      "stateMutability": "view",
      "type": "function"
    },
    {
      "inputs": [
        {
          "internalType": "address",
          "name": "from",
          "type": "address"
        },
        {
          "internalType": "address",
          "name": "to",
          "type": "address"
        },
        {
          "internalType": "uint256",
          "name": "tokenId",
          "type": "uint256"
        }
      ],
      "name": "transferFrom",
      "outputs": [],
      "stateMutability": "nonpayable",
      "type": "function"
    }
  ],
  "bytecode": {
    "object": "0x6080604052600160075534801562000015575f80fd5b506040518060400160405280600a81526020016942616e6420426561727360b01b815250604051806040016040528060048152602001631090539160e21b815250815f90816200006691906200011e565b5060016200007582826200011e565b505050620001e6565b634e487b7160e01b5f52604160045260245ffd5b600181811c90821680620000a757607f821691505b602082108103620000c657634e487b7160e01b5f52602260045260245ffd5b50919050565b601f82111562000119575f81815260208120601f850160051c81016020861015620000f45750805b601f850160051c820191505b81811015620001155782815560010162000100565b5050505b505050565b81516001600160401b038111156200013a576200013a6200007e565b62000152816200014b845462000092565b84620000cc565b602080601f83116001811462000188575f8415620001705750858301515b5f19600386901b1c1916600185901b17855562000115565b5f85815260208120601f198616915b82811015620001b85788860151825594840194600190910190840162000197565b5085821015620001d657878501515f19600388901b60f8161c191681555b5050505050600190811b01905550565b61127780620001f45f395ff3fe608060405234801561000f575f80fd5b50600436106100e5575f3560e01c80636a62784211610088578063a22cb46511610063578063a22cb465146101db578063b88d4fde146101ee578063c87b56dd14610201578063e985e9c514610214575f80fd5b80636a6278421461019f57806370a08231146101b257806395d89b41146101d3575f80fd5b8063095ea7b3116100c3578063095ea7b31461015157806323b872dd1461016657806342842e0e146101795780636352211e1461018c575f80fd5b806301ffc9a7146100e957806306fdde0314610111578063081812fc14610126575b5f80fd5b6100fc6100f7366004610da4565b610227565b60405190151581526020015b60405180910390f35b610119610251565b6040516101089190610e0c565b610139610134366004610e1e565b6102e0565b6040516001600160a01b039091168152602001610108565b61016461015f366004610e50565b610307565b005b610164610174366004610e78565b610316565b610164610187366004610e78565b6103a4565b61013961019a366004610e1e565b6103c3565b6101646101ad366004610eb1565b6103cd565b6101c56101c0366004610eb1565b610414565b604051908152602001610108565b610119610459565b6101646101e9366004610eca565b610468565b6101646101fc366004610f17565b610473565b61011961020f366004610e1e565b61048a565b6100fc610222366004610fec565b610595565b5f6001600160e01b03198216632483248360e11b148061024b575061024b826105c2565b92915050565b60605f805461025f9061101d565b80601f016020809104026020016040519081016040528092919081815260200182805461028b9061101d565b80156102d65780601f106102ad576101008083540402835291602001916102d6565b820191905f5260205f20905b8154815290600101906020018083116102b957829003601f168201915b5050505050905090565b5f6102ea82610611565b505f828152600460205260409020546001600160a01b031661024b565b610312828233610649565b5050565b6001600160a01b03821661034457604051633250574960e11b81525f60048201526024015b60405180910390fd5b5f610350838333610656565b9050836001600160a01b0316816001600160a01b03161461039e576040516364283d7b60e01b81526001600160a01b038086166004830152602482018490528216604482015260640161033b565b50505050565b6103be83838360405180602001604052805f815250610473565b505050565b5f61024b82610611565b6103d981600754610748565b6103fd6007546040518060600160405280603a8152602001611208603a9139610761565b60078054905f61040c83611055565b919050555050565b5f6001600160a01b03821661043e576040516322718ad960e21b81525f600482015260240161033b565b506001600160a01b03165f9081526003602052604090205490565b60606001805461025f9061101d565b6103123383836107b0565b61047e848484610316565b61039e8484848461084e565b606061049582610611565b505f82815260066020526040812080546104ae9061101d565b80601f01602080910402602001604051908101604052809291908181526020018280546104da9061101d565b80156105255780601f106104fc57610100808354040283529160200191610525565b820191905f5260205f20905b81548152906001019060200180831161050857829003601f168201915b505050505090505f61054160408051602081019091525f815290565b905080515f03610552575092915050565b81511561058457808260405160200161056c929190611079565b60405160208183030381529060405292505050919050565b61058d84610974565b949350505050565b6001600160a01b039182165f90815260056020908152604080832093909416825291909152205460ff1690565b5f6001600160e01b031982166380ac58cd60e01b14806105f257506001600160e01b03198216635b5e139f60e01b145b8061024b57506301ffc9a760e01b6001600160e01b031983161461024b565b5f818152600260205260408120546001600160a01b03168061024b57604051637e27328960e01b81526004810184905260240161033b565b6103be83838360016109e5565b5f828152600260205260408120546001600160a01b039081169083161561068257610682818486610ae9565b6001600160a01b038116156106bc5761069d5f855f806109e5565b6001600160a01b0381165f90815260036020526040902080545f190190555b6001600160a01b038516156106ea576001600160a01b0385165f908152600360205260409020805460010190555b5f8481526002602052604080822080546001600160a01b0319166001600160a01b0389811691821790925591518793918516917fddf252ad1be2c89b69c2b068fc378daa952ba7f163c4a11628f55a4df523b3ef91a4949350505050565b610312828260405180602001604052805f815250610b4d565b5f82815260066020526040902061077882826110f4565b506040518281527ff8e1a15aba9398e019f0b49df1a4fde98ee17ae345cb5f6b5e2c27f5033e8ce79060200160405180910390a15050565b6001600160a01b0382166107e257604051630b61174360e31b81526001600160a01b038316600482015260240161033b565b6001600160a01b038381165f81815260056020908152604080832094871680845294825291829020805460ff191686151590811790915591519182527f17307eab39ab6107e8899845ad3d59bd9653f200f220920489ca2b5937696c31910160405180910390a3505050565b6001600160a01b0383163b1561039e57604051630a85bd0160e11b81526001600160a01b0384169063150b7a02906108909033908890879087906004016111b0565b6020604051808303815f875af19250505080156108ca575060408051601f3d908101601f191682019092526108c7918101906111ec565b60015b610931573d8080156108f7576040519150601f19603f3d011682016040523d82523d5f602084013e6108fc565b606091505b5080515f0361092957604051633250574960e11b81526001600160a01b038516600482015260240161033b565b805181602001fd5b6001600160e01b03198116630a85bd0160e11b1461096d57604051633250574960e11b81526001600160a01b038516600482015260240161033b565b5050505050565b606061097f82610611565b505f61099560408051602081019091525f815290565b90505f8151116109b35760405180602001604052805f8152506109de565b806109bd84610b63565b6040516020016109ce929190611079565b6040516020818303038152906040525b9392505050565b80806109f957506001600160a01b03821615155b15610aba575f610a0884610611565b90506001600160a01b03831615801590610a345750826001600160a01b0316816001600160a01b031614155b8015610a475750610a458184610595565b155b15610a705760405163a9fbf51f60e01b81526001600160a01b038416600482015260240161033b565b8115610ab85783856001600160a01b0316826001600160a01b03167f8c5be1e5ebec7d5bd14f71427d1e84f3dd0314c0f7b2291e5b200ac8c7c3b92560405160405180910390a45b505b50505f90815260046020526040902080546001600160a01b0319166001600160a01b0392909216919091179055565b610af4838383610bf3565b6103be576001600160a01b038316610b2257604051637e27328960e01b81526004810182905260240161033b565b60405163177e802f60e01b81526001600160a01b03831660048201526024810182905260440161033b565b610b578383610c54565b6103be5f84848461084e565b60605f610b6f83610cb5565b60010190505f8167ffffffffffffffff811115610b8e57610b8e610f03565b6040519080825280601f01601f191660200182016040528015610bb8576020820181803683370190505b5090508181016020015b5f19016f181899199a1a9b1b9c1cb0b131b232b360811b600a86061a8153600a8504945084610bc257509392505050565b5f6001600160a01b0383161580159061058d5750826001600160a01b0316846001600160a01b03161480610c2c5750610c2c8484610595565b8061058d5750505f908152600460205260409020546001600160a01b03908116911614919050565b6001600160a01b038216610c7d57604051633250574960e11b81525f600482015260240161033b565b5f610c8983835f610656565b90506001600160a01b038116156103be576040516339e3563760e11b81525f600482015260240161033b565b5f8072184f03e93ff9f4daa797ed6e38ed64bf6a1f0160401b8310610cf35772184f03e93ff9f4daa797ed6e38ed64bf6a1f0160401b830492506040015b6d04ee2d6d415b85acef81000000008310610d1f576d04ee2d6d415b85acef8100000000830492506020015b662386f26fc100008310610d3d57662386f26fc10000830492506010015b6305f5e1008310610d55576305f5e100830492506008015b6127108310610d6957612710830492506004015b60648310610d7b576064830492506002015b600a831061024b5760010192915050565b6001600160e01b031981168114610da1575f80fd5b50565b5f60208284031215610db4575f80fd5b81356109de81610d8c565b5f5b83811015610dd9578181015183820152602001610dc1565b50505f910152565b5f8151808452610df8816020860160208601610dbf565b601f01601f19169290920160200192915050565b602081525f6109de6020830184610de1565b5f60208284031215610e2e575f80fd5b5035919050565b80356001600160a01b0381168114610e4b575f80fd5b919050565b5f8060408385031215610e61575f80fd5b610e6a83610e35565b946020939093013593505050565b5f805f60608486031215610e8a575f80fd5b610e9384610e35565b9250610ea160208501610e35565b9150604084013590509250925092565b5f60208284031215610ec1575f80fd5b6109de82610e35565b5f8060408385031215610edb575f80fd5b610ee483610e35565b915060208301358015158114610ef8575f80fd5b809150509250929050565b634e487b7160e01b5f52604160045260245ffd5b5f805f8060808587031215610f2a575f80fd5b610f3385610e35565b9350610f4160208601610e35565b925060408501359150606085013567ffffffffffffffff80821115610f64575f80fd5b818701915087601f830112610f77575f80fd5b813581811115610f8957610f89610f03565b604051601f8201601f19908116603f01168101908382118183101715610fb157610fb1610f03565b816040528281528a6020848701011115610fc9575f80fd5b826020860160208301375f60208483010152809550505050505092959194509250565b5f8060408385031215610ffd575f80fd5b61100683610e35565b915061101460208401610e35565b90509250929050565b600181811c9082168061103157607f821691505b60208210810361104f57634e487b7160e01b5f52602260045260245ffd5b50919050565b5f6001820161107257634e487b7160e01b5f52601160045260245ffd5b5060010190565b5f835161108a818460208801610dbf565b83519083019061109e818360208801610dbf565b01949350505050565b601f8211156103be575f81815260208120601f850160051c810160208610156110cd5750805b601f850160051c820191505b818110156110ec578281556001016110d9565b505050505050565b815167ffffffffffffffff81111561110e5761110e610f03565b6111228161111c845461101d565b846110a7565b602080601f831160018114611155575f841561113e5750858301515b5f19600386901b1c1916600185901b1785556110ec565b5f85815260208120601f198616915b8281101561118357888601518255948401946001909101908401611164565b50858210156111a057878501515f19600388901b60f8161c191681555b5050505050600190811b01905550565b6001600160a01b03858116825284166020820152604081018390526080606082018190525f906111e290830184610de1565b9695505050505050565b5f602082840312156111fc575f80fd5b81516109de81610d8c56fe697066733a2f2f516d4e50446d56695663346d6f6a6247776f3966357441694168614a3276556963786b415a69594366574e6f70542f31313034a26469706673582212200797834fa99dbbfb5e7cb5e309f9ddf797c206e3752365acd2e5518aedfa3b8764736f6c63430008140033",
    "linkReferences": {}
  },
  "methodIdentifiers": {
    "approve(address,uint256)": "095ea7b3",
    "balanceOf(address)": "70a08231",
    "getApproved(uint256)": "081812fc",
    "isApprovedForAll(address,address)": "e985e9c5",
    "mint(address)": "6a627842",
    "name()": "06fdde03",
    "ownerOf(uint256)": "6352211e",
    "safeTransferFrom(address,address,uint256)": "42842e0e",
    "safeTransferFrom(address,address,uint256,bytes)": "b88d4fde",
    "setApprovalForAll(address,bool)": "a22cb465",
    "supportsInterface(bytes4)": "01ffc9a7",
    "symbol()": "95d89b41",
    "tokenURI(uint256)": "c87b56dd",
    "transferFrom(address,address,uint256)": "23b872dd"
  },
  "id": 35
}