{
  "abi": [
    {
      "inputs": [
        {
          "internalType": "address",
          "name": "_admin",
          "type": "address"
        },
        {
          "internalType": "uint256",
          "name": "_delay",
          "type": "uint256"
        }
      ],
      "stateMutability": "nonpayable",
      "type": "constructor"
    },
    {
      "inputs": [],
      "name": "InvalidDelay",
      "type": "error"
    },
    {
      "inputs": [],
      "name": "InvalidETA",
      "type": "error"
    },
    {
      "inputs": [],
      "name": "NotAdmin",
      "type": "error"
    },
    {
      "inputs": [],
      "name": "TxLocked",
      "type": "error"
    },
    {
      "inputs": [],
      "name": "TxNotQueued",
      "type": "error"
    },
    {
      "inputs": [],
      "name": "TxReverted",
      "type": "error"
    },
    {
      "inputs": [],
      "name": "TxStale",
      "type": "error"
    },
    {
      "anonymous": false,
      "inputs": [
        {
          "indexed": true,
          "internalType": "bytes32",
          "name": "txHash",
          "type": "bytes32"
        },
        {
          "indexed": true,
          "internalType": "address",
          "name": "target",
          "type": "address"
        },
        {
          "indexed": false,
          "internalType": "uint256",
          "name": "value",
          "type": "uint256"
        },
        {
          "indexed": false,
          "internalType": "string",
          "name": "signature",
          "type": "string"
        },
        {
          "indexed": false,
          "internalType": "bytes",
          "name": "data",
          "type": "bytes"
        },
        {
          "indexed": false,
          "internalType": "uint256",
          "name": "eta",
          "type": "uint256"
        }
      ],
      "name": "CancelTransaction",
      "type": "event"
    },
    {
      "anonymous": false,
      "inputs": [
        {
          "indexed": true,
          "internalType": "bytes32",
          "name": "txHash",
          "type": "bytes32"
        },
        {
          "indexed": true,
          "internalType": "address",
          "name": "target",
          "type": "address"
        },
        {
          "indexed": false,
          "internalType": "uint256",
          "name": "value",
          "type": "uint256"
        },
        {
          "indexed": false,
          "internalType": "string",
          "name": "signature",
          "type": "string"
        },
        {
          "indexed": false,
          "internalType": "bytes",
          "name": "data",
          "type": "bytes"
        },
        {
          "indexed": false,
          "internalType": "uint256",
          "name": "eta",
          "type": "uint256"
        }
      ],
      "name": "ExecuteTransaction",
      "type": "event"
    },
    {
      "anonymous": false,
      "inputs": [
        {
          "indexed": true,
          "internalType": "address",
          "name": "newAdmin",
          "type": "address"
        }
      ],
      "name": "NewAdmin",
      "type": "event"
    },
    {
      "anonymous": false,
      "inputs": [
        {
          "indexed": true,
          "internalType": "uint256",
          "name": "newDelay",
          "type": "uint256"
        }
      ],
      "name": "NewDelay",
      "type": "event"
    },
    {
      "anonymous": false,
      "inputs": [
        {
          "indexed": true,
          "internalType": "bytes32",
          "name": "txHash",
          "type": "bytes32"
        },
        {
          "indexed": true,
          "internalType": "address",
          "name": "target",
          "type": "address"
        },
        {
          "indexed": false,
          "internalType": "uint256",
          "name": "value",
          "type": "uint256"
        },
        {
          "indexed": false,
          "internalType": "string",
          "name": "signature",
          "type": "string"
        },
        {
          "indexed": false,
          "internalType": "bytes",
          "name": "data",
          "type": "bytes"
        },
        {
          "indexed": false,
          "internalType": "uint256",
          "name": "eta",
          "type": "uint256"
        }
      ],
      "name": "QueueTransaction",
      "type": "event"
    },
    {
      "inputs": [],
      "name": "GRACE_PERIOD",
      "outputs": [
        {
          "internalType": "uint32",
          "name": "",
          "type": "uint32"
        }
      ],
      "stateMutability": "view",
      "type": "function"
    },
    {
      "inputs": [],
      "name": "MAXIMUM_DELAY",
      "outputs": [
        {
          "internalType": "uint32",
          "name": "",
          "type": "uint32"
        }
      ],
      "stateMutability": "view",
      "type": "function"
    },
    {
      "inputs": [],
      "name": "MINIMUM_DELAY",
      "outputs": [
        {
          "internalType": "uint32",
          "name": "",
          "type": "uint32"
        }
      ],
      "stateMutability": "view",
      "type": "function"
    },
    {
      "inputs": [],
      "name": "admin",
      "outputs": [
        {
          "internalType": "address",
          "name": "",
          "type": "address"
        }
      ],
      "stateMutability": "view",
      "type": "function"
    },
    {
      "inputs": [
        {
          "internalType": "address",
          "name": "target",
          "type": "address"
        },
        {
          "internalType": "uint256",
          "name": "eta",
          "type": "uint256"
        },
        {
          "internalType": "uint256",
          "name": "value",
          "type": "uint256"
        },
        {
          "internalType": "bytes",
          "name": "data",
          "type": "bytes"
        },
        {
          "internalType": "string",
          "name": "signature",
          "type": "string"
        }
      ],
      "name": "cancelTransaction",
      "outputs": [],
      "stateMutability": "nonpayable",
      "type": "function"
    },
    {
      "inputs": [],
      "name": "delay",
      "outputs": [
        {
          "internalType": "uint256",
          "name": "",
          "type": "uint256"
        }
      ],
      "stateMutability": "view",
      "type": "function"
    },
    {
      "inputs": [
        {
          "internalType": "address",
          "name": "target",
          "type": "address"
        },
        {
          "internalType": "uint256",
          "name": "eta",
          "type": "uint256"
        },
        {
          "internalType": "uint256",
          "name": "value",
          "type": "uint256"
        },
        {
          "internalType": "bytes",
          "name": "data",
          "type": "bytes"
        },
        {
          "internalType": "string",
          "name": "signature",
          "type": "string"
        }
      ],
      "name": "executeTransaction",
      "outputs": [],
      "stateMutability": "payable",
      "type": "function"
    },
    {
      "inputs": [],
      "name": "goldigov",
      "outputs": [
        {
          "internalType": "address",
          "name": "",
          "type": "address"
        }
      ],
      "stateMutability": "view",
      "type": "function"
    },
    {
      "inputs": [
        {
          "internalType": "address",
          "name": "target",
          "type": "address"
        },
        {
          "internalType": "uint256",
          "name": "eta",
          "type": "uint256"
        },
        {
          "internalType": "uint256",
          "name": "value",
          "type": "uint256"
        },
        {
          "internalType": "bytes",
          "name": "data",
          "type": "bytes"
        },
        {
          "internalType": "string",
          "name": "signature",
          "type": "string"
        }
      ],
      "name": "queueTransaction",
      "outputs": [],
      "stateMutability": "nonpayable",
      "type": "function"
    },
    {
      "inputs": [
        {
          "internalType": "bytes32",
          "name": "",
          "type": "bytes32"
        }
      ],
      "name": "queuedTransactions",
      "outputs": [
        {
          "internalType": "bool",
          "name": "",
          "type": "bool"
        }
      ],
      "stateMutability": "view",
      "type": "function"
    },
    {
      "inputs": [
        {
          "internalType": "address",
          "name": "_admin",
          "type": "address"
        }
      ],
      "name": "setAdmin",
      "outputs": [],
      "stateMutability": "nonpayable",
      "type": "function"
    },
    {
      "inputs": [
        {
          "internalType": "uint256",
          "name": "_delay",
          "type": "uint256"
        }
      ],
      "name": "setDelay",
      "outputs": [],
      "stateMutability": "nonpayable",
      "type": "function"
    }
  ],
  "bytecode": {
    "object": "0x608060405234801561000f575f80fd5b50604051610ab3380380610ab383398101604081905261002e91610089565b6202a300811080610043575060035462278d00105b15610061576040516327df2edd60e11b815260040160405180910390fd5b5f80546001600160a01b0319166001600160a01b0393909316929092179091556003556100c0565b5f806040838503121561009a575f80fd5b82516001600160a01b03811681146100b0575f80fd5b6020939093015192949293505050565b6109e6806100cd5f395ff3fe6080604052600436106100a5575f3560e01c8063b1b43ae511610062578063b1b43ae51461016e578063c1a287e214610184578063c386db5c1461019a578063e177246e146101d1578063f2b06537146101f0578063f851a4401461022e575f80fd5b8063547052a7146100a95780636a42b8f8146100ca578063704b6c02146100f25780637d645fab14610111578063917a65a81461013c5780639585a9381461015b575b5f80fd5b3480156100b4575f80fd5b506100c86100c336600461078a565b61024c565b005b3480156100d5575f80fd5b506100df60035481565b6040519081526020015b60405180910390f35b3480156100fd575f80fd5b506100c861010c366004610835565b61033e565b34801561011c575f80fd5b5061012762278d0081565b60405163ffffffff90911681526020016100e9565b348015610147575f80fd5b506100c861015636600461078a565b6103af565b6100c861016936600461078a565b610461565b348015610179575f80fd5b506101276202a30081565b34801561018f575f80fd5b506101276212750081565b3480156101a5575f80fd5b506001546101b9906001600160a01b031681565b6040516001600160a01b0390911681526020016100e9565b3480156101dc575f80fd5b506100c86101eb366004610855565b610659565b3480156101fb575f80fd5b5061021e61020a366004610855565b60026020525f908152604090205460ff1681565b60405190151581526020016100e9565b348015610239575f80fd5b505f546101b9906001600160a01b031681565b5f546001600160a01b0316331461027657604051637bfa4b9f60e01b815260040160405180910390fd5b600354610283904261086c565b8410156102a357604051630a00ec8b60e31b815260040160405180910390fd5b5f85848385886040516020016102bd9594939291906108de565b60408051601f1981840301815282825280516020918201205f8181526002909252919020805460ff1916600117905591506001600160a01b0387169082907f76e2796dc3a81d57b0e8504b647febcbeeb5f4af818e164f11eef8131a6a763f9061032e908890879089908c90610929565b60405180910390a3505050505050565b5f546001600160a01b0316331461036857604051637bfa4b9f60e01b815260040160405180910390fd5b5f80546001600160a01b0319166001600160a01b038316908117825560405190917f71614071b88dee5e0b2ae578a9dd7b2ebbe9ae832ba419dc0242cd065a290b6c91a250565b5f546001600160a01b031633146103d957604051637bfa4b9f60e01b815260040160405180910390fd5b5f85848385886040516020016103f39594939291906108de565b60408051601f1981840301815282825280516020918201205f8181526002909252919020805460ff1916905591506001600160a01b0387169082907f2fffc091a501fd91bfbff27141450d3acb40fb8e6d8382b243ec7a812a3aaf879061032e908890879089908c90610929565b5f546001600160a01b0316331461048b57604051637bfa4b9f60e01b815260040160405180910390fd5b5f85848385886040516020016104a59594939291906108de565b60408051601f1981840301815291815281516020928301205f818152600290935291205490915060ff166104ec5760405163ccc85ba360e01b815260040160405180910390fd5b8442101561050d57604051630c3d350160e21b815260040160405180910390fd5b61051a621275008661086c565b42111561053a5760405163961c319960e01b815260040160405180910390fd5b5f818152600260205260408120805460ff1916905582516060910361056057508261058c565b82805190602001208460405160200161057a929190610965565b60405160208183030381529060405290505b5f876001600160a01b031686836040516105a69190610995565b5f6040518083038185875af1925050503d805f81146105e0576040519150601f19603f3d011682016040523d82523d5f602084013e6105e5565b606091505b505090508061060757604051635118825560e01b815260040160405180910390fd5b876001600160a01b0316837fa560e3198060a2f10670c1ec5b403077ea6ae93ca8de1c32b451dc1a943cd6e78887898c6040516106479493929190610929565b60405180910390a35050505050505050565b5f546001600160a01b0316331461068357604051637bfa4b9f60e01b815260040160405180910390fd5b6202a300811080610698575060035462278d00105b156106b6576040516327df2edd60e11b815260040160405180910390fd5b600381905560405181907f948b1f6a42ee138b7e34058ba85a37f716d55ff25ff05a763f15bed6a04c8d2c905f90a250565b80356001600160a01b03811681146106fe575f80fd5b919050565b634e487b7160e01b5f52604160045260245ffd5b5f67ffffffffffffffff8084111561073157610731610703565b604051601f8501601f19908116603f0116810190828211818310171561075957610759610703565b81604052809350858152868686011115610771575f80fd5b858560208301375f602087830101525050509392505050565b5f805f805f60a0868803121561079e575f80fd5b6107a7866106e8565b94506020860135935060408601359250606086013567ffffffffffffffff808211156107d1575f80fd5b818801915088601f8301126107e4575f80fd5b6107f389833560208501610717565b93506080880135915080821115610808575f80fd5b508601601f81018813610819575f80fd5b61082888823560208401610717565b9150509295509295909350565b5f60208284031215610845575f80fd5b61084e826106e8565b9392505050565b5f60208284031215610865575f80fd5b5035919050565b8082018082111561088b57634e487b7160e01b5f52601160045260245ffd5b92915050565b5f5b838110156108ab578181015183820152602001610893565b50505f910152565b5f81518084526108ca816020860160208601610891565b601f01601f19169290920160200192915050565b60018060a01b038616815284602082015260a060408201525f61090460a08301866108b3565b828103606084015261091681866108b3565b9150508260808301529695505050505050565b848152608060208201525f61094160808301866108b3565b828103604084015261095381866108b3565b91505082606083015295945050505050565b6001600160e01b03198316815281515f90610987816004850160208701610891565b919091016004019392505050565b5f82516109a6818460208701610891565b919091019291505056fea2646970667358221220a51ced5789808f202c594fe07cc2f491f7b8907b9041d9c8f4bbdf236b1c390d64736f6c63430008140033",
    "linkReferences": {}
  },
  "methodIdentifiers": {
    "GRACE_PERIOD()": "c1a287e2",
    "MAXIMUM_DELAY()": "7d645fab",
    "MINIMUM_DELAY()": "b1b43ae5",
    "admin()": "f851a440",
    "cancelTransaction(address,uint256,uint256,bytes,string)": "917a65a8",
    "delay()": "6a42b8f8",
    "executeTransaction(address,uint256,uint256,bytes,string)": "9585a938",
    "goldigov()": "c386db5c",
    "queueTransaction(address,uint256,uint256,bytes,string)": "547052a7",
    "queuedTransactions(bytes32)": "f2b06537",
    "setAdmin(address)": "704b6c02",
    "setDelay(uint256)": "e177246e"
  },
  "id": 28
}