{
  "abi": [
    {
      "inputs": [
        {
          "internalType": "address",
          "name": "_beraAddress",
          "type": "address"
        }
      ],
      "stateMutability": "nonpayable",
      "type": "constructor"
    },
    {
      "inputs": [
        {
          "internalType": "uint256",
          "name": "amount",
          "type": "uint256"
        }
      ],
      "name": "deposit",
      "outputs": [
        {
          "internalType": "uint256",
          "name": "",
          "type": "uint256"
        }
      ],
      "stateMutability": "nonpayable",
      "type": "function"
    },
    {
      "inputs": [
        {
          "internalType": "address",
          "name": "",
          "type": "address"
        }
      ],
      "name": "staked",
      "outputs": [
        {
          "internalType": "uint256",
          "name": "",
          "type": "uint256"
        }
      ],
      "stateMutability": "view",
      "type": "function"
    }
  ],
  "bytecode": {
    "object": "0x608060405234801561000f575f80fd5b5060405161028c38038061028c83398101604081905261002e91610052565b5f80546001600160a01b0319166001600160a01b039290921691909117905561007f565b5f60208284031215610062575f80fd5b81516001600160a01b0381168114610078575f80fd5b9392505050565b6102008061008c5f395ff3fe608060405234801561000f575f80fd5b5060043610610034575f3560e01c806398807d8414610038578063b6b55f2514610069575b5f80fd5b610057610046366004610167565b60016020525f908152604090205481565b60405190815260200160405180910390f35b610057610077366004610194565b335f9081526001602052604081208054674563918244f4000091849184906100a09084906101ab565b90915550505f546100bc906001600160a01b03163330866100d8565b5f546100d2906001600160a01b03163383610127565b92915050565b60405181606052826040528360601b602c526323b872dd60601b600c5260205f6064601c5f895af13d1560015f5114171661011a57637939f4245f526004601cfd5b5f60605260405250505050565b816014528060345263a9059cbb60601b5f5260205f604460105f875af13d1560015f5114171661015e576390b8ec185f526004601cfd5b5f603452505050565b5f60208284031215610177575f80fd5b81356001600160a01b038116811461018d575f80fd5b9392505050565b5f602082840312156101a4575f80fd5b5035919050565b808201808211156100d257634e487b7160e01b5f52601160045260245ffdfea26469706673582212200ff90c8236cf174a3777029260933c6a407fb60b015091373fc6e8843abd955564736f6c63430008140033",
    "linkReferences": {}
  },
  "methodIdentifiers": {
    "deposit(uint256)": "b6b55f25",
    "staked(address)": "98807d84"
  },
  "id": 40
}