{
  "abi": [
    {
      "inputs": [
        {
          "internalType": "address",
          "name": "_multisig",
          "type": "address"
        },
        {
          "internalType": "address",
          "name": "_porridge",
          "type": "address"
        },
        {
          "internalType": "address",
          "name": "_borrow",
          "type": "address"
        },
        {
          "internalType": "address",
          "name": "_lge",
          "type": "address"
        },
        {
          "internalType": "address",
          "name": "_honey",
          "type": "address"
        }
      ],
      "stateMutability": "nonpayable",
      "type": "constructor"
    },
    {
      "inputs": [],
      "name": "AllowanceOverflow",
      "type": "error"
    },
    {
      "inputs": [],
      "name": "AllowanceUnderflow",
      "type": "error"
    },
    {
      "inputs": [],
      "name": "ExcessiveSlippage",
      "type": "error"
    },
    {
      "inputs": [],
      "name": "InsufficientAllowance",
      "type": "error"
    },
    {
      "inputs": [],
      "name": "InsufficientBalance",
      "type": "error"
    },
    {
      "inputs": [],
      "name": "InvalidPermit",
      "type": "error"
    },
    {
      "inputs": [],
      "name": "NotBorrow",
      "type": "error"
    },
    {
      "inputs": [],
      "name": "NotLGE",
      "type": "error"
    },
    {
      "inputs": [],
      "name": "NotMultisig",
      "type": "error"
    },
    {
      "inputs": [],
      "name": "NotPorridge",
      "type": "error"
    },
    {
      "inputs": [],
      "name": "PermitExpired",
      "type": "error"
    },
    {
      "inputs": [],
      "name": "TotalSupplyOverflow",
      "type": "error"
    },
    {
      "anonymous": false,
      "inputs": [
        {
          "indexed": true,
          "internalType": "address",
          "name": "owner",
          "type": "address"
        },
        {
          "indexed": true,
          "internalType": "address",
          "name": "spender",
          "type": "address"
        },
        {
          "indexed": false,
          "internalType": "uint256",
          "name": "amount",
          "type": "uint256"
        }
      ],
      "name": "Approval",
      "type": "event"
    },
    {
      "anonymous": false,
      "inputs": [
        {
          "indexed": true,
          "internalType": "address",
          "name": "user",
          "type": "address"
        },
        {
          "indexed": false,
          "internalType": "uint256",
          "name": "amount",
          "type": "uint256"
        }
      ],
      "name": "Buy",
      "type": "event"
    },
    {
      "anonymous": false,
      "inputs": [
        {
          "indexed": true,
          "internalType": "address",
          "name": "user",
          "type": "address"
        },
        {
          "indexed": false,
          "internalType": "uint256",
          "name": "amount",
          "type": "uint256"
        }
      ],
      "name": "Redeem",
      "type": "event"
    },
    {
      "anonymous": false,
      "inputs": [
        {
          "indexed": true,
          "internalType": "address",
          "name": "user",
          "type": "address"
        },
        {
          "indexed": false,
          "internalType": "uint256",
          "name": "amount",
          "type": "uint256"
        }
      ],
      "name": "Sale",
      "type": "event"
    },
    {
      "anonymous": false,
      "inputs": [
        {
          "indexed": true,
          "internalType": "address",
          "name": "from",
          "type": "address"
        },
        {
          "indexed": true,
          "internalType": "address",
          "name": "to",
          "type": "address"
        },
        {
          "indexed": false,
          "internalType": "uint256",
          "name": "amount",
          "type": "uint256"
        }
      ],
      "name": "Transfer",
      "type": "event"
    },
    {
      "inputs": [],
      "name": "DAYS_SECONDS",
      "outputs": [
        {
          "internalType": "uint256",
          "name": "",
          "type": "uint256"
        }
      ],
      "stateMutability": "view",
      "type": "function"
    },
    {
      "inputs": [],
      "name": "DOMAIN_SEPARATOR",
      "outputs": [
        {
          "internalType": "bytes32",
          "name": "result",
          "type": "bytes32"
        }
      ],
      "stateMutability": "view",
      "type": "function"
    },
    {
      "inputs": [],
      "name": "MAX_FLOOR_REDUCE",
      "outputs": [
        {
          "internalType": "uint256",
          "name": "",
          "type": "uint256"
        }
      ],
      "stateMutability": "view",
      "type": "function"
    },
    {
      "inputs": [
        {
          "internalType": "address",
          "name": "owner",
          "type": "address"
        },
        {
          "internalType": "address",
          "name": "spender",
          "type": "address"
        }
      ],
      "name": "allowance",
      "outputs": [
        {
          "internalType": "uint256",
          "name": "result",
          "type": "uint256"
        }
      ],
      "stateMutability": "view",
      "type": "function"
    },
    {
      "inputs": [
        {
          "internalType": "address",
          "name": "spender",
          "type": "address"
        },
        {
          "internalType": "uint256",
          "name": "amount",
          "type": "uint256"
        }
      ],
      "name": "approve",
      "outputs": [
        {
          "internalType": "bool",
          "name": "",
          "type": "bool"
        }
      ],
      "stateMutability": "nonpayable",
      "type": "function"
    },
    {
      "inputs": [
        {
          "internalType": "address",
          "name": "owner",
          "type": "address"
        }
      ],
      "name": "balanceOf",
      "outputs": [
        {
          "internalType": "uint256",
          "name": "result",
          "type": "uint256"
        }
      ],
      "stateMutability": "view",
      "type": "function"
    },
    {
      "inputs": [],
      "name": "borrow",
      "outputs": [
        {
          "internalType": "address",
          "name": "",
          "type": "address"
        }
      ],
      "stateMutability": "view",
      "type": "function"
    },
    {
      "inputs": [
        {
          "internalType": "address",
          "name": "to",
          "type": "address"
        },
        {
          "internalType": "uint256",
          "name": "amount",
          "type": "uint256"
        },
        {
          "internalType": "uint256",
          "name": "fee",
          "type": "uint256"
        }
      ],
      "name": "borrowTransfer",
      "outputs": [],
      "stateMutability": "nonpayable",
      "type": "function"
    },
    {
      "inputs": [
        {
          "internalType": "uint256",
          "name": "amount",
          "type": "uint256"
        },
        {
          "internalType": "uint256",
          "name": "maxAmount",
          "type": "uint256"
        }
      ],
      "name": "buy",
      "outputs": [],
      "stateMutability": "nonpayable",
      "type": "function"
    },
    {
      "inputs": [],
      "name": "decimals",
      "outputs": [
        {
          "internalType": "uint8",
          "name": "",
          "type": "uint8"
        }
      ],
      "stateMutability": "view",
      "type": "function"
    },
    {
      "inputs": [],
      "name": "floorPrice",
      "outputs": [
        {
          "internalType": "uint256",
          "name": "",
          "type": "uint256"
        }
      ],
      "stateMutability": "view",
      "type": "function"
    },
    {
      "inputs": [],
      "name": "fsl",
      "outputs": [
        {
          "internalType": "uint256",
          "name": "",
          "type": "uint256"
        }
      ],
      "stateMutability": "view",
      "type": "function"
    },
    {
      "inputs": [],
      "name": "honey",
      "outputs": [
        {
          "internalType": "address",
          "name": "",
          "type": "address"
        }
      ],
      "stateMutability": "view",
      "type": "function"
    },
    {
      "inputs": [
        {
          "internalType": "uint256",
          "name": "fslLiq",
          "type": "uint256"
        },
        {
          "internalType": "uint256",
          "name": "pslLiq",
          "type": "uint256"
        }
      ],
      "name": "initiatePresaleClaim",
      "outputs": [],
      "stateMutability": "nonpayable",
      "type": "function"
    },
    {
      "inputs": [
        {
          "internalType": "uint256",
          "name": "fslLiq",
          "type": "uint256"
        },
        {
          "internalType": "uint256",
          "name": "pslLiq",
          "type": "uint256"
        }
      ],
      "name": "injectLiquidity",
      "outputs": [],
      "stateMutability": "nonpayable",
      "type": "function"
    },
    {
      "inputs": [],
      "name": "lastFloorDecrease",
      "outputs": [
        {
          "internalType": "uint256",
          "name": "",
          "type": "uint256"
        }
      ],
      "stateMutability": "view",
      "type": "function"
    },
    {
      "inputs": [],
      "name": "lastFloorRaise",
      "outputs": [
        {
          "internalType": "uint256",
          "name": "",
          "type": "uint256"
        }
      ],
      "stateMutability": "view",
      "type": "function"
    },
    {
      "inputs": [],
      "name": "lge",
      "outputs": [
        {
          "internalType": "address",
          "name": "",
          "type": "address"
        }
      ],
      "stateMutability": "view",
      "type": "function"
    },
    {
      "inputs": [],
      "name": "marketPrice",
      "outputs": [
        {
          "internalType": "uint256",
          "name": "",
          "type": "uint256"
        }
      ],
      "stateMutability": "view",
      "type": "function"
    },
    {
      "inputs": [],
      "name": "multisig",
      "outputs": [
        {
          "internalType": "address",
          "name": "",
          "type": "address"
        }
      ],
      "stateMutability": "view",
      "type": "function"
    },
    {
      "inputs": [],
      "name": "name",
      "outputs": [
        {
          "internalType": "string",
          "name": "",
          "type": "string"
        }
      ],
      "stateMutability": "pure",
      "type": "function"
    },
    {
      "inputs": [
        {
          "internalType": "address",
          "name": "owner",
          "type": "address"
        }
      ],
      "name": "nonces",
      "outputs": [
        {
          "internalType": "uint256",
          "name": "result",
          "type": "uint256"
        }
      ],
      "stateMutability": "view",
      "type": "function"
    },
    {
      "inputs": [
        {
          "internalType": "address",
          "name": "owner",
          "type": "address"
        },
        {
          "internalType": "address",
          "name": "spender",
          "type": "address"
        },
        {
          "internalType": "uint256",
          "name": "value",
          "type": "uint256"
        },
        {
          "internalType": "uint256",
          "name": "deadline",
          "type": "uint256"
        },
        {
          "internalType": "uint8",
          "name": "v",
          "type": "uint8"
        },
        {
          "internalType": "bytes32",
          "name": "r",
          "type": "bytes32"
        },
        {
          "internalType": "bytes32",
          "name": "s",
          "type": "bytes32"
        }
      ],
      "name": "permit",
      "outputs": [],
      "stateMutability": "nonpayable",
      "type": "function"
    },
    {
      "inputs": [],
      "name": "porridge",
      "outputs": [
        {
          "internalType": "address",
          "name": "",
          "type": "address"
        }
      ],
      "stateMutability": "view",
      "type": "function"
    },
    {
      "inputs": [
        {
          "internalType": "address",
          "name": "to",
          "type": "address"
        },
        {
          "internalType": "uint256",
          "name": "amount",
          "type": "uint256"
        }
      ],
      "name": "porridgeMint",
      "outputs": [],
      "stateMutability": "nonpayable",
      "type": "function"
    },
    {
      "inputs": [],
      "name": "psl",
      "outputs": [
        {
          "internalType": "uint256",
          "name": "",
          "type": "uint256"
        }
      ],
      "stateMutability": "view",
      "type": "function"
    },
    {
      "inputs": [
        {
          "internalType": "uint256",
          "name": "amount",
          "type": "uint256"
        }
      ],
      "name": "redeem",
      "outputs": [],
      "stateMutability": "nonpayable",
      "type": "function"
    },
    {
      "inputs": [
        {
          "internalType": "uint256",
          "name": "amount",
          "type": "uint256"
        },
        {
          "internalType": "uint256",
          "name": "minAmount",
          "type": "uint256"
        }
      ],
      "name": "sell",
      "outputs": [],
      "stateMutability": "nonpayable",
      "type": "function"
    },
    {
      "inputs": [
        {
          "internalType": "address",
          "name": "_multisig",
          "type": "address"
        }
      ],
      "name": "setMultisig",
      "outputs": [],
      "stateMutability": "nonpayable",
      "type": "function"
    },
    {
      "inputs": [],
      "name": "supply",
      "outputs": [
        {
          "internalType": "uint256",
          "name": "",
          "type": "uint256"
        }
      ],
      "stateMutability": "view",
      "type": "function"
    },
    {
      "inputs": [],
      "name": "symbol",
      "outputs": [
        {
          "internalType": "string",
          "name": "",
          "type": "string"
        }
      ],
      "stateMutability": "pure",
      "type": "function"
    },
    {
      "inputs": [],
      "name": "targetRatio",
      "outputs": [
        {
          "internalType": "uint256",
          "name": "",
          "type": "uint256"
        }
      ],
      "stateMutability": "view",
      "type": "function"
    },
    {
      "inputs": [],
      "name": "totalSupply",
      "outputs": [
        {
          "internalType": "uint256",
          "name": "result",
          "type": "uint256"
        }
      ],
      "stateMutability": "view",
      "type": "function"
    },
    {
      "inputs": [
        {
          "internalType": "address",
          "name": "to",
          "type": "address"
        },
        {
          "internalType": "uint256",
          "name": "amount",
          "type": "uint256"
        }
      ],
      "name": "transfer",
      "outputs": [
        {
          "internalType": "bool",
          "name": "",
          "type": "bool"
        }
      ],
      "stateMutability": "nonpayable",
      "type": "function"
    },
    {
      "inputs": [
        {
          "internalType": "address",
          "name": "from",
          "type": "address"
        },
        {
          "internalType": "address",
          "name": "to",
          "type": "address"
        },
        {
          "internalType": "uint256",
          "name": "amount",
          "type": "uint256"
        }
      ],
      "name": "transferFrom",
      "outputs": [
        {
          "internalType": "bool",
          "name": "",
          "type": "bool"
        }
      ],
      "stateMutability": "nonpayable",
      "type": "function"
    }
  ],
  "bytecode": {
    "object": "0x60c060405262015180608052674563918244f4000060a0526a01287626ee52197b0000005f556954b40b1f852bda00000060015569010f0cf064dd592000006002556704fefa17b724000060035534801562000059575f80fd5b506040516200181a3803806200181a8339810160408190526200007c9162000104565b600680546001600160a01b03199081166001600160a01b03978816179091556007805482169587169590951790945560088054851693861693909317909255600980548416918516919091179055600a8054909216921691909117905542600481905560055562000170565b80516001600160a01b0381168114620000ff575f80fd5b919050565b5f805f805f60a0868803121562000119575f80fd5b6200012486620000e8565b94506200013460208701620000e8565b93506200014460408701620000e8565b92506200015460608701620000e8565b91506200016460808701620000e8565b90509295509295909350565b60805160a051611665620001b55f395f8181610265015281816111a301526111e001525f81816103be015281816111210152818161114c015261117b01526116655ff3fe608060405234801561000f575f80fd5b5060043610610208575f3560e01c80637ecebe001161011f578063d2b478ed116100a9578063db006a7511610079578063db006a751461047a578063dd62ed3e1461048d578063e68d3569146104b5578063ea194de0146104c8578063f3283fba146104db575f80fd5b8063d2b478ed14610438578063d505accf14610441578063d6febde814610454578063d79875eb14610467575f80fd5b80639363c812116100ef5780639363c812146103e057806395d89b41146103e8578063a9059cbb14610409578063c1433f441461041c578063d054a16f1461042f575f80fd5b80637ecebe0014610378578063804688121461039d57806388b1220f146103a6578063903d78fb146103b9575f80fd5b80632cf711a1116101a057806336b2c4b21161017057806336b2c4b21461031c57806345a153881461032f5780634783c35b146103375780635a08bd171461034a57806370a0823114610353575f80fd5b80632cf711a1146102c757806330e5aba0146102f2578063313ce567146103055780633644e51514610314575f80fd5b806318160ddd116101db57806318160ddd146102875780631db77a4d146102975780631f62eec41461029f57806323b872dd146102b4575f80fd5b8063047fc9aa1461020c57806306fdde0314610228578063095ea7b31461023d5780630b4e03bb14610260575b5f80fd5b61021560025481565b6040519081526020015b60405180910390f35b6102306104ee565b60405161021f91906113ba565b61025061024b366004611420565b610513565b604051901515815260200161021f565b6102157f000000000000000000000000000000000000000000000000000000000000000081565b6805345cdf77eb68f44c54610215565b6102155f5481565b6102b26102ad366004611420565b610563565b005b6102506102c2366004611448565b61059c565b6007546102da906001600160a01b031681565b6040516001600160a01b03909116815260200161021f565b6009546102da906001600160a01b031681565b6040516012815260200161021f565b610215610643565b600a546102da906001600160a01b031681565b6102156106bf565b6006546102da906001600160a01b031681565b61021560035481565b610215610361366004611481565b6387a211a2600c9081525f91909152602090205490565b610215610386366004611481565b6338377508600c9081525f91909152602090205490565b61021560015481565b6102b26103b436600461149a565b6106d5565b6102157f000000000000000000000000000000000000000000000000000000000000000081565b610215610728565b6040805180820190915260058152644c4f434b5360d81b6020820152610230565b610250610417366004611420565b610736565b6102b261042a36600461149a565b61079a565b61021560055481565b61021560045481565b6102b261044f3660046114ba565b610813565b6102b261046236600461149a565b610995565b6102b261047536600461149a565b610a83565b6102b2610488366004611527565b610b83565b61021561049b36600461153e565b602052637f5e9f20600c9081525f91909152603490205490565b6008546102da906001600160a01b031681565b6102b26104d636600461156f565b610c2c565b6102b26104e9366004611481565b610c8f565b60408051808201909152600b81526a2637b1b5b9902a37b5b2b760a91b602082015290565b5f82602052637f5e9f20600c52335f52816034600c2055815f52602c5160601c337f8c5be1e5ebec7d5bd14f71427d1e84f3dd0314c0f7b2291e5b200ac8c7c3b92560205fa35060015b92915050565b6007546001600160a01b0316331461058e57604051630da7dbfb60e01b815260040160405180910390fd5b6105988282610cdc565b5050565b5f8360601b33602052637f5e9f208117600c526034600c20805460018101156105da57808511156105d4576313be252b5f526004601cfd5b84810382555b50506387a211a28117600c526020600c208054808511156106025763f4d678b85f526004601cfd5b84810382555050835f526020600c208381540181555082602052600c5160601c8160601c5f80516020611610833981519152602080a3505060019392505050565b5f8061064d6104ee565b8051906020012090506040517f8b73c3c69bb8fe3d512ecc4cf759cc79239f7b179b0ffacaa9a75d522b39400f81528160208201527fc89efdaa54c0f20c7adf612882df0950f5a951637e0307cdcb4c672f298b8bc6604082015246606082015230608082015260a081209250505090565b5f6106d05f54600154600254610d45565b905090565b6009546001600160a01b0316331461070057604051638ec76d4960e01b815260040160405180910390fd5b5f829055600181905569021e19e0c9bab240000060028190556107233382610cdc565b505050565b5f6106d05f54600254610d8c565b5f6387a211a2600c52335f526020600c2080548084111561075e5763f4d678b85f526004601cfd5b83810382555050825f526020600c208281540181555081602052600c5160601c335f80516020611610833981519152602080a350600192915050565b6006546001600160a01b031633146107c55760405163f05e412b60e01b815260040160405180910390fd5b815f808282546107d591906115b3565b925050819055508060015f8282546107ed91906115b3565b9091555050600a54610598906001600160a01b0316333061080e85876115b3565b610d9e565b5f61081c6104ee565b8051906020012090508442111561083a57631a15a3cc5f526004601cfd5b6040518860601b60601c98508760601b60601c975065383775081901600e52885f526020600c2080547f8b73c3c69bb8fe3d512ecc4cf759cc79239f7b179b0ffacaa9a75d522b39400f83528360208401527fc89efdaa54c0f20c7adf612882df0950f5a951637e0307cdcb4c672f298b8bc6604084015246606084015230608084015260a08320602e527f6e71edae12b1b97f4d1f60370fef10105fa2faae0126114a169c64845d6126c983528a60208401528960408401528860608401528060808401528760a084015260c08320604e526042602c205f528660ff16602052856040528460605260208060805f60015afa8b3d51146109425763ddafbaef5f526004601cfd5b0190556303faf4f960a51b88176040526034602c2087905587897f8c5be1e5ebec7d5bd14f71427d1e84f3dd0314c0f7b2291e5b200ac8c7c3b925602060608501a360405250505f606052505050505050565b6002545f805460015490918080806109af8587898c610ded565b93509350935093505f6103e8826109c691906115c6565b6109d19060036115e5565b9050886109de82846115b3565b11156109fd576040516397c7f53760e01b815260040160405180910390fd5b610a0781856115b3565b5f5560018590556002839055610a1b610f62565b600a54610a37906001600160a01b0316333061080e85876115b3565b610a41338b610cdc565b6040518a815233907fe3d4187f6ca4248660cc0ac8b8056515bac4a8132be2eca31d6d0cc170722a7e906020015b60405180910390a250505050505050505050565b6002545f80546001549091808080610a9d8587898c610ff2565b93509350935093505f6103e882610ab491906115c6565b610abf9060356115e5565b905088610acc82846115fc565b1015610aeb576040516397c7f53760e01b815260040160405180910390fd5b610af66002826115c6565b610b0090856115b3565b5f55610b0d6002826115c6565b610b1790866115b3565b6001556002839055610b276110fd565b610b31338b611248565b600a54610b51906001600160a01b031633610b4c84866115fc565b6112a9565b6040518a815233907fc6851889326b4ff916523ef06f539b4cf0b81d78fc6e0f97c30e6223d183199090602001610a6f565b5f610b9a82610b955f54600254610d8c565b6112e9565b90508160025f828254610bad91906115fc565b92505081905550805f80828254610bc491906115fc565b90915550610bd29050610f62565b610bdc3383611248565b600a54610bf3906001600160a01b031633836112a9565b60405182815233907f222838db2794d11532d940e8dec38ae307ed0b63cd97c233322e221f998767a69060200160405180910390a25050565b6008546001600160a01b03163314610c5757604051635a2d193d60e01b815260040160405180910390fd5b600a54610c72906001600160a01b031684610b4c84866115fc565b600a54600654610723916001600160a01b039081169116836112a9565b6006546001600160a01b03163314610cba5760405163f05e412b60e01b815260040160405180910390fd5b600680546001600160a01b0319166001600160a01b0392909216919091179055565b6805345cdf77eb68f44c5481810181811015610cff5763e5cfe9575f526004601cfd5b806805345cdf77eb68f44c5550506387a211a2600c52815f526020600c208181540181555080602052600c5160601c5f5f80516020611610833981519152602080a35050565b5f610d70610d538484611314565b610b95610d69610d6388886115b3565b88611314565b6005611361565b610d7a8584611314565b610d8491906115b3565b949350505050565b5f610d978383611314565b9392505050565b60405181606052826040528360601b602c526323b872dd60601b600c5260205f6064601c5f895af13d1560015f51141716610de057637939f4245f526004601cfd5b5f60605260405250505050565b5f805f805f805f5b670de0b6b3a76400008810610ea557610e0f8a8c8b610d45565b9250610e1b8a8a610d8c565b9150610e2783826115b3565b9050610e3b670de0b6b3a76400008a6115b3565b9850610e488a60326115e5565b610e538c60646115e5565b10610e6957610e62838b6115b3565b9950610e8c565b610e7382846115fc565b610e7d908c6115b3565b9a50610e89828b6115b3565b99505b610e9e670de0b6b3a7640000896115fc565b9750610df5565b8715610f5257610eb68a8c8b610d45565b9250610ec28a8a610d8c565b9150610ece83896112e9565b610ed890826115b3565b9050610ee4888a6115b3565b9850610ef18a60326115e5565b610efc8c60646115e5565b10610f1c57610f0b83896112e9565b610f15908b6115b3565b9950610f52565b610f2f610f2983856115fc565b896112e9565b610f39908c6115b3565b9a50610f4582896112e9565b610f4f908b6115b3565b99505b999a989997989650505050505050565b600354610f726001545f54611314565b10610ff0575f610f97610f886001545f54611314565b6020600154610b9591906115c6565b90508060015f828254610faa91906115fc565b92505081905550805f80828254610fc191906115b3565b9091555050600354610fd5906032906115c6565b60035f828254610fe591906115b3565b909155505042600455505b565b5f805f805f805f5b670de0b6b3a7640000881061107d576110148a8c8b610d45565b92506110208a8a610d8c565b915061102c83826115b3565b905061103882846115fc565b611042908c6115fc565b9a5061104e828b6115fc565b9950611062670de0b6b3a76400008a6115fc565b9850611076670de0b6b3a7640000896115fc565b9750610ffa565b8715610f525761108e8a8c8b610d45565b925061109a8a8a610d8c565b91506110a683896112e9565b6110b090826115b3565b90506110bf610f2983856115fc565b6110c9908c6115fc565b9a506110d582896112e9565b6110df908b6115fc565b99506110eb888a6115fc565b9a9b999a999098509650505050505050565b5f6004544261110c91906115fc565b90505f6005544261111d91906115fc565b90507f0000000000000000000000000000000000000000000000000000000000000000821015801561116f57507f00000000000000000000000000000000000000000000000000000000000000008110155b15610598575f61119f837f0000000000000000000000000000000000000000000000000000000000000000611314565b90507f00000000000000000000000000000000000000000000000000000000000000008111156112165761120e60646003546111db91906115c6565b610b957f000000000000000000000000000000000000000000000000000000000000000068056bc75e2d631000006115fc565b60035561123f565b61123b606460035461122891906115c6565b610b958368056bc75e2d631000006115fc565b6003555b50426005555050565b6387a211a2600c52815f526020600c2080548083111561126f5763f4d678b85f526004601cfd5b82900390556805345cdf77eb68f44c805482900390555f8181526001600160a01b0383165f80516020611610833981519152602083a35050565b816014528060345263a9059cbb60601b5f5260205f604460105f875af13d1560015f511417166112e0576390b8ec185f526004601cfd5b5f603452505050565b5f815f190483118202156113045763bac65e5b5f526004601cfd5b50670de0b6b3a764000091020490565b5f7812725dd1d243aba0e75fe645cc4873f9e65afe688c928e1f218311670de0b6b3a76400000215820261134f57637c5f487d5f526004601cfd5b50670de0b6b3a7640000919091020490565b5f80826001161161137a57670de0b6b3a764000061137c565b825b9050600182901c91505b811561055d5761139683846112e9565b925060018216156113ae576113ab81846112e9565b90505b600182901c9150611386565b5f6020808352835180828501525f5b818110156113e5578581018301518582016040015282016113c9565b505f604082860101526040601f19601f8301168501019250505092915050565b80356001600160a01b038116811461141b575f80fd5b919050565b5f8060408385031215611431575f80fd5b61143a83611405565b946020939093013593505050565b5f805f6060848603121561145a575f80fd5b61146384611405565b925061147160208501611405565b9150604084013590509250925092565b5f60208284031215611491575f80fd5b610d9782611405565b5f80604083850312156114ab575f80fd5b50508035926020909101359150565b5f805f805f805f60e0888a0312156114d0575f80fd5b6114d988611405565b96506114e760208901611405565b95506040880135945060608801359350608088013560ff8116811461150a575f80fd5b9699959850939692959460a0840135945060c09093013592915050565b5f60208284031215611537575f80fd5b5035919050565b5f806040838503121561154f575f80fd5b61155883611405565b915061156660208401611405565b90509250929050565b5f805f60608486031215611581575f80fd5b61158a84611405565b95602085013595506040909401359392505050565b634e487b7160e01b5f52601160045260245ffd5b8082018082111561055d5761055d61159f565b5f826115e057634e487b7160e01b5f52601260045260245ffd5b500490565b808202811582820484141761055d5761055d61159f565b8181038181111561055d5761055d61159f56feddf252ad1be2c89b69c2b068fc378daa952ba7f163c4a11628f55a4df523b3efa2646970667358221220864689007585cb6eb47dd4195ddcd09aab98fa96fdbc9f4772ca79baa42879a764736f6c63430008140033",
    "linkReferences": {}
  },
  "methodIdentifiers": {
    "DAYS_SECONDS()": "903d78fb",
    "DOMAIN_SEPARATOR()": "3644e515",
    "MAX_FLOOR_REDUCE()": "0b4e03bb",
    "allowance(address,address)": "dd62ed3e",
    "approve(address,uint256)": "095ea7b3",
    "balanceOf(address)": "70a08231",
    "borrow()": "e68d3569",
    "borrowTransfer(address,uint256,uint256)": "ea194de0",
    "buy(uint256,uint256)": "d6febde8",
    "decimals()": "313ce567",
    "floorPrice()": "9363c812",
    "fsl()": "1db77a4d",
    "honey()": "36b2c4b2",
    "initiatePresaleClaim(uint256,uint256)": "88b1220f",
    "injectLiquidity(uint256,uint256)": "c1433f44",
    "lastFloorDecrease()": "d054a16f",
    "lastFloorRaise()": "d2b478ed",
    "lge()": "30e5aba0",
    "marketPrice()": "45a15388",
    "multisig()": "4783c35b",
    "name()": "06fdde03",
    "nonces(address)": "7ecebe00",
    "permit(address,address,uint256,uint256,uint8,bytes32,bytes32)": "d505accf",
    "porridge()": "2cf711a1",
    "porridgeMint(address,uint256)": "1f62eec4",
    "psl()": "80468812",
    "redeem(uint256)": "db006a75",
    "sell(uint256,uint256)": "d79875eb",
    "setMultisig(address)": "f3283fba",
    "supply()": "047fc9aa",
    "symbol()": "95d89b41",
    "targetRatio()": "5a08bd17",
    "totalSupply()": "18160ddd",
    "transfer(address,uint256)": "a9059cbb",
    "transferFrom(address,address,uint256)": "23b872dd"
  },
  "id": 23
}