{
  "abi": [
    {
      "inputs": [
        {
          "internalType": "address",
          "name": "_locks",
          "type": "address"
        },
        {
          "internalType": "address",
          "name": "_goldigov",
          "type": "address"
        }
      ],
      "stateMutability": "nonpayable",
      "type": "constructor"
    },
    {
      "inputs": [],
      "name": "AllowanceOverflow",
      "type": "error"
    },
    {
      "inputs": [],
      "name": "AllowanceUnderflow",
      "type": "error"
    },
    {
      "inputs": [],
      "name": "InsufficientAllowance",
      "type": "error"
    },
    {
      "inputs": [],
      "name": "InsufficientBalance",
      "type": "error"
    },
    {
      "inputs": [],
      "name": "InvalidPermit",
      "type": "error"
    },
    {
      "inputs": [],
      "name": "NoSuchBlock",
      "type": "error"
    },
    {
      "inputs": [],
      "name": "PermitExpired",
      "type": "error"
    },
    {
      "inputs": [],
      "name": "TotalSupplyOverflow",
      "type": "error"
    },
    {
      "anonymous": false,
      "inputs": [
        {
          "indexed": true,
          "internalType": "address",
          "name": "owner",
          "type": "address"
        },
        {
          "indexed": true,
          "internalType": "address",
          "name": "spender",
          "type": "address"
        },
        {
          "indexed": false,
          "internalType": "uint256",
          "name": "amount",
          "type": "uint256"
        }
      ],
      "name": "Approval",
      "type": "event"
    },
    {
      "anonymous": false,
      "inputs": [
        {
          "indexed": true,
          "internalType": "address",
          "name": "delegator",
          "type": "address"
        },
        {
          "indexed": true,
          "internalType": "address",
          "name": "fromDelegate",
          "type": "address"
        },
        {
          "indexed": true,
          "internalType": "address",
          "name": "toDelegate",
          "type": "address"
        }
      ],
      "name": "DelegateChanged",
      "type": "event"
    },
    {
      "anonymous": false,
      "inputs": [
        {
          "indexed": true,
          "internalType": "address",
          "name": "delegate",
          "type": "address"
        },
        {
          "indexed": false,
          "internalType": "uint256",
          "name": "previousBalance",
          "type": "uint256"
        },
        {
          "indexed": false,
          "internalType": "uint256",
          "name": "newBalance",
          "type": "uint256"
        }
      ],
      "name": "DelegateVotesChanged",
      "type": "event"
    },
    {
      "anonymous": false,
      "inputs": [
        {
          "indexed": true,
          "internalType": "address",
          "name": "from",
          "type": "address"
        },
        {
          "indexed": true,
          "internalType": "address",
          "name": "to",
          "type": "address"
        },
        {
          "indexed": false,
          "internalType": "uint256",
          "name": "amount",
          "type": "uint256"
        }
      ],
      "name": "Transfer",
      "type": "event"
    },
    {
      "inputs": [],
      "name": "DOMAIN_SEPARATOR",
      "outputs": [
        {
          "internalType": "bytes32",
          "name": "result",
          "type": "bytes32"
        }
      ],
      "stateMutability": "view",
      "type": "function"
    },
    {
      "inputs": [
        {
          "internalType": "address",
          "name": "owner",
          "type": "address"
        },
        {
          "internalType": "address",
          "name": "spender",
          "type": "address"
        }
      ],
      "name": "allowance",
      "outputs": [
        {
          "internalType": "uint256",
          "name": "result",
          "type": "uint256"
        }
      ],
      "stateMutability": "view",
      "type": "function"
    },
    {
      "inputs": [
        {
          "internalType": "address",
          "name": "spender",
          "type": "address"
        },
        {
          "internalType": "uint256",
          "name": "amount",
          "type": "uint256"
        }
      ],
      "name": "approve",
      "outputs": [
        {
          "internalType": "bool",
          "name": "",
          "type": "bool"
        }
      ],
      "stateMutability": "nonpayable",
      "type": "function"
    },
    {
      "inputs": [
        {
          "internalType": "address",
          "name": "owner",
          "type": "address"
        }
      ],
      "name": "balanceOf",
      "outputs": [
        {
          "internalType": "uint256",
          "name": "result",
          "type": "uint256"
        }
      ],
      "stateMutability": "view",
      "type": "function"
    },
    {
      "inputs": [
        {
          "internalType": "address",
          "name": "",
          "type": "address"
        },
        {
          "internalType": "uint256",
          "name": "",
          "type": "uint256"
        }
      ],
      "name": "checkpoints",
      "outputs": [
        {
          "internalType": "uint256",
          "name": "fromBlock",
          "type": "uint256"
        },
        {
          "internalType": "uint256",
          "name": "votes",
          "type": "uint256"
        }
      ],
      "stateMutability": "view",
      "type": "function"
    },
    {
      "inputs": [],
      "name": "decimals",
      "outputs": [
        {
          "internalType": "uint8",
          "name": "",
          "type": "uint8"
        }
      ],
      "stateMutability": "view",
      "type": "function"
    },
    {
      "inputs": [
        {
          "internalType": "address",
          "name": "delegatee",
          "type": "address"
        }
      ],
      "name": "delegate",
      "outputs": [],
      "stateMutability": "nonpayable",
      "type": "function"
    },
    {
      "inputs": [
        {
          "internalType": "address",
          "name": "",
          "type": "address"
        }
      ],
      "name": "delegates",
      "outputs": [
        {
          "internalType": "address",
          "name": "",
          "type": "address"
        }
      ],
      "stateMutability": "view",
      "type": "function"
    },
    {
      "inputs": [
        {
          "internalType": "uint256",
          "name": "amount",
          "type": "uint256"
        }
      ],
      "name": "deposit",
      "outputs": [],
      "stateMutability": "nonpayable",
      "type": "function"
    },
    {
      "inputs": [
        {
          "internalType": "address",
          "name": "",
          "type": "address"
        }
      ],
      "name": "deposits",
      "outputs": [
        {
          "internalType": "uint256",
          "name": "",
          "type": "uint256"
        }
      ],
      "stateMutability": "view",
      "type": "function"
    },
    {
      "inputs": [
        {
          "internalType": "address",
          "name": "user",
          "type": "address"
        }
      ],
      "name": "getCurrentVotes",
      "outputs": [
        {
          "internalType": "uint256",
          "name": "",
          "type": "uint256"
        }
      ],
      "stateMutability": "view",
      "type": "function"
    },
    {
      "inputs": [
        {
          "internalType": "address",
          "name": "account",
          "type": "address"
        },
        {
          "internalType": "uint256",
          "name": "blockNumber",
          "type": "uint256"
        }
      ],
      "name": "getPriorVotes",
      "outputs": [
        {
          "internalType": "uint256",
          "name": "",
          "type": "uint256"
        }
      ],
      "stateMutability": "view",
      "type": "function"
    },
    {
      "inputs": [],
      "name": "goldigov",
      "outputs": [
        {
          "internalType": "address",
          "name": "",
          "type": "address"
        }
      ],
      "stateMutability": "view",
      "type": "function"
    },
    {
      "inputs": [],
      "name": "locks",
      "outputs": [
        {
          "internalType": "address",
          "name": "",
          "type": "address"
        }
      ],
      "stateMutability": "view",
      "type": "function"
    },
    {
      "inputs": [],
      "name": "name",
      "outputs": [
        {
          "internalType": "string",
          "name": "",
          "type": "string"
        }
      ],
      "stateMutability": "pure",
      "type": "function"
    },
    {
      "inputs": [
        {
          "internalType": "address",
          "name": "owner",
          "type": "address"
        }
      ],
      "name": "nonces",
      "outputs": [
        {
          "internalType": "uint256",
          "name": "result",
          "type": "uint256"
        }
      ],
      "stateMutability": "view",
      "type": "function"
    },
    {
      "inputs": [
        {
          "internalType": "address",
          "name": "",
          "type": "address"
        }
      ],
      "name": "numCheckpoints",
      "outputs": [
        {
          "internalType": "uint256",
          "name": "",
          "type": "uint256"
        }
      ],
      "stateMutability": "view",
      "type": "function"
    },
    {
      "inputs": [
        {
          "internalType": "address",
          "name": "owner",
          "type": "address"
        },
        {
          "internalType": "address",
          "name": "spender",
          "type": "address"
        },
        {
          "internalType": "uint256",
          "name": "value",
          "type": "uint256"
        },
        {
          "internalType": "uint256",
          "name": "deadline",
          "type": "uint256"
        },
        {
          "internalType": "uint8",
          "name": "v",
          "type": "uint8"
        },
        {
          "internalType": "bytes32",
          "name": "r",
          "type": "bytes32"
        },
        {
          "internalType": "bytes32",
          "name": "s",
          "type": "bytes32"
        }
      ],
      "name": "permit",
      "outputs": [],
      "stateMutability": "nonpayable",
      "type": "function"
    },
    {
      "inputs": [],
      "name": "symbol",
      "outputs": [
        {
          "internalType": "string",
          "name": "",
          "type": "string"
        }
      ],
      "stateMutability": "pure",
      "type": "function"
    },
    {
      "inputs": [],
      "name": "totalSupply",
      "outputs": [
        {
          "internalType": "uint256",
          "name": "result",
          "type": "uint256"
        }
      ],
      "stateMutability": "view",
      "type": "function"
    },
    {
      "inputs": [
        {
          "internalType": "address",
          "name": "to",
          "type": "address"
        },
        {
          "internalType": "uint256",
          "name": "amount",
          "type": "uint256"
        }
      ],
      "name": "transfer",
      "outputs": [
        {
          "internalType": "bool",
          "name": "",
          "type": "bool"
        }
      ],
      "stateMutability": "nonpayable",
      "type": "function"
    },
    {
      "inputs": [
        {
          "internalType": "address",
          "name": "from",
          "type": "address"
        },
        {
          "internalType": "address",
          "name": "to",
          "type": "address"
        },
        {
          "internalType": "uint256",
          "name": "amount",
          "type": "uint256"
        }
      ],
      "name": "transferFrom",
      "outputs": [
        {
          "internalType": "bool",
          "name": "",
          "type": "bool"
        }
      ],
      "stateMutability": "nonpayable",
      "type": "function"
    },
    {
      "inputs": [
        {
          "internalType": "uint256",
          "name": "amount",
          "type": "uint256"
        }
      ],
      "name": "withdraw",
      "outputs": [],
      "stateMutability": "nonpayable",
      "type": "function"
    }
  ],
  "bytecode": {
    "object": "0x608060405234801561000f575f80fd5b506040516111f43803806111f483398101604081905261002e91610079565b5f80546001600160a01b039384166001600160a01b031991821617909155600180549290931691161790556100aa565b80516001600160a01b0381168114610074575f80fd5b919050565b5f806040838503121561008a575f80fd5b6100938361005e565b91506100a16020840161005e565b90509250929050565b61113d806100b75f395ff3fe608060405234801561000f575f80fd5b5060043610610148575f3560e01c806370a08231116100bf578063b6b55f2511610079578063b6b55f2514610345578063c386db5c14610358578063d505accf1461036b578063dd62ed3e1461037e578063f557ab03146103a6578063fc7e286d146103b8575f80fd5b806370a082311461029e578063782d6fe1146102c35780637ecebe00146102d657806395d89b41146102fb578063a9059cbb1461031f578063b4b5ea5714610332575f80fd5b80632e1a7d4d116101105780632e1a7d4d14610200578063313ce567146102155780633644e51514610224578063587cde1e1461022c5780635c19a95c1461026c5780636fcfff451461027f575f80fd5b806306fdde031461014c578063095ea7b31461016a5780630cdfebfa1461018d57806318160ddd146101d357806323b872dd146101ed575b5f80fd5b6101546103d7565b6040516101619190610ef9565b60405180910390f35b61017d610178366004610f5f565b610401565b6040519015158152602001610161565b6101be61019b366004610f5f565b600560209081525f92835260408084209091529082529020805460019091015482565b60408051928352602083019190915201610161565b6805345cdf77eb68f44c545b604051908152602001610161565b61017d6101fb366004610f87565b610451565b61021361020e366004610fc0565b610503565b005b60405160128152602001610161565b6101df610555565b61025461023a366004610fd7565b60036020525f90815260409020546001600160a01b031681565b6040516001600160a01b039091168152602001610161565b61021361027a366004610fd7565b6105d1565b6101df61028d366004610fd7565b60046020525f908152604090205481565b6101df6102ac366004610fd7565b6387a211a2600c9081525f91909152602090205490565b6101df6102d1366004610f5f565b6105db565b6101df6102e4366004610fd7565b6338377508600c9081525f91909152602090205490565b604080518082019091526008815267676f764c4f434b5360c01b6020820152610154565b61017d61032d366004610f5f565b6107b3565b6101df610340366004610fd7565b610822565b610213610353366004610fc0565b610881565b600154610254906001600160a01b031681565b610213610379366004610ff0565b6108d1565b6101df61038c36600461105d565b602052637f5e9f20600c9081525f91909152603490205490565b5f54610254906001600160a01b031681565b6101df6103c6366004610fd7565b60026020525f908152604090205481565b60408051808201909152601081526f476f7665726e616e6365204c6f636b7360801b602082015290565b5f82602052637f5e9f20600c52335f52816034600c2055815f52602c5160601c337f8c5be1e5ebec7d5bd14f71427d1e84f3dd0314c0f7b2291e5b200ac8c7c3b92560205fa35060015b92915050565b5f8360601b33602052637f5e9f208117600c526034600c208054600181011561048f5780851115610489576313be252b5f526004601cfd5b84810382555b50506387a211a28117600c526020600c208054808511156104b75763f4d678b85f526004601cfd5b84810382555050835f526020600c208381540181555082602052600c5160601c8160601c5f805160206110e8833981519152602080a3506104f9848484610a58565b5060019392505050565b335f90815260026020526040812080548392906105219084906110a2565b909155506105329050335f83610a85565b61053c3382610bbd565b5f54610552906001600160a01b03163383610c29565b50565b5f8061055f6103d7565b8051906020012090506040517f8b73c3c69bb8fe3d512ecc4cf759cc79239f7b179b0ffacaa9a75d522b39400f81528160208201527fc89efdaa54c0f20c7adf612882df0950f5a951637e0307cdcb4c672f298b8bc6604082015246606082015230608082015260a081209250505090565b6105523382610c69565b5f4382106105fc57604051631fb1a82d60e31b815260040160405180910390fd5b6001600160a01b0383165f9081526004602052604081205490819003610625575f91505061044b565b6001600160a01b0384165f90815260056020526040812084916106496001856110a2565b81526020019081526020015f205f01541161069a576001600160a01b0384165f908152600560205260408120906106816001846110a2565b81526020019081526020015f206001015491505061044b565b6001600160a01b0384165f9081526005602090815260408083208380529091529020548310156106cd575f91505061044b565b5f806106da6001846110a2565b90505b81811115610784575f60026106f284846110a2565b6106fc91906110b5565b61070690836110a2565b6001600160a01b0388165f90815260056020908152604080832084845282529182902082518084019093528054808452600190910154918301919091529192509087900361075e5760200151945061044b9350505050565b805187111561076f5781935061077d565b61077a6001836110a2565b92505b50506106dd565b506001600160a01b0385165f908152600560209081526040808320938352929052206001015491505092915050565b5f6387a211a2600c52335f526020600c208054808411156107db5763f4d678b85f526004601cfd5b83810382555050825f526020600c208281540181555081602052600c5160601c335f805160206110e8833981519152602080a3610819338484610a58565b50600192915050565b6001600160a01b0381165f9081526004602052604081205480610845575f61087a565b6001600160a01b0383165f908152600560205260408120906108686001846110a2565b81526020019081526020015f20600101545b9392505050565b335f908152600260205260408120805483929061089f9084906110d4565b909155506108b090505f3383610a85565b5f546108c7906001600160a01b0316333084610d0d565b6105523382610d5c565b5f6108da6103d7565b805190602001209050844211156108f857631a15a3cc5f526004601cfd5b6040518860601b60601c98508760601b60601c975065383775081901600e52885f526020600c2080547f8b73c3c69bb8fe3d512ecc4cf759cc79239f7b179b0ffacaa9a75d522b39400f83528360208401527fc89efdaa54c0f20c7adf612882df0950f5a951637e0307cdcb4c672f298b8bc6604084015246606084015230608084015260a08320602e527f6e71edae12b1b97f4d1f60370fef10105fa2faae0126114a169c64845d6126c983528a60208401528960408401528860608401528060808401528760a084015260c08320604e526042602c205f528660ff16602052856040528460605260208060805f60015afa8b3d5114610a005763ddafbaef5f526004601cfd5b0190556303faf4f960a51b88176040526034602c2087905587897f8c5be1e5ebec7d5bd14f71427d1e84f3dd0314c0f7b2291e5b200ac8c7c3b925602060608501a360405250505f606052505050505050565b505050565b6001600160a01b038084165f90815260036020526040808220548584168352912054610a53929182169116835b816001600160a01b0316836001600160a01b031614158015610aa657505f81115b15610a53576001600160a01b03831615610b32576001600160a01b0383165f908152600460205260408120549081610ade575f610b13565b6001600160a01b0385165f90815260056020526040812090610b016001856110a2565b81526020019081526020015f20600101545b90505f610b2084836110a2565b9050610b2e86848484610dcc565b5050505b6001600160a01b03821615610a53576001600160a01b0382165f908152600460205260408120549081610b65575f610b9a565b6001600160a01b0384165f90815260056020526040812090610b886001856110a2565b81526020019081526020015f20600101545b90505f610ba784836110d4565b9050610bb585848484610dcc565b505050505050565b6387a211a2600c52815f526020600c20805480831115610be45763f4d678b85f526004601cfd5b82900390556805345cdf77eb68f44c805482900390555f8181526001600160a01b0383165f805160206110e8833981519152602083a3610c25825f83610a58565b5050565b816014528060345263a9059cbb60601b5f5260205f604460105f875af13d1560015f51141716610c60576390b8ec185f526004601cfd5b5f603452505050565b6001600160a01b038281165f818152600360208181526040832080546387a211a2600c90815289865283902054959094529190528484166001600160a01b0319831617905590911690610cbd828483610a85565b826001600160a01b0316826001600160a01b0316856001600160a01b03167f3134e8a2e6d97e929a7e54011ea5485d7d196dd5f0ba4d4ef95803e8e3fc257f60405160405180910390a450505050565b60405181606052826040528360601b602c526323b872dd60601b600c5260205f6064601c5f895af13d1560015f51141716610d4f57637939f4245f526004601cfd5b5f60605260405250505050565b6805345cdf77eb68f44c5481810181811015610d7f5763e5cfe9575f526004601cfd5b806805345cdf77eb68f44c5550506387a211a2600c52815f526020600c208181540181555080602052600c5160601c5f5f805160206110e8833981519152602080a3610c255f8383610a58565b5f83118015610e0c57506001600160a01b0384165f9081526005602052604081204391610dfa6001876110a2565b81526020019081526020015f205f0154145b15610e4d576001600160a01b0384165f9081526005602052604081208291610e356001876110a2565b815260208101919091526040015f2060010155610eaf565b60408051808201825243815260208082018481526001600160a01b0388165f90815260058352848120888252909252929020905181559051600191820155610e969084906110d4565b6001600160a01b0385165f908152600460205260409020555b60408051838152602081018390526001600160a01b038616917fdec2bacdd2f05b59de34da9b523dff8be42e5e38e818c82fdb0bae774387a724910160405180910390a250505050565b5f6020808352835180828501525f5b81811015610f2457858101830151858201604001528201610f08565b505f604082860101526040601f19601f8301168501019250505092915050565b80356001600160a01b0381168114610f5a575f80fd5b919050565b5f8060408385031215610f70575f80fd5b610f7983610f44565b946020939093013593505050565b5f805f60608486031215610f99575f80fd5b610fa284610f44565b9250610fb060208501610f44565b9150604084013590509250925092565b5f60208284031215610fd0575f80fd5b5035919050565b5f60208284031215610fe7575f80fd5b61087a82610f44565b5f805f805f805f60e0888a031215611006575f80fd5b61100f88610f44565b965061101d60208901610f44565b95506040880135945060608801359350608088013560ff81168114611040575f80fd5b9699959850939692959460a0840135945060c09093013592915050565b5f806040838503121561106e575f80fd5b61107783610f44565b915061108560208401610f44565b90509250929050565b634e487b7160e01b5f52601160045260245ffd5b8181038181111561044b5761044b61108e565b5f826110cf57634e487b7160e01b5f52601260045260245ffd5b500490565b8082018082111561044b5761044b61108e56feddf252ad1be2c89b69c2b068fc378daa952ba7f163c4a11628f55a4df523b3efa2646970667358221220fe7364f672cc2ea9d109e5ebb91b85a0ac3093a82101aa0a3aa2f81147691d3364736f6c63430008140033",
    "linkReferences": {}
  },
  "methodIdentifiers": {
    "DOMAIN_SEPARATOR()": "3644e515",
    "allowance(address,address)": "dd62ed3e",
    "approve(address,uint256)": "095ea7b3",
    "balanceOf(address)": "70a08231",
    "checkpoints(address,uint256)": "0cdfebfa",
    "decimals()": "313ce567",
    "delegate(address)": "5c19a95c",
    "delegates(address)": "587cde1e",
    "deposit(uint256)": "b6b55f25",
    "deposits(address)": "fc7e286d",
    "getCurrentVotes(address)": "b4b5ea57",
    "getPriorVotes(address,uint256)": "782d6fe1",
    "goldigov()": "c386db5c",
    "locks()": "f557ab03",
    "name()": "06fdde03",
    "nonces(address)": "7ecebe00",
    "numCheckpoints(address)": "6fcfff45",
    "permit(address,address,uint256,uint256,uint8,bytes32,bytes32)": "d505accf",
    "symbol()": "95d89b41",
    "totalSupply()": "18160ddd",
    "transfer(address,uint256)": "a9059cbb",
    "transferFrom(address,address,uint256)": "23b872dd",
    "withdraw(uint256)": "2e1a7d4d"
  },
  "id": 29
}